:100000000C9495010C94C6010C94C6010C94C60185
:100010000C94C6010C94C6010C94C6010C94C60144
:100020000C94C6010C94DC110C94DC110C94DC11C2
:100030000C94C6010C94760D0C94C6010C94C60168
:100040000C94C6010C9416040C94C6010C94C601C1
:100050000C94C6010C94C6010C94C6010C942C0D92
:100060000C94C6010C94E50E0C94BB0E0C94C601C6
:100070000C94C6010C94C6010C94C6010C94C601E4
:100080000C94C6010C94C6010C94C6010C94C601D4
:100090000C94C6010C94C6010C94C6010C94AA10D1
:1000A0000C94C6010C94C6010C94C6010C94C601B4
:1000B0000C94C6010C94C6010C94C6010C947102F8
:1000C0000C94C6010C94C6010C94C6010C94910EBC
:1000D0000C94670E0C94C6010C943D0E0C94130EF8
:1000E0000C94C601E60FE90FD80FDC0FE20F2010C9
:1000F000ED0FF10FF70FFB0FFF0F051009100D109B
:100100002010131017101B10A312A812AD12B71253
:10011000C1123A13CB12D312DB12E512EF12F9120D
:10012000081312133A131C13261330130C942602CF
:100130000C94D3120C94CB120C94F10F0C9420104D
:100140000C94E60F0C94420F0C94E90F0C94AD1232
:100150000C94E50C0C9412130C94F70F0C94670F8D
:100160000C941C130C94ED0F0C94E5120C941310CA
:100170000C9405100C94430F0C94410F0C94301305
:100180000C94440F0C9409100C9427020C94261321
:100190000C94530F0C94C1120C94E20F0C94A812FF
:1001A0000C9417100C94F9120C94DC010C942A0294
:1001B0000C94DC0F0C94DB120C94E7130C940D10D0
:1001C0000C94A3120C9408130C94FB0F0C94FF0FC7
:1001D0000C943A130C949C0F0C94EA010C94690C47
:1001E0000C94B7120C94C8010C94D80F0C946F0F98
:1001F0000C943F0C0C94980C0C94EF120C941B1064
:100200000C94ED13000020002300260029002C0090
:100210002F0032000001000003010601090105055D
:100220000505070508080808020202020A0A08086C
:10023000040404040101010101010101030303039A
:1002400003030303040707070C0C0C0C0C0C0C0C29
:100250000202020206060606060606060B0B0B0B3A
:100260000B0B0B0B0102102020080810204010205F
:10027000408002010201080402010102040810206A
:100280004080804020100804020180040201804068
:1002900020100804020108040201010204081020D1
:1002A0004080010204081020408002000021002448
:1002B0000027002A002D0030003300010100000457
:1002C0000107010A0100002200250028002B002E52
:1002D000003100340002010000050108010B01009B
:1002E000000A0B02090C0D0E0807030401000000B0
:1002F00000000000000000000000000000000000FE
:1003000000000000000000000000001211100000BA
:1003100000000000000000000000000000000000DD
:10032000000000000000ED13E71311241FBECFEF03
:10033000D1E2DEBFCDBF00E00CBF12E0A0E0B2E032
:10034000E0E9FCE300E00BBF02C007900D92AA3584
:10035000B107D9F727E0AAE5B2E001C01D92AD349C
:10036000B207E1F711E0C4E9D1E000E006C021974F
:100370000109802FFE010E94851AC339D10780E050
:100380000807A9F70E9410160C94361E0C94000062
:10039000FC01918D828D981761F0828DDF01A80F8D
:1003A000B11D5D968C91928D9F5F9F73928F90E0AF
:1003B00008958FEF9FEF0895FC01918D828D98171E
:1003C00031F0828DE80FF11D858D90E008958FEF5B
:1003D0009FEF0895FC01918D228D892F90E0805C24
:1003E0009F4F821B91098F7399270895E0E0F0E0F9
:1003F000199480E090E0892B21F00E948C0C8111EF
:1004000019C080E090E0892B41F080E090E0892BDA
:1004100021F00E940000811110C00E94820C811105
:100420000FC080E090E0892B81F00E94780C811150
:100430000AC008950E940000E4CF0E940000EDCFA2
:100440000E94F601EECF0C9400000895089580E01C
:1004500090E008950F931F93CF93DF938C01C62FE5
:10046000D62FD07FD1606D2F0E9469106D2FC801EB
:100470000E947C1080E1C89FB0011124C62FC1608A
:100480006C2FC8010E9469106C2FC8010E947C105B
:1004900081E090E0DF91CF911F910F910895FC01D1
:1004A000848DDF01A80FB11DA35ABF4F2C91848DFD
:1004B00090E001968F739927848FA689B7892C9332
:1004C000A089B1898C91837080648C93938D848D85
:1004D000981306C00288F389E02D80818F7D808388
:1004E00008951F920F920FB60F9211240BB60F9220
:1004F0002F933F934F935F936F937F938F939F932C
:10050000AF93BF93EF93FF938091A3040E94E611F2
:100510002091A7043091A8042F5F3F4F3093A80487
:100520002093A7049091A604953618F096E0909336
:10053000A2049091A2049430C9F128F4923069F099
:100540009330D1F05EC0953009F451C0963009F077
:1005500058C091E09093730551C0811152C0209111
:10056000A7043091A8042436310508F442C0109243
:1005700073051092A6041CC0813009F042C0E091BE
:10058000A60491E09E0F9093A604F0E02091A704AA
:100590003091A804EE0FFF1FEE55FB4F30872783E5
:1005A0001092A8041092A70494E029C0811117C0EA
:1005B000E091A60491E09E0F9093A604F0E02091B4
:1005C000A7043091A804EE0FFF1FEE55FB4F3087B4
:1005D00027831092A8041092A70493E010C02091E2
:1005E000A7043091A8042536310558F007C08111C1
:1005F00008C01092A8041092A70403C095E090933D
:10060000A2049091A5049923B9F081110AC08091A8
:10061000A404882321F08091A40461E009C02F9AEA
:100620000BC08091A404882331F08091A40460E081
:100630000E940F1201C02F98FF91EF91BF91AF91CF
:100640009F918F917F916F915F914F913F912F91EA
:100650000F900BBE0F900FBE0F901F9018958F92AA
:100660009F92AF92BF92CF92DF92EF92FF920F9341
:100670001F93CF93DF93EC016A017B0120E030E010
:100680004FE753E4C701B6010E94AC194B015C016E
:1006900020E030E0A9010E94161C18161CF4C501C8
:1006A000B40103C0C501B40190580E948C1B8B019A
:1006B00020E030E0A901C701B6010E94161C1816FF
:1006C00014F460E001C061E089810E940F120F3FC5
:1006D000110509F01CF4B801772702C06FEF70E034
:1006E0008881DF91CF911F910F91FF90EF90DF9064
:1006F000CF90BF90AF909F908F900C947A128EBD48
:1007000000000DB407FEFDCF8EB50895CF93DF93A3
:10071000EC0160E088810E940F1288E90E947F034B
:1007200080E00E947F0380E00E947F0380E00E94BF
:100730007F0380E00E947F0361E088810E940F12A6
:100740008BE891E00197F1F760E088810E940F1239
:1007500080EE0E947F0361E08881DF91CF910C944D
:100760000F12AF92BF92CF92DF92EF92FF920F9350
:100770001F93CF93DF93CDB7DEB760970FB6F89492
:10078000DEBF0FBECDBF5C0160E0FC0180810E9436
:100790000F1280E60E947F038E010F5F1F4F7E01C4
:1007A000F1E1EF0EF11C680180E00E947F0390E010
:1007B000A0E0B0E0F60181939193A193B1936F0112
:1007C000EE15FF0589F761E0F50180810E940F12A7
:1007D00080E090E0DC01F8014191519161917191CB
:1007E0008F01BA2FA92F982F8827840F951FA61F36
:1007F000B71FEE15FF0579F79C01AD016627772736
:10080000CB01621B730B840B950B60960FB6F894AB
:10081000DEBF0FBECDBFDF91CF911F910F91FF9033
:10082000EF90DF90CF90BF90AF9008951F920F92FE
:100830000FB60F9211240BB60F922F933F934F9345
:100840005F936F937F938F939F93AF93BF93EF9338
:10085000FF938091730287FF05C01092850010926C
:10086000840016C020917302022E000C330B80917D
:10087000B00590E0281739075CF43091730225E049
:100880003203F0011124EC58FA4F808186FD15C027
:10089000809173028F5F8093730220917302022E06
:1008A000000C330B8091B00590E02817390794F4C1
:1008B000809173028C302CF10DC0309173023203A1
:1008C000F0011124EC58FA4F808160E08F730E9490
:1008D0000F12DECF809184009091850084349C4972
:1008E00018F480E49CE905C0809184009091850013
:1008F000049690938900809388008FEF8093730211
:100900002AC040918400509185003091730225E007
:100910003203F0011124EC58FA4F81819281840F47
:10092000951F909389008093880030917302320361
:10093000F0011124EC58FA4F808186FF0CC03091F1
:1009400073023203F0011124EC58FA4F808161E008
:100950008F730E940F12FF91EF91BF91AF919F9102
:100960008F917F916F915F914F913F912F910F9058
:100970000BBE0F900FBE0F901F9018954F925F9275
:100980006F927F928F929F92AF92BF92CF92DF929F
:10099000EF92FF920F931F93CF93DF9300D000D07D
:1009A000CDB7DEB720E83CE0DC010E948D1A0E9442
:1009B0004D1920E030E044EC51E40E941A1B0E94E3
:1009C0008C1B6B017C0185ED95E00E94860387ED11
:1009D00095E00E94B10387ED95E00E9486034DECFF
:1009E0005CEC6CEC7DEB83ED95E00E942F034DEC0D
:1009F0005CEC6CEC7DE381ED95E00E942F0300E060
:100A000010E01E821D828DEC882E8CEC982EA92C75
:100A10008DE3B82E2601370121EE421A51086108F4
:100A200071082D813E81C901330FAA0BBB0B8415C0
:100A30009505A605B7055CF0C801012E000CAA0BB0
:100A4000BB0B84159505A605B7050CF062C087EDB4
:100A500095E00E94B10369837A838B839C8385ED43
:100A600095E00E94B103CC24DD247601C61AD70A92
:100A7000E80AF90A87ED95E00E94860385ED95E086
:100A80000E9486038D819E818C0D9D1D9E838D838A
:100A900029813A81020F131FB601621B730B072EC7
:100AA000000C880B990B0E944D1927E137EB41EDA3
:100AB00058E30E94AC196B017C016D817E81601B43
:100AC000710B072E000C880B990B0E944D192CEA14
:100AD00035EC47EA57E30E94AC199B01AC01C70112
:100AE000B6010E94AE1A9B01AC01C501B4010E947F
:100AF000AE1A4B015C01AB01BC01705883ED95E06F
:100B00000E942F0362E370E080E090E00E9468138F
:100B100088CF40E050E0BA0181ED95E00E942F03BC
:100B200040E050E060E070E883ED95E00E942F0324
:100B300064E670E080E090E026960FB6F894DEBFA1
:100B40000FBECDBFDF91CF911F910F91FF90EF901E
:100B5000DF90CF90BF90AF909F908F907F906F90DD
:100B60005F904F900C9468132F923F924F925F9238
:100B70006F927F928F929F92AF92BF92CF92DF92AD
:100B8000EF92FF920F931F93CF93DF93CDB7DEB712
:100B900060970FB6F894DEBF0FBECDBF9E838D83E6
:100BA00086E12D813E81829FB001839F700D1124CB
:100BB000072E000C880B990B0E944D1969837A83CC
:100BC0008B839C8320E030E0A9010E94461987FFB7
:100BD00009C089819A81AB81BC81B05889839A838D
:100BE000AB83BC8385ED95E00E94860387ED95E09D
:100BF0000E948603AD81BE811A161B060CF0F6C05A
:100C00004DEC5CEC6CEC7DE381ED95E00E942F03F4
:100C10004DEC5CEC6CEC7DE383ED95E00E942F03E2
:100C20001A86198618861F82188A1F8600E010E02F
:100C30008DEC882E8CEC982EA92C8DEBB82E20E014
:100C400030E040E450E469817A818B819C810E948C
:100C5000AD1A6B017C01B801012E000C880B990BB9
:100C60000E944D19A70196010E94461987FD11C0E7
:100C70004F855889BA01550F880B990B0E944D1961
:100C80009B01AC01C701B6010E94161C18160CF09E
:100C900059C187ED95E00E94B1036B877C878D87F2
:100CA0009E878B859C859195819591099E838D83E7
:100CB00085ED95E00E94B103442455243201461A83
:100CC000570A680A790A1201C201AF81B8858A1BE6
:100CD0009B0B080F191F8D819E8129853A85821BE8
:100CE000930B4F855889480F591F588B4F8755E6EE
:100CF000451651040CF444C087ED95E00E9486032C
:100D000085ED95E00E9486036B857C85640D751DDD
:100D1000072E000C880B990B0E944D1927E137EB29
:100D200041ED58E30E94AC192B013C01B8018F85BD
:100D30009889681B790B072E000C880B990B0E9471
:100D40004D192CEA35EC47EA57E30E94AC199B0198
:100D5000AC01C301B2010E94AE1A9B01AC01C501F6
:100D6000B4010E94AD1A4B015C01AB01BC0170588B
:100D700083ED95E00E942F031E821D82212C312CD1
:100D8000B801012E000C880B990B0E944D199B0194
:100D9000AC01C701B6010E94461987FF07C040E0B9
:100DA00050E0BA0181ED95E00E942F03AF85B8892C
:100DB000BD01BB0F880B990B0E944D199B01AC0123
:100DC000C701B6010E94461987FD07C02D813E81EB
:100DD0003A87298738862F8232CF40E050E060E0A2
:100DE00070E883ED95E00E942F03F0CF2D813E81C6
:100DF000232B09F4A7C04DEC5CEC6CEC7DEB81ED92
:100E000095E00E942F034DEC5CEC6CEC7DEB83EDE8
:100E100095E00E942F03C12CD12CA12CB12CE12CE8
:100E2000F12C00E010E020E030E040E450E4698183
:100E30007A818B819C810E94AD1A2B013C01B80103
:100E4000012E000C880B990B0E944D19A3019201F1
:100E50000E94461987FD10C0B7010F2C000C880BAB
:100E6000990B0E944D199B01AC01C301B2010E9474
:100E7000161C18160CF066C085ED95E00E94B103B3
:100E80009B01AC0188279927DC01821B930BA40BE3
:100E9000B50B44275527481B590B5E834D8387EDBF
:100EA00095E00E94B1034B012D813E812A193B0937
:100EB000020F131FAB014C195D09E40EF51E8D8165
:100EC0009E818536910564F087ED95E00E9486034A
:100ED00085ED95E00E948603812C912C1E821D8257
:100EE000B801012E000C880B990B0E944D199B0133
:100EF000AC01C301B2010E94461987FF07C040E060
:100F000050E0BA0181ED95E00E942F03B7010F2C4C
:100F1000000C880B990B0E944D199B01AC01C30179
:100F2000B2010E94461987FD04C06401AD80BE80F5
:100F30007ACF40E050E060E070E883ED95E00E94F9
:100F40002F03F3CF40E050E0BA0181ED95E00E941D
:100F50002F0340E050E060E070E883ED95E060969C
:100F60000FB6F894DEBF0FBECDBFDF91CF911F91BA
:100F70000F91FF90EF90DF90CF90BF90AF909F9038
:100F80008F907F906F905F904F903F902F900C9438
:100F90002F032F923F924F925F926F927F928F9288
:100FA0009F92AF92BF92CF92DF92EF92FF920F93F8
:100FB0001F93CF93DF93CDB7DEB72A970FB6F89480
:100FC000DEBF0FBECDBF9F838E838DE30E94431390
:100FD0008CE30E9443138BE30E9443138AE30E9435
:100FE000431386E30E94431387E30E94431388E37D
:100FF0000E94431389E30E9443131A821982212C11
:10100000312CC12CD12CE12CF12C00E010E01C8201
:101010001B822B813C814E815F812417350709F4A7
:1010200029C160E472E085E094E00E9467098DE3E5
:101030000E944313998788878CE30E9443138BE3B4
:101040000E9443138AE30E94431386E30E944313E2
:101050005C0187E30E94431388E30E94431389E302
:101060000E94431388859985843F91407CF034EF3A
:10107000A31631E0B3068CF049815A81452B09F45F
:10108000EFC081E090E09A83898307C094EFA916AE
:1010900091E0B90614F41A8219828091E0050E9449
:1010A000E611892B09F0E0C08CE30E9443132C0168
:1010B0008BE30E9443133C018AE30E9443134C01DB
:1010C00089E30E9443139987888788E30E9443132A
:1010D0005C0187E30E94431324E1249DA001259D28
:1010E000500D11246AE0669D9001679D300D11241A
:1010F000240F351F820E931E6A9D90016B9D300D4B
:10110000112448855985420F531F5987488744E168
:101110009C01429FC001439F900D11242885398571
:10112000280F391F3401621A730A372D330F330B1E
:10113000388793014885542F642F742F842F942F60
:1011400051010E94A41A2D83C32ED42EE52EF62E13
:10115000072F182F9A87B301072C000C880B990BC7
:101160000E944D192CEA35EC47E257E30E94AC1976
:1011700020E030E0A9010E94AE1A4B015C012D81F4
:101180003C2D4D2D5E2D6F2D702F812F9A850E9445
:10119000C21B2CEA35EC47E257E30E94AC199B01D5
:1011A000AC01C501B4010E94AE1A4B015C01930170
:1011B0004885542F642F742F842F942F0E94941AE3
:1011C0000E94C21B2CEA35EC47E257E30E94AC199F
:1011D00020E030E0A9010E94AE1A1B012C012D81F4
:1011E0003C2D4D2D5E2D6F2D702F812F9A850E94E5
:1011F000941A0E94C21B2CEA35EC47E257E30E9486
:10120000AC199B01AC01C201B1010E94AE1A2DECD8
:101210003CEC4CE45EE30E94AE1AAB01BC0181EDF4
:1012200095E00E942F032DEC3CEC4CE45EE3C501FD
:10123000B4010E94AE1AAB01BC01705883ED95E079
:101240000E942F036AE070E080E090E00E94681343
:101250001301C884DC2CEC2CFC2C0C2D1C2DE1CEB5
:1012600041E050E05A8349838B819C8101969C83A5
:101270008B83CFCE40E050E0BA0181ED95E00E9433
:101280002F0340E050E060E070E883ED95E02A969F
:101290000FB6F894DEBF0FBECDBFDF91CF911F9187
:1012A0000F91FF90EF90DF90CF90BF90AF909F9005
:1012B0008F907F906F905F904F903F902F900C9405
:1012C0002F0342E050E06AE472E00C943F0C0F936D
:1012D0001F93CF93DF938C016115710561F0FB01C2
:1012E00001900020E9F73197AF01461B570B0E9490
:1012F0003F0CEC0102C0C0E0D0E0C8010E946109CF
:101300008C0F9D1FDF91CF911F910F9108952F9208
:101310003F924F925F926F927F928F929F92AF9285
:10132000BF92CF92DF92EF92FF920F931F93CF93D2
:10133000DF9300D01F92CDB7DEB78DE30E94431339
:101340008CE30E9443138BE30E9443138AE30E94C1
:10135000431386E30E94431387E30E94431388E309
:101360000E94431389E30E944313A12CB12CC12C8A
:10137000D12C512C412C312C212C8091E0050E9444
:10138000E611892B09F027C160E08091EC050E94ED
:101390000F1283E090E00197F1F761E08091EC0596
:1013A0000E940F1283E290E00197F1F760E08091D4
:1013B000EC050E940F128091EB0590E0FC01EC59C6
:1013C000FD4F6491FC01E25EFD4FE491F0E0EE0F11
:1013D000FF1FEC5FFD4F8591949100E412E42FE034
:1013E00030E0462F0E94A213611571058105910519
:1013F00049F0DC01CB010196A11DB11DBC01CD015D
:101400009F7003C060E070E0CB010E944B1920E0A8
:1014100030E048E652E40E941A1B20E030E040E74A
:1014200051E40E94161C18160CF0D5C08CE30E94E3
:1014300043134C018BE30E9443133C018AE30E9457
:1014400043137C0189E30E9443139B838A8388E3CF
:101450000E9443138C0187E30E94431344E1489D9B
:101460009001499D300D11245AE0569D4001579D31
:10147000900C1124820E931E8E0C9F1C509F900185
:10148000519F300D11244A815B81420F531F5B83B2
:101490004A8344E19C01429FC001439F900D112467
:1014A0002A813B81280F391F821A930A392D330F65
:1014B000330B3A8394014A81542F642F742F842F65
:1014C000942FE52CF42C032D122D0E94A41A19013F
:1014D0007A018B018C839983B401092C000C880B51
:1014E000990B0E944D192CEA35EC47EA57E30E940C
:1014F000AC1920E030E0A9010E94AE1A2B013C019A
:101500009101A701B8018C8199810E94C21B2CEA2C
:1015100035EC47E257E30E94AC199B01AC01C301D3
:10152000B2010E94AE1A2B013C0194014A81542F52
:10153000642F742F842F942F0E94941A0E94C21B30
:101540002CEA35EC47EA57E30E94AC1920E030E082
:10155000A9010E94AE1A5B016C019101A701B801BB
:101560008C8199810E94941A0E94C21B2CEA35EC4E
:1015700047E257E30E94AC199B01AC01C601B501DB
:101580000E94AE1A2DEC3CEC4CE45EE30E94AE1AD5
:10159000AB01BC0181ED95E00E942F032DEC3CECEA
:1015A0004CE45EE3C301B2010E94AE1AAB01BC0180
:1015B000705883ED95E00E942F036AE070E080E0B0
:1015C00090E00E9468135401CA80DC2C5C2C4C2CE7
:1015D0003C2C2C2CD2CE0F900F900F900F90DF91BF
:1015E000CF911F910F91FF90EF90DF90CF90BF9020
:1015F000AF909F908F907F906F905F904F903F90B3
:101600002F900895FC01A089B18982E08C93A48574
:10161000B5851C92A685B7858FEC8C93108EA48916
:10162000B58986E08C93A289B3898C9180618C9373
:10163000A289B3898C9188608C93A289B3898C919B
:1016400080688C930288F389E02D80818F7D808370
:1016500008954F925F926F927F928F929F92AF9276
:10166000BF92CF92DF92EF92FF920F931F93CF938F
:10167000DF9385ED95E00E94860387ED95E00E945B
:1016800086034DEC5CEC6CEC7DE383ED95E00E9411
:101690002F034DEC5CEC6CEC7DEB81ED95E00E9452
:1016A0002F038DEC482E8CEC582E652C8DEB782E6C
:1016B000C0E0D0E000E010E087ED95E00E94B103CB
:1016C0004B015C0185ED95E00E94B103CC24DD2443
:1016D0007601C61AD70AE80AF90A87ED95E00E9452
:1016E000860385ED95E00E9486030C0D1D1DC80D37
:1016F000D91DB60168197909072E000C880B990BC2
:101700000E944D1927E137EB41ED58E30E94AC19D7
:101710006B017C01B8016C1B7D0B072E000C880B44
:10172000990B0E944D192CEA35EC47EA57E30E94C9
:10173000AC199B01AC01C701B6010E94AE1A9B0116
:10174000AC01C301B2010E94AE1A2B013C01AB01F6
:10175000BC01705883ED95E00E942F0362E370E0B6
:1017600080E090E00E946813033C8AEF18070CF0B9
:10177000A3CFC33C8AEFD8070CF09ECF40E050E0E7
:10178000BA0181ED95E00E942F0340E050E060E057
:1017900070E883ED95E00E942F0364E670E080E03E
:1017A00090E0DF91CF911F910F91FF90EF90DF902C
:1017B000CF90BF90AF909F908F907F906F905F90F1
:1017C0004F900C9468133091BE02313208F04BC038
:1017D00080919A028111FCCF9091BD0222E020936A
:1017E0009A0221E0209399022FEF20939802109201
:1017F000970230939602EDE9F2E0A6E7B2E020E02E
:10180000321721F041914D932F5FFACF109275025C
:1018100020917502990F922B90937502909174020A
:10182000913061F410927402909175029093BB0014
:101830009091BC0093FDF8CF95EC01C095EE90938C
:10184000BC0090919A029230E1F3909198029F3FF0
:1018500079F080919802803241F080919802803333
:1018600031F084E005C081E003C082E001C083E084
:1018700010929C021092BE0210929B020895CF9289
:10188000DF92EF92FF920F931F93CF93DF936C0140
:101890007A018B01C0E0D0E0CE15DF0581F0D801E0
:1018A0006D918D01D601ED91FC910190F081E02DBB
:1018B000C6011995892B11F02196EECF7E01C70143
:1018C000DF91CF911F910F91FF90EF90DF90CF901C
:1018D0000895FC01538D448D252F30E0842F90E036
:1018E000821B930B541710F0CF960895019708951B
:1018F0008BEC92E00E94EA0121E0892B09F420E0C0
:10190000822F089588E693E00E94EA0121E0892B66
:1019100009F420E0822F089585E094E00E94EA0116
:1019200021E0892B09F420E0822F08950E94211ED6
:10193000EF92FF920F931F93CF93DF93EC0181E01F
:10194000888F9B8D8C8D981305C0E889F9898081DB
:1019500085FD26C0F62E0B8D10E00F5F1F4F0F7315
:101960001127E02E8C8DE8120CC00FB607FCFACFC1
:10197000E889F989808185FFF5CFCE010E944F0269
:10198000F1CF8B8DFE01E80FF11DE35AFF4FF0827E
:101990009FB7F8940B8FEA89FB89808180620AC027
:1019A0009FB7F894EE89FF896083E889F98980817F
:1019B0008370806480839FBF81E090E0DF91CF914E
:1019C0001F910F91FF90EF900895CF93DF93EC015B
:1019D000888D8823C9F0EA89FB89808185FD05C04F
:1019E000A889B9898C9186FD0FC00FB607FCF5CF89
:1019F000808185FFF2CFA889B9898C9185FFEDCFD1
:101A0000CE010E944F02E7CFDF91CF9108953FB7FB
:101A1000F8948091DA069091DB06A091DC06B091F3
:101A2000DD0626B5A89B05C02F3F19F00196A11D24
:101A3000B11D3FBFBA2FA92F982F8827820F911D64
:101A4000A11DB11DBC01CD0142E0660F771F881FAB
:101A5000991F4A95D1F708951F920F920FB60F92D2
:101A600011242F933F938F939F93AF93BF938091B4
:101A7000D6069091D706A091D806B091D90630919C
:101A8000D50623E0230F2D3720F40196A11DB11DAB
:101A900005C026E8230F0296A11DB11D2093D5068F
:101AA0008093D6069093D706A093D806B093D90614
:101AB0008091DA069091DB06A091DC06B091DD06FC
:101AC0000196A11DB11D8093DA069093DB06A093C9
:101AD000DC06B093DD06BF91AF919F918F913F914E
:101AE0002F910F900FBE0F901F9018951F920F927D
:101AF0000FB60F9211240BB60F922F933F934F9373
:101B00005F936F937F938F939F93AF93BF93EF9365
:101B1000FF938091D0069091D106A091D206B0910A
:101B2000D306892B8A2B8B2B49F19091CF0680917C
:101B300000008927809300008091D0069091D10603
:101B4000A091D206B091D306181619061A061B06E4
:101B50000CF056C08091D0069091D106A091D2068B
:101B6000B091D3060197A109B1098093D006909353
:101B7000D106A093D206B093D30642C08091010251
:101B8000EAEAF2E0E4919FEF90930102E230C9F0BB
:101B900050F4EE2399F0E13081F590916F009D7F34
:101BA00090936F002AC0E43019F1E0F0E53029F598
:101BB000909173009D7F909373001FC010926E00F0
:101BC0001CC0909170009D7F9093700091E0909365
:101BD000B0009091B100987F94609093B100109202
:101BE000B3000BC0909171009D7F9093710005C070
:101BF000909172009D7F9093720060E00E940F129E
:101C0000FF91EF91BF91AF919F918F917F916F91D4
:101C10005F914F913F912F910F900BBE0F900FBE90
:101C20000F901F9018951F920F920FB60F921124CC
:101C30000BB60F922F933F934F935F936F937F93C6
:101C40008F939F93AF93BF93EF93FF938BEC92E0AF
:101C50000E944F02FF91EF91BF91AF919F918F91A1
:101C60007F916F915F914F913F912F910F900BBE9C
:101C70000F900FBE0F901F9018951F920F920FB6E6
:101C80000F9211240BB60F922F933F934F935F93B4
:101C90006F937F938F939F93AF93BF93EF93FF9334
:101CA0008BEC92E00E949110FF91EF91BF91AF9168
:101CB0009F918F917F916F915F914F913F912F9164
:101CC0000F900BBE0F900FBE0F901F9018951F9294
:101CD0000F920FB60F9211240BB60F922F933F93D2
:101CE0004F935F936F937F938F939F93AF93BF9324
:101CF000EF93FF9388E693E00E944F02FF91EF91EC
:101D0000BF91AF919F918F917F916F915F914F9113
:101D10003F912F910F900BBE0F900FBE0F901F9011
:101D200018951F920F920FB60F9211240BB60F92B7
:101D30002F933F934F935F936F937F938F939F93D3
:101D4000AF93BF93EF93FF9388E693E00E949110C7
:101D5000FF91EF91BF91AF919F918F917F916F9183
:101D60005F914F913F912F910F900BBE0F900FBE3F
:101D70000F901F9018951F920F920FB60F9211247B
:101D80000BB60F922F933F934F935F936F937F9375
:101D90008F939F93AF93BF93EF93FF9385E094E06E
:101DA0000E944F02FF91EF91BF91AF919F918F9150
:101DB0007F916F915F914F913F912F910F900BBE4B
:101DC0000F900FBE0F901F9018951F920F920FB695
:101DD0000F9211240BB60F922F933F934F935F9363
:101DE0006F937F938F939F93AF93BF93EF93FF93E3
:101DF00085E094E00E949110FF91EF91BF91AF9127
:101E00009F918F917F916F915F914F913F912F9112
:101E10000F900BBE0F900FBE0F901F90189585ED81
:101E20008093BC008091BC0084FDFCCF10929A028C
:101E3000089540912607262F30E0240F311D2132CE
:101E40003105DCF420919A022430C9F4FC0180E0D1
:101E500090E0861758F4309126072191DC01AA5FA3
:101E6000B84FA30FB11D2C930196F3CF8091260795
:101E7000680F6093260780E0089581E0089582E06E
:101E80000895089508950895E091DF068091DE0693
:101E9000E81730F4F0E0EA51F94F808190E00895BE
:101EA0008FEF9FEF08959091DF068091DE069817DF
:101EB00050F4E92FF0E0EA51F94F208130E09F5FC4
:101EC0009093DF0602C02FEF3FEFC9010895809184
:101ED000DE0690E02091DF06821B91090895CF92E3
:101EE000DF92EF92FF920F931F93CF93DF937C01CA
:101EF000CB018A0120919B02222389F0EB016B0127
:101F0000C40ED51ECC15DD0569F06991D701ED91A0
:101F1000FC910190F081E02DC7011995F3CF642F5A
:101F20000E94190FC801DF91CF911F910F91FF906F
:101F3000EF90DF90CF900895CF93DF931F92CDB7AE
:101F4000DEB7698320919B022223D1F02091BE024B
:101F5000203240F021E030E0FC013383228380E036
:101F600090E015C080919C02E82FF0E0E356FD4F11
:101F7000998190838F5F80939C028093BE0205C0FD
:101F800061E0CE0101960E94190F81E090E00F9070
:101F9000DF91CF91089590E0FC013197E231F10596
:101FA00008F04EC08827EE58FF4F8F4F0C94851ACB
:101FB000809180008F7703C0809180008F7D809317
:101FC0008000089580918000877FF9CF84B58F7756
:101FD00002C084B58F7D84BD08958091B0008F7755
:101FE00003C08091B0008F7D8093B00008958091F0
:101FF00090008F7707C0809190008F7D03C0809103
:102000009000877F8093900008958091A0008F7743
:1020100007C08091A0008F7D03C08091A000877FC2
:102020008093A0000895809120018F7707C0809150
:1020300020018F7D03C080912001877F8093200144
:1020400008950F931F93CF93DF93162F072FC8EB9D
:10205000D5E09C8521E020939B029093BD021092D5
:102060009C021092BE02AA85BB85ED91FC9111974E
:102070000190F081E02D682FCD0119958A859B850F
:10208000DC01ED91FC910190F081E02D602F19951C
:102090008A859B85DC01ED91FC910190F081E02D1A
:1020A000612F1995DF91CF911F910F910C94E30B44
:1020B000CF93DF93682F85E094E00E94980CEC01A9
:1020C00085E094E00E9461098C0F9D1FDF91CF9104
:1020D0000895FC01248131E030939B022093BD02DE
:1020E00010929C021092BE028485682B8FEB92E0C6
:1020F0000E949C0F0C94E30B0F931F93CF938C01C2
:10210000C62F64600E9469106C2F6B7FC8010E940B
:10211000691083EC90E00197F1F7CF911F910F9137
:102120000895FC01A089B1898C91A689B78982FDA7
:102130000FC09C91818D8F5F8F73228D821749F024
:10214000218DDF01A20FB11D5D969C93818F0895B3
:102150008C9108951F920F920FB60F9211240BB617
:102160000F922F933F934F935F936F937F938F9330
:102170009F93AF93BF93EF93FF938091B900887FB4
:10218000803609F49CC068F5883209F45BC090F48D
:10219000803109F454C038F4882309F4F6C088303B
:1021A00009F44DC0F6C0883109F44CC0803209F4FE
:1021B0005DC0EFC0803409F468C048F4803309F48E
:1021C00055C0883309F0E5C080939802D8C08035A7
:1021D00009F44FC0883509F45DC0883409F0D9C0CE
:1021E000D6C0883909F4C7C0A8F4883709F467C095
:1021F00038F4883609F463C0803709F460C0C9C078
:10220000883809F4B8C0803909F45FC0803809F013
:10221000C0C05BC0803B09F486C038F4803A09F442
:1022200066C0883A09F47FC0B4C0803C09F4A7C0F6
:10223000883C09F4A4C0883B09F48AC0AAC08091F4
:10224000750210C09091970280919602981770F5D0
:10225000E091970281E08E0F80939702F0E0EA58B8
:10226000FD4F80818093BB0085EC86C080939802EF
:102270008EC0E091970281E08E0F8093970280914B
:10228000BB00F0E0EA58FD4F808390919702809167
:1022900096026EC0E091970281E08E0F80939702C4
:1022A0008091BB00F0E0EA58FD4F80838091990255
:1022B00081116DC081E08093740284EA61C083E083
:1022C00080939A0210924807CFCF809148078032BE
:1022D00008F051C0E091480781E08E0F80934807D5
:1022E0008091BB00F0E0E85DF84F8083BDCF85ECC6
:1022F0008093BC0010929A0280914807803230F49B
:10230000E0914807F0E0E85DF84F108260914807DF
:1023100070E0E091E206F091E30688E297E019951B
:102320001092480736C084E080939A0210922707E3
:1023300010922607E091E006F091E1061995809150
:102340002607811105C081E08093260710920607B9
:10235000E091270781E08E0F80932707F0E0EA5F86
:10236000F84F80818093BB009091270780912607CA
:10237000981708F479CF85E88093BC000AC085ECF3
:102380008093BC0010929A0204C0109298020E949E
:102390000F0FFF91EF91BF91AF919F918F917F911F
:1023A0006F915F914F913F912F910F900BBE0F90C6
:1023B0000FBE0F901F9018951F920F920FB60F929D
:1023C00011240F900FBE0F901F901895CF93DF939D
:1023D000282F30E0F901E152FD4F8491F901EC59C9
:1023E000FD4FD491F901E25EFD4FC491CC2391F0F1
:1023F00081110E94CB0FEC2FF0E0EE0FFF1FEC5F7E
:10240000FD4FA591B491EC91ED2381E090E021F492
:1024100080E002C080E090E0DF91CF9108951F93AB
:10242000CF93DF93282F30E0F901E152FD4F8491E3
:10243000F901EC59FD4FD491F901E25EFD4FC491D1
:10244000CC23C1F0162F81110E94CB0FEC2FF0E0AE
:10245000EE0FFF1FEB53FD4FA591B4919FB7F8947A
:10246000111104C08C91D095D82302C0EC91DE2BC1
:10247000DC939FBFDF91CF911F910895CF93DF939E
:1024800090E0FC01EC59FD4F2491FC01E25EFD4F10
:102490008491882361F190E0880F991FFC01E55534
:1024A000FD4FC591D491FC01EB53FD4FA591B49123
:1024B000611109C09FB7F894888120958223888391
:1024C000EC912E230BC0623061F49FB7F8948881A1
:1024D000322F309583238883EC912E2B2C939FBF32
:1024E00006C08FB7F894E8812E2B28838FBFDF9129
:1024F000CF9108951F93CF93DF93182FEB0161E0E5
:102500000E943E12209711F460E004C0CF3FD10535
:1025100039F461E0812FDF91CF911F910C940F125C
:10252000E12FF0E0E152FD4FE4918E2F90E0FC01AD
:102530003197E231F10508F09DC08827EC57FF4F35
:102540008F4F0C94851A84B5806884BDC7BD97C031
:1025500084B5806284BDC8BD92C0809180008068CF
:1025600080938000D0938900C093880088C08091B8
:102570008000806280938000D0938B00C0938A009B
:102580007EC080918000886080938000D0938D0011
:10259000C0938C0074C08091B00080688093B000BC
:1025A000C093B3006CC08091B00080628093B00093
:1025B000C093B40064C080919000806880939000C4
:1025C000D0939900C09398005AC080919000806287
:1025D00080939000D0939B00C0939A0050C080914C
:1025E0009000886080939000D0939D00C0939C00E1
:1025F00046C08091A00080688093A0008091A000D8
:102600008F7B8093A000D093A900C093A80037C00F
:102610008091A00080628093A000D093AB00C09313
:10262000AA002DC08091A00088608093A000D09364
:10263000AD00C093AC0023C08091200180688093DE
:102640002001D0932901C093280119C08091200155
:10265000806280932001D0932B01C0932A010FC088
:1026600080912001886080932001D0932D01C09338
:102670002C0105C0C038D1050CF04BCF45CFDF9100
:10268000CF911F910895863308F0865390917B0077
:10269000282F2870977F922B90937B002091000227
:1026A00090E4299F900111248770822B80937C00F5
:1026B00080917A00806480937A0080917A0086FD10
:1026C000FCCF809178002091790090E0922B0895C2
:1026D0008F929F92AF92BF92CF92DF92EF92FF9232
:1026E0006B017C010E94070D4B015C01C114D104F8
:1026F000E104F104F1F00E94070DDC01CB0188191F
:102700009909AA09BB09883E9340A105B10570F358
:1027100021E0C21AD108E108F10888EE880E83E0B2
:10272000981EA11CB11CC114D104E104F10419F7D5
:10273000DDCFFF90EF90DF90CF90BF90AF909F9054
:102740008F900895CF92DF92EF92FF920F931F9395
:10275000E82FF92F05C0015011092109310961F154
:10276000908196239417B9F305C0015011092109EE
:10277000310911F1908196239413F7CFC12CD12CFC
:10278000E12CF12C0AC08FEFC81AD80AE80AF80A1F
:102790000C151D052E053F0579F0808186238417D1
:1027A00091F36C2D7D2D8E2D9F2D1F910F91FF90FC
:1027B000EF90DF90CF90089560E070E080E090E0CF
:1027C0001F910F91FF90EF90DF90CF90089580912F
:1027D000B1059091B2050C94B31CCF92DF92EF92A9
:1027E000FF921092C2021092C10288EE93E0A0E024
:1027F000B0E08093C3029093C402A093C502B0934B
:10280000C60224E132E03093C0022093BF0210924E
:10281000CE021092CD028093CF029093D002A0936B
:10282000D102B093D20226E232E03093CC02209360
:10283000CB0245E351E05093D8024093D70244E3E2
:1028400051E05093DA024093D90240E351E05093B3
:10285000DC024093DB0241E351E05093DE024093FF
:10286000DD0242E351E05093E0024093DF0246E391
:1028700051E05093E2024093E1021092E402109280
:10288000E5021092E6021092E70210926B0310929A
:102890006A0380936C0390936D03A0936E03B093CF
:1028A0006F03309369032093680345ED50E0509324
:1028B00075034093740344ED50E0509377034093C5
:1028C000760340ED50E0509379034093780341ED57
:1028D00050E050937B0340937A0342ED50E05093D5
:1028E0007D0340937C0346ED50E050937F0340937B
:1028F0007E03109281031092820310928303109240
:1029000084031092080410920704809309049093A2
:102910000A04A0930B04B0930C0430930604209394
:10292000050485EC90E0909312048093110484ECEC
:1029300090E0909314048093130480EC90E09093C3
:1029400016048093150481EC90E090931804809312
:10295000170482EC90E090931A048093190486EC9B
:1029600090E090931C0480931B0410921E0410921C
:102970001F0410922004109221048091080290916B
:102980000902A0910A02B0910B028093D90590939D
:10299000DA05A093DB05B093DC0580910C029091E1
:1029A0000D02A0910E02B0910F028093DD0590936D
:1029B000DE05A093DF05B093E00584E08093E10598
:1029C00087E08093E2051092E30584EB8093E405B1
:1029D00086E18093E50588E18093E60587E18093B1
:1029E000E70589E18093E805E091B005EC3020F03F
:1029F0008FEF8093E90510C081E08E0F8093B005C2
:102A0000E093E90585E0E89FF0011124EC58FA4FC6
:102A100088EB9BE092838183E091B005EC3020F05D
:102A20008FEF8093EA0510C081E08E0F8093B00590
:102A3000E093EA0585E0E89FF0011124EC58FA4F95
:102A400088EB9BE0928381838CE08093B80584E2DD
:102A50008093B90586E08093BA0585E08093BB0535
:102A60008FE18093BC058EE18093BD0583E2809366
:102A7000BE0582E28093BF0585E48093C00584E4AF
:102A80008093C10580E48093C4051092C90510921B
:102A9000CA051092CB051092CC051092CD0510926C
:102AA000CE051092CF051092D005E3EFF5E021EBB3
:102AB00036E08FEF9FEFDC011282138214821582C1
:102AC000168217821086118683879487A587B6871A
:102AD0008787908BA18BB28B12861182108273969E
:102AE0002E173F0749F78DE090E00E941B1CFC0168
:102AF0001382128288E392E091838083118687E2B9
:102B0000848384E1828784E083871486F093F005D0
:102B1000E093EF051092F1051092F20585E28093A3
:102B2000A3041092A5041092B2051092B105109260
:102B3000B4051092B3051092B6051092B50561E088
:102B400070E080E090E00E943C1D009791F090932F
:102B5000B2058093B1051092B4051092B30520918F
:102B6000B5053091B605232B09F04DC0FC0110824C
:102B70004AC08091B1059091B205009711F00E9472
:102B8000B31C1092B2051092B1051092B6051092C6
:102B9000B5051092B4051092B3058EE390E09093C2
:102BA000CA068093C90698E3C92E94E0D92EE12C79
:102BB000F12CC092CB06D092CC06E092CD06F092DA
:102BC000CE0660E00E943E1281E08093000282E423
:102BD00090E09093C4068093C306C092C506D0923D
:102BE000C606E092C706F092C80660E00E943E1258
:102BF00082E090E09093B2068093B106FF90EF9050
:102C0000DF90CF9008951092B6051092B5056CE450
:102C100072E08091B1059091B2050E942F1EBDCF48
:102C2000CF93DF9300D0CDB7DEB7789484B58260C0
:102C300084BD84B5816084BD85B5826085BD85B560
:102C4000816085BD80916E00816080936E001092DE
:102C50008100809181008260809381008091810059
:102C600081608093810080918000816080938000EA
:102C70008091B10084608093B1008091B000816048
:102C80008093B00080919100826080939100809148
:102C90009100816080939100809190008160809389
:102CA00090008091A10082608093A1008091A1009A
:102CB00081608093A1008091A00081608093A0003A
:102CC00080912101826080932101809121018160A6
:102CD0008093210180912001816080932001809167
:102CE0007A00846080937A0080917A008260809379
:102CF0007A0080917A00816080937A0080917A00D6
:102D0000806880937A001092C10085E094E00E9470
:102D1000020B61E08091B9050E943E1260E0809153
:102D2000B9050E940F1260E08091B8050E943E1222
:102D30008FEB92E09093C3058093C2051092DF065B
:102D40001092DE0610929C021092BE0210929A021D
:102D500081E0809399021092740261E084E10E9404
:102D60000F1261E085E10E940F128091B9008E7F01
:102D70008093B9008091B9008D7F8093B90088E479
:102D80008093B80085E48093BC0081E49FE0909339
:102D9000E1068093E00682E49FE09093E30680934F
:102DA000E20680E090E1A0E0B0E08093C50590935A
:102DB000C605A093C705B093C8058AE090E0A0E0DF
:102DC000B0E08093C9059093CA05A093CB05B0935A
:102DD000CC0580E090E0A0E0B0E48093CD05909336
:102DE000CE05A093CF05B093D00560E070E185E0FB
:102DF0000E9421106FE979E380E00E94211008EB26
:102E000015E07801B2E05B2E83E5682E82E0782E33
:102E100099E9892E92E0992E2BECC22E27E0D22E32
:102E2000D70114969C91149712968C91F801818F7A
:102E3000928F61E00E943E1261E0D8015A968C9117
:102E40000E943E12F701908586815801FDE1AF0E88
:102E5000B11CD8015D968C935D975E969C9361E062
:102E60000E943E1260E0F801868D0E943E1261E0F1
:102E7000D8015D968C910E940F124FB6F894809104
:102E8000D406811126C0F3018491F4012491E82F26
:102E9000F0E0EE0FFF1FE555FD4FA591B4919C9119
:102EA000822F892321F461E085E30E940F1261E003
:102EB00085E30E943E128CB580618CBD8CB5806428
:102EC0008CBD61E084E30E943E1261E083E30E94D6
:102ED0003E128091D4068F5F8093D4064FBEC60108
:102EE0000197F1F760E0D8015D968C910E940F1276
:102EF00088E80E947F0383E00E947F0361E0F8017D
:102F0000858D0E940F12C6010197F1F7C5010E943D
:102F100086035A94FFEFEF1AFF0A0E5F1F4F5110FE
:102F20007FCF7DEDE72E75E0F72E01EE15E060E036
:102F3000D7018D917D010E943E12B1EEEB16B5E0F6
:102F4000FB06A9F729EDE22E25E0F22E33EEC32E83
:102F500035E0D32E45E0B42E5CE0952E62E0A62E3F
:102F6000F80181908F0187818C3008F048C061E0C2
:102F7000882D0E943E12D80117968C91B89EF001C0
:102F80001124EC58FA4F982D9F732081207C822EBB
:102F9000892A808213821482692D0E94791ABCE0EA
:102FA0008B9FA001112420E030E0BA01620F731F53
:102FB000B69EF001B79EF00D1124EC58FA4F9081A7
:102FC00096FD12C02F5F3F4F2C30310571F78111F4
:102FD0000BC010928000A092810010928500109288
:102FE0008400A6BAA0926F00D8011796EC91BE9EFD
:102FF000F0011124EC58FA4F808180648083F8013D
:1030000095818381D70152968C93529753969C93C6
:1030100060E00E943E1261E0F70183890E943E1247
:1030200060E0D70153968C910E940F12B2E0EB0E34
:10303000F11CC016D10609F093CFF894109220012C
:1030400089E08093210180E293E0909329018093AD
:103050002801109225011092240182E080937300D0
:1030600078948093A2041092A6048091A30460E057
:103070000E943E128BEC92E00E94020B61E089E01C
:103080000E943E1261E088E00E943E126E01E4E080
:10309000CE0ED11C6AE070E080E090E00E946813E0
:1030A00068EE73E080E090E00E9468136DE472E0E7
:1030B0008BEC92E00E94670964EF71E080E090E0A1
:1030C0000E9468138BEC92E00E94EA01892B29F49C
:1030D0006AE070E080E090E0F3CF8BEC92E00E9439
:1030E000C8018634E9F289838E010E5F1F4F8BEC95
:1030F00092E00E94EA01892B59F0C016D10641F0F6
:103100008BEC92E00E94C801D8018D938D01EFCF26
:103110000981802F0E945810FA808F2D0E9458102C
:10312000002E000C110BC801C0970E94C9076FE464
:1031300072E085E094E00E94670987E090E00E94D9
:10314000BE04B0E3FB1621F09AE5E92EF12C04C091
:1031500086EAE82EFF24FA94C7010E94B4050E9473
:10316000870989E090E00E94BE0468EE73E080E089
:1031700090E00E9468138091DD050E94E611892B82
:1031800099F566E970E089E00E947A1260E088E0D3
:103190000E940F124DEC5CEC6CEC7DE381ED95E050
:1031A0000E942F034DEC5CEC6CEC7DEB83ED95E025
:1031B0000E942F036AEF70E080E090E00E946813A5
:1031C00040E050E0BA0181ED95E00E942F0340E01D
:1031D00050E060E070E883ED95E00E942F0360ED21
:1031E00077E080E090E0C5CF60E070E089E00E9489
:1031F0007A120E94290B84EB90E00E94B40581E0D2
:1032000090E00E94C90787E090E00E94BE048827F2
:1032100099278E199F090E94B405C801C1970E9481
:10322000C9070E94870989E090E00E94BE0468EE09
:1032300073E080E090E00E94681366E970E089E046
:103240000E947A1261E088E00E940F1260ED77E040
:1032500080E090E00E94681360E070E089E00E94E6
:103260007A120E94290B84EB90E00E94B40568EE6C
:1032700073E080E090E00E94681360E777E180E00F
:1032800090E00E9468130E94F90104CF0E948819FF
:1032900008F481E00895E89409C097FB3EF4909506
:1032A0008095709561957F4F8F4F9F4F9923A9F01F
:1032B000F92F96E9BB279395F695879577956795AE
:1032C000B795F111F8CFFAF4BB0F11F460FF1BC0F2
:1032D0006F5F7F4F8F4F9F4F16C0882311F096E985
:1032E00011C0772321F09EE8872F762F05C0662333
:1032F00071F096E8862F70E060E02AF09A95660FEC
:10330000771F881FDAF7880F9695879597F90895A4
:10331000990F0008550FAA0BE0E8FEEF16161706E6
:10332000E807F907C0F012161306E407F50798F04E
:10333000621B730B840B950B39F40A2661F0232B67
:10334000242B252B21F408950A2609F4A140A695E3
:103350008FEF811D811D08950E94BF190C94301AB2
:103360000E94221A38F00E94291A20F0952311F0A9
:103370000C94191A0C941F1A11240C94641A0E94AC
:10338000411A70F3959FC1F3950F50E0551F629F4E
:10339000F001729FBB27F00DB11D639FAA27F00DAE
:1033A000B11DAA1F649F6627B00DA11D661F829FD5
:1033B0002227B00DA11D621F739FB00DA11D621FBA
:1033C000839FA00D611D221F749F3327A00D611DD7
:1033D000231F849F600D211D822F762F6A2F1124B9
:1033E0009F5750409AF0F1F088234AF0EE0FFF1FEC
:1033F000BB1F661F771F881F91505040A9F79E3F43
:10340000510580F00C94191A0C94641A5F3FE4F390
:10341000983ED4F3869577956795B795F795E79598
:103420009F5FC1F7FE2B880F911D9695879597F9A1
:10343000089597F99F6780E870E060E008959FEF36
:1034400080EC089500240A9416161706180609063B
:10345000089500240A94121613061406050608950A
:10346000092E0394000C11F4882352F0BB0F40F492
:10347000BF2B11F460FF04C06F5F7F4F8F4F9F4FD2
:10348000089557FD9058440F551F59F05F3F71F054
:103490004795880F97FB991F61F09F3F79F08795BB
:1034A0000895121613061406551FF2CF4695F1DF44
:1034B00008C0161617061806991FF1CF86957105D4
:1034C000610508940895E894BB2766277727CB0108
:1034D00097F90895A29FB001B39FC001A39F700DFB
:1034E000811D1124911DB29F700D811D1124911D0C
:1034F0000895991B79E004C0991F961708F0961B50
:10350000881F7A95C9F780950895EE0FFF1F881FD1
:103510008BBF0790F691E02D19940E946A1AB7FFAD
:103520000895821B930B08956095709580959095F2
:1035300030954095509521953F4F4F4F5F4F6F4FBE
:103540007F4F8F4F9F4F08952A193B094C095D0902
:103550006E097F09800B910B08955058BB27AA274D
:103560000E94C51A0C94301A0E94221A38F00E9448
:10357000291A20F039F49F3F19F426F40C941F1AED
:103580000EF4E095E7FB0C94191AE92F0E94411AFA
:1035900058F3BA17620773078407950720F079F488
:1035A000A6F50C94631A0EF4E0950B2EBA2FA02DFD
:1035B0000B01B90190010C01CA01A0011124FF27E0
:1035C000591B99F0593F50F4503E68F11A16F040DB
:1035D000A22F232F342F4427585FF3CF46953795DA
:1035E0002795A795F0405395C9F77EF41F16BA0B9F
:1035F000620B730B840BBAF09150A1F0FF0FBB1F4D
:10360000661F771F881FC2F70EC0BA0F621F731F95
:10361000841F48F4879577956795B795F7959E3FF2
:1036200008F0B0CF9395880F08F09927EE0F979583
:10363000879508950E942E1B0C94301A0E94291A17
:1036400058F00E94221A40F029F45F3F29F00C94B0
:10365000191A51110C94641A0C941F1A0E94411AE1
:1036600068F39923B1F3552391F3951B550BBB27B1
:10367000AA2762177307840738F09F5F5F4F220FF6
:10368000331F441FAA1FA9F335D00E2E3AF0E0E8ED
:1036900032D091505040E695001CCAF72BD0FE2F37
:1036A00029D0660F771F881FBB1F261737074807CB
:1036B000AB07B0E809F0BB0B802DBF01FF27935883
:1036C0005F4F3AF09E3F510578F00C94191A0C9414
:1036D000641A5F3FE4F3983ED4F386957795679537
:1036E000B795F7959F5FC9F7880F911D96958795B8
:1036F00097F90895E1E0660F771F881FBB1F6217D7
:1037000073078407BA0720F0621B730B840BBA0B94
:10371000EE1F88F7E09508950E94931B6894B111FD
:103720000C94641A08950E94491A88F09F5798F0E3
:10373000B92F9927B751B0F0E1F0660F771F881FB6
:10374000991F1AF0BA95C9F714C0B13091F00E94D0
:10375000631AB1E008950C94631A672F782F8827B5
:10376000B85F39F0B93FCCF3869577956795B395F7
:10377000D9F73EF490958095709561957F4F8F4F66
:103780009F4F089597FB16F40E94061C0C94C91BCA
:10379000E894F92F96EBFF2381F012161306140616
:1037A000440B9395F6958795779567955795404087
:1037B000FF23B9F71BC099270895882351F4985027
:1037C000D2F7872B762F652F542F432F322F20E0EF
:1037D000B1F3121613061406440B88233AF09A9597
:1037E000440F551F661F771F881FCAF755234AF4D9
:1037F000440F551F11F460FF04C06F5F7F4F8F4F60
:103800009F4F880F9695879597F908959095809585
:103810007095609550954095309521953F4F4F4F4D
:103820005F4F6F4F7F4F8F4F9F4F08950E948819B2
:1038300008F48FEF08950F931F93CF93DF93823097
:10384000910510F482E090E0E0914B07F0914C0775
:1038500020E030E0A0E0B0E0309719F140815181E4
:103860000281138148175907C8F08417950769F436
:10387000109731F012960C93129713961C9327C051
:1038800000934B0710934C0722C02115310519F006
:103890004217530718F49A01BD01EF01DF01F80147
:1038A000DBCF21153105F9F0281B390B2430310508
:1038B00080F48A819B816115710521F0FB0193835E
:1038C000828304C090934C0780934B07FE0132968D
:1038D00044C0FE01E20FF31F8193919322503109FE
:1038E000398328833AC02091490730914A07232B16
:1038F00041F4209104023091050230934A0720934D
:10390000490720910202309103022115310541F44B
:103910002DB73EB74091060250910702241B350B8C
:10392000E0914907F0914A07E217F307A0F42E1B34
:103930003F0B2817390778F0AC014E5F5F4F241713
:10394000350748F04E0F5F1F50934A0740934907D1
:103950008193919302C0E0E0F0E0CF01DF91CF913D
:103960001F910F910895CF93DF93009709F481C0C1
:10397000FC01329713821282A0914B07B0914C0741
:10398000109781F420813181820F931F2091490784
:1039900030914A072817390751F5F0934A07E09309
:1039A000490767C0ED0120E030E0CE17DF0740F4A3
:1039B0004A815B819E0141155105F1F0EA01F5CF85
:1039C000D383C28340815181840F951FC817D907C3
:1039D00059F488819981840F951F02969183808381
:1039E0008A819B81938382832115310529F4F09389
:1039F0004C07E0934B073DC0E901FB83EA83499103
:103A00005991C40FD51FEC17FD0761F48081918196
:103A1000840F951F0296E90199838883828193819F
:103A20009B838A83E0E0F0E012968D919C9113973E
:103A3000009719F0FD01DC01F7CF8D919C91119752
:103A40009D012E5F3F4F820F931F209149073091B8
:103A50004A072817390769F4309729F410924C0760
:103A600010924B0702C013821282B0934A07A093B0
:103A70004907DF91CF9108956F927F928F929F9225
:103A8000AF92BF92CF92DF92EF92FF920F931F936C
:103A9000CF93DF93009789F4CB01DF91CF911F91F2
:103AA0000F91FF90EF90DF90CF90BF90AF909F90DD
:103AB0008F907F906F900C941B1CFC01E60FF71FFA
:103AC0009C0122503109E217F30708F4A9C0EC0168
:103AD000D9010D911C91119706171707B0F0053009
:103AE000110508F49BC0C80104978617970708F4CE
:103AF00095C002501109061B170B019311936D938A
:103B00007C93CF010E94B31C89C05B01A01AB10A4B
:103B10004C01800E911EA0914B07B0914C07612C77
:103B2000712CE12CF12C109709F446C08D919C91D9
:103B30001197A815B905B1F56C0142E0C40ED11C6E
:103B4000CA14DB0478F14C018A189B08640142E036
:103B5000C40ED11C1296BC9012971396AC91B5E08E
:103B6000CB16D10440F0B282A38391828082D90126
:103B70006D937C9309C00E5F1F4F800F911FF90159
:103B800091838083EB2DFA2FE114F10431F0D701FA
:103B90001396FC93EE93129741C0F0934C07E09379
:103BA0004B073CC06816790608F43C017D0112966B
:103BB0000D90BC91A02DB7CF8091490790914A07F5
:103BC00088169906E1F466167706C8F48091020219
:103BD00090910302009741F48DB79EB74091060281
:103BE00050910702841B950BE817F907C8F4F0936E
:103BF0004A07E0934907F901718360830FC0CB0145
:103C00000E941B1C7C01009759F0A801BE010E9474
:103C1000261ECE010E94B31CC70104C0CE0102C003
:103C200080E090E0DF91CF911F910F91FF90EF9096
:103C3000DF90CF90BF90AF909F908F907F906F90CC
:103C4000089581E090E0F8940C94361EFB01DC01AD
:103C500002C001900D9241505040D8F70895FB01E9
:103C6000DC0101900D920020E1F7089511E0C4E914
:103C7000D1E000E006C0802FFE010E94851A219647
:103C8000011DC539D10780E00807A9F7F894FFCFD7
:103C900001FF00004D072000363738391B1D1A1C64
:103CA000000000009C0F6F0F2702430F670F530F98
:103CB000440F00000000980C3F0C690CE50CEA0171
:103CC000C801DC01000000002A023F0C2702260286
:103CD000636865636B6C696E65000D0A006E007445
:0A3CE00075726E616E676C6500007E
:00000001FF
