:100000000C9495010C94C6010C94C6010C94C60185
:100010000C94C6010C94C6010C94C6010C94C60144
:100020000C94C6010C945B0D0C945B0D0C945B0D51
:100030000C94C6010C942C0F0C94C6010C94C601B0
:100040000C94C6010C946A120C94C6010C94C6015F
:100050000C94C6010C94C6010C94C6010C94F109D1
:100060000C94C6010C949B100C9471100C94C60156
:100070000C94C6010C94C6010C94C6010C94C601E4
:100080000C94C6010C94C6010C94C6010C94C601D4
:100090000C94C6010C94C6010C94C6010C94290C56
:1000A0000C94C6010C94C6010C94C6010C94C601B4
:1000B0000C94C6010C94C6010C94C6010C94C51096
:1000C0000C94C6010C94C6010C94C6010C94471004
:1000D0000C941D100C94C6010C94F30F0C94C90FD2
:1000E0000C94C60152085508440848084E088C086C
:1000F00059085D08630867086B0871087508790876
:100100008C087F0883088708F208F708FC080609AE
:10011000100989091A0922092A0934093E094809DE
:100120005709610989096B0975097F090C94180E33
:100130000C9475090C94CB0A0C9448080C940A0E84
:100140000C9461090C9410090C9475080C94E70D3B
:100150000C9406090C9467080C941A090C94340941
:100160000C94B10E0C9483080C9459080C9452080A
:100170000C9463080C94040F0C94240B0C94121A26
:100180000C94EF170C9479080C94640E0C947F096E
:100190000C9471080C9455080C946B080C94570936
:1001A0000C943E090C9422090C9448090C94C90A39
:1001B0000C947F080C94BD0D0C94F2080C944E081E
:1001C0000C94DB0A0C9444080C94FC080C94F7087B
:1001D0000C9487080C94030F0C946B090C942A0957
:1001E0000C94CA0A0C945D080C94CC0A0C94F60D7D
:1001F0000C9489090C94070F0C94EF0A0C948C084A
:100200000C94F70A00002100240027002A002D008A
:100210003000330001010000040107010A01000061
:100220002200250028002B002E003100340002019E
:100230000000050108010B0100002000230026003A
:1002400029002C002F0032000001000003010601EC
:10025000090105050505070508080808020202024C
:100260000A0A080804040404010101010101010152
:100270000303030303030303040707070C0C0C0C1D
:100280000C0C0C0C02020202060606060606060606
:100290000B0B0B0B0B0B0B0B010210202008081093
:1002A00020401020408002010201080402010102E6
:1002B00004081020408080402010080402018004BF
:1002C000020180402010080402010804020101021A
:1002D0000408102040800102040810204080000023
:1002E0000A0B02090C0D0E080703040100000000B0
:1002F00000000000000000000000000000000000FE
:1003000000000000000000000000121110000000BA
:1003100000000000000000000000000000000000DD
:10032000000000000200EF17121A11241FBECFEFC9
:10033000D1E2DEBFCDBF00E00CBF12E0A0E0B2E032
:10034000E4E3FEE300E00BBF02C007900D92AA3584
:10035000B107D9F727E0AAE5B2E001C01D92A433A6
:10036000B207E1F711E0C4E9D1E000E006C021974F
:100370000109802FFE010E94571BC339D10780E07D
:100380000807A9F70E944C140C94081F0C94000055
:100390004F925F926F927F928F929F92AF92BF9295
:1003A000CF92DF92EF92FF920F931F93CF93DF9341
:1003B00000D000D0CDB7DEB720E83CE0DC010E94E1
:1003C0005F1B0E941F1A20E030E044EC51E40E94C1
:1003D000EC1B0E945E1C6B017C0185E895E00E948D
:1003E000DA1187E895E00E94051287E895E00E94FF
:1003F000DA114DEC5CEC6CEC7DEB83E895E00E944F
:1004000083114DEC5CEC6CEC7DE381E895E00E949F
:10041000831100E010E01E821D828DEC882E8CEC92
:10042000982EA92C8DE3B82E2601370121EE421A11
:100430005108610871082D813E81C901330FAA0B53
:10044000BB0B84159505A605B7055CF0C801012E08
:10045000000CAA0BBB0B84159505A605B7050CF07F
:1004600062C087E895E00E94051269837A838B83D6
:100470009C8385E895E00E940512CC24DD2476015A
:10048000C61AD70AE80AF90A87E895E00E94DA1145
:1004900085E895E00E94DA118D819E818C0D9D1D6D
:1004A0009E838D8329813A81020F131FB601621B3F
:1004B000730B072E000C880B990B0E941F1A27E163
:1004C00037EB41ED58E30E947E1A6B017C016D8190
:1004D0007E81601B710B072E000C880B990B0E940C
:1004E0001F1A2CEA35EC47EA57E30E947E1A9B015B
:1004F000AC01C701B6010E94801B9B01AC01C50184
:10050000B4010E94801B4B015C01AB01BC0170581F
:1005100083E895E00E94831162E370E080E090E060
:100520000E94B70988CF40E050E0BA0181E895E029
:100530000E94831140E050E060E070E883E895E0BD
:100540000E94831164E670E080E090E026960FB68A
:10055000F894DEBF0FBECDBFDF91CF911F910F91F9
:10056000FF90EF90DF90CF90BF90AF909F908F90D3
:100570007F906F905F904F900C94B7092F923F92AD
:100580004F925F926F927F928F929F92AF92BF92A3
:10059000CF92DF92EF92FF920F931F93CF93DF934F
:1005A000CDB7DEB760970FB6F894DEBF0FBECDBFF4
:1005B0009E838D8386E12D813E81829FB001839F42
:1005C000700D1124072E000C880B990B0E941F1A26
:1005D00069837A838B839C8320E030E0A9010E94A9
:1005E000181A87FF09C089819A81AB81BC81B058F4
:1005F00089839A83AB83BC8385E895E00E94DA11F6
:1006000087E895E00E94DA11AD81BE811A161B06BB
:100610000CF0F6C04DEC5CEC6CEC7DE381E895E011
:100620000E9483114DEC5CEC6CEC7DE383E895E07B
:100630000E9483111A86198618861F82188A1F86BF
:1006400000E010E08DEC882E8CEC982EA92C8DEB20
:10065000B82E20E030E040E450E469817A818B815B
:100660009C810E947F1B6B017C01B801012E000C54
:10067000880B990B0E941F1AA70196010E94181A55
:1006800087FD11C04F855889BA01550F880B990B0A
:100690000E941F1A9B01AC01C701B6010E94E81C11
:1006A00018160CF059C187E895E00E9405126B8777
:1006B0007C878D879E878B859C85919581959109F7
:1006C0009E838D8385E895E00E940512442455247D
:1006D0003201461A570A680A790A1201C201AF812B
:1006E000B8858A1B9B0B080F191F8D819E81298558
:1006F0003A85821B930B4F855889480F591F588B99
:100700004F8755E6451651040CF444C087E895E040
:100710000E94DA1185E895E00E94DA116B857C85EC
:10072000640D751D072E000C880B990B0E941F1A73
:1007300027E137EB41ED58E30E947E1A2B013C0183
:10074000B8018F859889681B790B072E000C880BE0
:10075000990B0E941F1A2CEA35EC47EA57E30E94D6
:100760007E1A9B01AC01C301B2010E94801B9B0158
:10077000AC01C501B4010E947F1B4B015C01AB01C0
:10078000BC01705883E895E00E9483111E821D828F
:10079000212C312CB801012E000C880B990B0E94E2
:1007A0001F1A9B01AC01C701B6010E94181A87FFEE
:1007B00007C040E050E0BA0181E895E00E94831153
:1007C000AF85B889BD01BB0F880B990B0E941F1A1A
:1007D0009B01AC01C701B6010E94181A87FD07C032
:1007E0002D813E813A87298738862F8232CF40E09B
:1007F00050E060E070E883E895E00E948311F0CF5C
:100800002D813E81232B09F4A7C04DEC5CEC6CECF0
:100810007DEB81E895E00E9483114DEC5CEC6CEC83
:100820007DEB83E895E00E948311C12CD12CA12C93
:10083000B12CE12CF12C00E010E020E030E040E4AD
:1008400050E469817A818B819C810E947F1B2B01FE
:100850003C01B801012E000C880B990B0E941F1A55
:10086000A30192010E94181A87FD10C0B7010F2C36
:10087000000C880B990B0E941F1A9B01AC01C3014D
:10088000B2010E94E81C18160CF066C085E895E0DD
:100890000E9405129B01AC0188279927DC01821B6D
:1008A000930BA40BB50B44275527481B590B5E83AC
:1008B0004D8387E895E00E9405124B012D813E8112
:1008C0002A193B09020F131FAB014C195D09E40EF5
:1008D000F51E8D819E818536910564F087E895E04F
:1008E0000E94DA1185E895E00E94DA11812C912CA2
:1008F0001E821D82B801012E000C880B990B0E94EC
:100900001F1A9B01AC01C301B2010E94181A87FF94
:1009100007C040E050E0BA0181E895E00E948311F1
:10092000B7010F2C000C880B990B0E941F1A9B011A
:10093000AC01C301B2010E94181A87FD04C0640112
:10094000AD80BE807ACF40E050E060E070E883E8A0
:1009500095E00E948311F3CF40E050E0BA0181E8B6
:1009600095E00E94831140E050E060E070E883E889
:1009700095E060960FB6F894DEBF0FBECDBFDF9155
:10098000CF911F910F91FF90EF90DF90CF90BF908C
:10099000AF909F908F907F906F905F904F903F901F
:1009A0002F900C94831166E970E089E00E94C908D9
:1009B00061E088E00E948E0D60ED77E080E090E0DD
:1009C0000E94B70960E070E089E00C94C9082F929A
:1009D0003F924F925F926F927F928F929F92AF92CF
:1009E000BF92CF92DF92EF92FF920F931F93CF931C
:1009F000DF93CDB7DEB72A970FB6F894DEBF0FBEF0
:100A0000CDBF9F838E838DE30E9492098CE30E9469
:100A100092098BE30E9492098AE30E94920986E37D
:100A20000E94920987E30E94920988E30E9492093A
:100A300089E30E9492091A821982212C312CC12C3F
:100A4000D12CE12CF12C00E010E01C821B822B81C8
:100A50003C814E815F812417350709F429C160E488
:100A600072E085EB93E00E94590B8DE30E9492099E
:100A7000998788878CE30E9492098BE30E949209F0
:100A80008AE30E94920986E30E9492095C0187E34F
:100A90000E94920988E30E94920989E30E949209C8
:100AA00088859985843F91407CF034EFA31631E02E
:100AB000B3068CF049815A81452B09F4EFC081E0DF
:100AC00090E09A83898307C094EFA91691E0B90654
:100AD00014F41A821982809190050E94650D892B69
:100AE00009F0E0C08CE30E9492092C018BE30E9484
:100AF00092093C018AE30E9492094C0189E30E9419
:100B000092099987888788E30E9492095C0187E3AC
:100B10000E94920924E1249DA001259D500D1124DD
:100B20006AE0669D9001679D300D1124240F351FEA
:100B3000820E931E6A9D90016B9D300D1124488595
:100B40005985420F531F5987488744E19C01429FB2
:100B5000C001439F900D112428853985280F391F26
:100B60003401621A730A372D330F330B3887930120
:100B70004885542F642F742F842F942F51010E9485
:100B8000761B2D83C32ED42EE52EF62E072F182F7D
:100B90009A87B301072C000C880B990B0E941F1A2F
:100BA0002CEA35EC47E257E30E947E1A20E030E061
:100BB000A9010E94801B4B015C012D813C2D4D2D14
:100BC0005E2D6F2D702F812F9A850E94941C2CEA28
:100BD00035EC47E257E30E947E1A9B01AC01C50148
:100BE000B4010E94801B4B015C0193014885542F86
:100BF000642F742F842F942F0E94661B0E94941CD4
:100C00002CEA35EC47E257E30E947E1A20E030E000
:100C1000A9010E94801B1B012C012D813C2D4D2D13
:100C20005E2D6F2D702F812F9A850E94661B0E946A
:100C3000941C2CEA35EC47E257E30E947E1A9B0194
:100C4000AC01C201B1010E94801B2DEC3CEC4CE4D4
:100C50005EE30E94801BAB01BC0181E895E00E942D
:100C600083112DEC3CEC4CE45EE3C501B4010E9421
:100C7000801BAB01BC01705883E895E00E94831192
:100C80006AE070E080E090E00E94B7091301C88438
:100C9000DC2CEC2CFC2C0C2D1C2DE1CE41E050E08A
:100CA0005A8349838B819C8101969C838B83CFCE11
:100CB00040E050E0BA0181E895E00E94831140E0F5
:100CC00050E060E070E883E895E02A960FB6F8946B
:100CD000DEBF0FBECDBFDF91CF911F910F91FF906F
:100CE000EF90DF90CF90BF90AF909F908F907F90CC
:100CF0006F905F904F903F902F900C9483112F92A4
:100D00003F924F925F926F927F928F929F92AF929B
:100D1000BF92CF92DF92EF92FF920F931F93CF93E8
:100D2000DF93CDB7DEB727970FB6F894DEBF0FBEBF
:100D3000CDBF5C018DE30E9492098CE30E94920971
:100D40008BE30E9492098AE30E94920986E30E9443
:100D5000920987E30E94920988E30E94920989E33D
:100D60000E949209712C1E82C12CD12CE12CF12CF5
:100D70001982612CC501BB0CAA0BBB0B8A839B8318
:100D8000AC83BD83809190050E94650D892B09F08D
:100D90002EC160E080919C050E948E0D83E090E062
:100DA0000197F1F761E080919C050E948E0D83E22E
:100DB00090E00197F1F760E080919C050E948E0D14
:100DC00080919B0590E0FC01E856FD4F6491FC0189
:100DD000EE5AFD4FE491F0E0EE0FFF1FE85CFD4F8F
:100DE0008591949100E412E42FE030E0462F0E94B8
:100DF0000714611571058105910551F0DC01CB01E6
:100E00000196A11DB11D4C015D012FE0B22203C06E
:100E1000812C912C54016A817B818C819D810E945F
:100E20001F1A1B012C01C501B4010E941D1A20E0EC
:100E300030E048E652E40E94EC1B9B01AC01C20189
:100E4000B1010E94181A87FFD2C08CE30E94920958
:100E50005C018BE30E9492094C018AE30E94920993
:100E60002C0189E30E9492098C0188E30E94920977
:100E70001C0187E30E94920934E13A9DA0013B9D49
:100E8000500D11246AE0689D9001699D300D112478
:100E9000240F351F420E531E629D9001639D300D3D
:100EA0001124020F131F24E1DC012A9FC0012B9F94
:100EB000900D1124080F191F1201201A310A932CCA
:100EC000990C99089101492D592D692D792D892D5C
:100ED000992DA72CBE800981162D0E94761B29838F
:100EE000832E7A018B018F839E83B101032C000C2A
:100EF000880B990B0E941F1A2CEA35EC47E257E346
:100F00000E947E1A20E030E0A9010E94801B2B0184
:100F10003C012981382DA701B8018F819E810E9453
:100F2000941C2CEA35EC47E257E30E947E1A9B01A1
:100F3000AC01C301B2010E94801B2B013C01910155
:100F4000492D592D692D792D892D992D0E94661BCA
:100F50000E94941C2CEA35EC47E257E30E947E1A6B
:100F600020E030E0A9010E94801B5B016C01298117
:100F7000382DA701B8018F819E810E94661B0E94B7
:100F8000941C2CEA35EC47E257E30E947E1A9B0141
:100F9000AC01C601B5010E94801B2DEC3CEC4CE479
:100FA0005EE30E94801BAB01BC0181E895E00E94DA
:100FB00083112DEC3CEC4CE45EE3C301B2010E94D2
:100FC000801BAB01BC01705883E895E00E9483113F
:100FD0006AE070E080E090E00E94B709722C3E82E7
:100FE000C92CD92CE92CF92C9982692CCBCE2796C7
:100FF0000FB6F894DEBF0FBECDBFDF91CF911F912A
:101000000F91FF90EF90DF90CF90BF90AF909F90A7
:101010008F907F906F905F904F903F902F900895AA
:101020003FB7F8948091600290916102A0916202B2
:10103000B091630226B5A89B05C02F3F19F0019619
:10104000A11DB11D3FBFBA2FA92F982F8827820F4E
:10105000911DA11DB11DBC01CD0142E0660F771F9E
:10106000881F991F4A95D1F708950E94F31E90E0BA
:10107000FC013197E231F10508F04EC08827EE58A7
:10108000FF4F8F4F0C94571B809180008F7703C0C8
:10109000809180008F7D80938000089580918000F2
:1010A000877FF9CF84B58F7702C084B58F7D84BDEB
:1010B00008958091B0008F7703C08091B0008F7D3C
:1010C0008093B0000895809190008F7707C0809141
:1010D00090008F7D03C080919000877F8093900067
:1010E00008958091A0008F7707C08091A0008F7D28
:1010F00003C08091A000877F8093A0000895809115
:1011000020018F7707C0809120018F7D03C08091DF
:101110002001877F809320010895CF93DF9390E093
:10112000FC01E856FD4F2491FC01EE5AFD4F8491DD
:10113000882361F190E0880F991FFC01EC5FFD4F5F
:10114000C591D491FC01E25EFD4FA591B49161116E
:1011500009C09FB7F8948881209582238883EC91F9
:101160002E230BC0623061F49FB7F8948881322F30
:10117000309583238883EC912E2B2C939FBF06C040
:101180008FB7F894E8812E2B28838FBFDF91CF9102
:1011900008951F93CF93DF93182FEB0161E00E9416
:1011A0008D08209711F460E004C0CF3FD10539F4D9
:1011B00061E0812FDF91CF911F910C948E0DE12F73
:1011C000F0E0E252FD4FE4918E2F90E0FC01319768
:1011D000E231F10508F09DC08827EC57FF4F8F4F93
:1011E0000C94571B84B5806884BDC7BD97C084B577
:1011F000806284BDC8BD92C0809180008068809369
:101200008000D0938900C093880088C080918000BE
:10121000806280938000D0938B00C0938A007EC050
:1012200080918000886080938000D0938D00C0936F
:101230008C0074C08091B00080688093B000C0932F
:10124000B3006CC08091B00080628093B000C09306
:10125000B40064C080919000806880939000D09327
:101260009900C09398005AC080919000806280934A
:101270009000D0939B00C0939A0050C08091900042
:10128000886080939000D0939D00C0939C0046C0DE
:101290008091A00080688093A0008091A0008F7B47
:1012A0008093A000D093A900C093A80037C080917C
:1012B000A00080628093A000D093AB00C093AA00EE
:1012C0002DC08091A00088608093A000D093AD00D5
:1012D000C093AC0023C080912001806880932001DE
:1012E000D0932901C093280119C080912001806208
:1012F00080932001D0932B01C0932A010FC08091CD
:101300002001886080932001D0932D01C0932C018F
:1013100005C0C038D1050CF04BCF45CFDF91CF9140
:101320001F910895863308F0865390917B00282FF3
:101330002870977F922B90937B002091000290E47D
:10134000299F900111248770822B80937C008091CB
:101350007A00806480937A0080917A0086FDFCCFC9
:10136000809178002091790090E0922B08958F92DF
:101370009F92AF92BF92CF92DF92EF92FF926B015A
:101380007C010E9410084B015C01C114D104E104EE
:10139000F104F1F00E941008DC01CB0188199909D1
:1013A000AA09BB09883E9340A105B10570F321E06D
:1013B000C21AD108E108F10888EE880E83E0981E71
:1013C000A11CB11CC114D104E104F10419F7DDCF53
:1013D000FF90EF90DF90CF90BF90AF909F908F9055
:1013E00008951F920F920FB60F9211242F933F93DF
:1013F0008F939F93AF93BF9380915C0290915D0216
:10140000A0915E02B0915F0230915B0223E0230F56
:101410002D3720F40196A11DB11D05C026E8230F2C
:101420000296A11DB11D20935B0280935C029093F4
:101430005D02A0935E02B0935F0280916002909182
:101440006102A0916202B09163020196A11DB11DDB
:101450008093600290936102A0936202B093630252
:10146000BF91AF919F918F913F912F910F900FBEA0
:101470000F901F90189530916E02313208F04BC0DA
:1014800080916C028111FCCF9091490622E020935B
:101490006C0221E020936B022FEF2093270610921D
:1014A000260630932506E9E2F6E0A5E0B6E020E066
:1014B000321721F041914D932F5FFACF109204061D
:1014C00020910406990F922B9093040690916A0242
:1014D000913061F410926A02909104069093BB00DF
:1014E0009091BC0093FDF8CF95EC01C095EE9093E0
:1014F000BC0090916C029230E1F3909127069F3FDF
:1015000079F080912706803241F080912706803360
:1015100031F084E005C081E003C082E001C083E0D7
:1015200010926D0210926E0210922806089585EDB9
:101530008093BC008091BC0084FDFCCF10926C02B3
:1015400008954091E105262F30E0240F311D21320E
:101550003105DCF420916C022430C9F4FC0180E0F8
:1015600090E0861758F43091E1052191DC01AF53EA
:10157000BA4FA30FB11D2C930196F3CF8091E105D3
:10158000680F6093E10580E0089581E0089582E0AE
:101590000895089508950895E09165028091640288
:1015A000E81730F4F0E0EF55FA4F808190E00895AD
:1015B0008FEF9FEF089590916502809164029817D4
:1015C00050F4E92FF0E0EF55FA4F208130E09F5FB3
:1015D0009093650202C02FEF3FEFC90108958091FB
:1015E000640290E020916502821B91090895CF92D8
:1015F000DF92EF92FF920F931F93CF93DF937C01C3
:10160000CB018A0120912806222389F0EB016B018E
:10161000C40ED51ECC15DD0569F06991D701ED9199
:10162000FC910190F081E02DC7011995F3CF642F53
:101630000E94A10AC801DF91CF911F910F91FF90E5
:10164000EF90DF90CF900895CF93DF931F92CDB7A7
:10165000DEB76983209128062223D1F020916E0203
:10166000203240F021E030E0FC013383228380E02F
:1016700090E015C080916D02E82FF0E0E75DF94F32
:10168000998190838F5F80936D0280936E0205C075
:1016900061E0CE0101960E94A10A81E090E00F90E6
:1016A000DF91CF91089542E050E066E572E00C943E
:1016B000BD0D0F931F93CF93DF938C0161157105BF
:1016C00061F0FB0101900020E9F73197AF01461B63
:1016D000570B0E94BD0DEC0102C0C0E0D0E0C80174
:1016E0000E94530B8C0F9D1FDF91CF911F910F9183
:1016F0000895FC01A089B18982E08C93A485B58509
:101700001C92A685B7858FEC8C93108EA489B58921
:1017100086E08C93A289B3898C9180618C93A28995
:10172000B3898C9188608C93A289B3898C918068ED
:101730008C930288F389E02D80818F7D80830895CA
:101740000F931F93CF93DF93162F072FC8E6D5E093
:101750009C8521E0209328069093490610926D0203
:1017600010926E02AA85BB85ED91FC9111970190B4
:10177000F081E02D682FCD0119958A859B85DC01CC
:10178000ED91FC910190F081E02D602F19958A85F3
:101790009B85DC01ED91FC910190F081E02D612FA2
:1017A0001995DF91CF911F910F910C943B0ACF9324
:1017B000DF93682F85EB93E00E94640EEC0185EBCC
:1017C00093E00E94530B8C0F9D1FDF91CF910895E2
:1017D000FC01248131E030932806209349061092C1
:1017E0006D0210926E028485682B8FE692E00E9453
:1017F000240B0C943B0A0F931F93CF938C01C62F9D
:1018000064600E94E80B6C2F6B7FC8010E94E80B9C
:1018100083EC90E00197F1F7CF911F910F9108951C
:10182000FC01A089B1898C91A689B78982FD0FC07E
:101830009C91818D8F5F8F73228D821749F0218D4E
:10184000DF01A20FB11D5D969C93818F08958C914D
:1018500008951F920F920FB60F9211240BB60F929C
:101860002F933F934F935F936F937F938F939F93A8
:10187000AF93BF93EF93FF938091B900887F803639
:1018800009F49CC068F5883209F45BC090F480319B
:1018900009F454C038F4882309F4F6C0883009F4F8
:1018A0004DC0F6C0883109F44CC0803209F45DC0E7
:1018B000EFC0803409F468C048F4803309F455C09F
:1018C000883309F0E5C080932706D8C0803509F435
:1018D0004FC0883509F45DC0883409F0D9C0D6C03E
:1018E000883909F4C7C0A8F4883709F467C038F408
:1018F000883609F463C0803709F460C0C9C08838ED
:1019000009F4B8C0803909F45FC0803809F0C0C05C
:101910005BC0803B09F486C038F4803A09F466C0A5
:10192000883A09F47FC0B4C0803C09F4A7C0883C61
:1019300009F4A4C0883B09F48AC0AAC080910406B7
:1019400010C09091260680912506981770F5E091B9
:10195000260681E08E0F80932606F0E0EB5FF94FBC
:1019600080818093BB0085EC86C0809327068EC063
:10197000E091260681E08E0F809326068091BB00C1
:10198000F0E0EB5FF94F8083909126068091250669
:101990006EC0E091260681E08E0F8093260680912E
:1019A000BB00F0E0EB5FF94F808380916B02811107
:1019B0006DC081E080936A0284EA61C083E0809315
:1019C0006C0210920306CFCF80910306803208F09C
:1019D00051C0E091030681E08E0F80930306809151
:1019E000BB00F0E0ED51FA4F8083BDCF85EC8093D2
:1019F000BC0010926C0280910306803230F4E091BA
:101A00000306F0E0ED51FA4F10826091030670E09A
:101A1000E0916802F091690283EE95E019951092C9
:101A2000030636C084E080936C021092E2051092A7
:101A3000E105E0916602F091670219958091E10558
:101A4000811105C081E08093E1051092C105E0910C
:101A5000E20581E08E0F8093E205F0E0EF53FA4F4C
:101A600080818093BB009091E2058091E1059817F9
:101A700008F479CF85E88093BC000AC085EC809398
:101A8000BC0010926C0204C0109227060E94970AB4
:101A9000FF91EF91BF91AF919F918F917F916F9146
:101AA0005F914F913F912F910F900BBE0F900FBE02
:101AB0000F901F9018951F920F920FB60F9211243E
:101AC0000F900FBE0F901F901895CF93DF93282F84
:101AD00030E0F901E252FD4F8491F901E856FD4FE3
:101AE000D491F901EE5AFD4FC491CC2391F08111AC
:101AF0000E943708EC2FF0E0EE0FFF1FE85CFD4F6F
:101B0000A591B491EC91ED2381E090E021F480E087
:101B100002C080E090E0DF91CF9108951F93CF93B2
:101B2000DF93282F30E0F901E252FD4F8491F90153
:101B3000E856FD4FD491F901EE5AFD4FC491CC23E4
:101B4000C1F0162F81110E943708EC2FF0E0EE0F44
:101B5000FF1FE25EFD4FA591B4919FB7F89411115C
:101B600004C08C91D095D82302C0EC91DE2BDC937D
:101B70009FBFDF91CF911F910895CF92DF92EF9297
:101B8000FF920F931F93CF93DF936C017A018B0128
:101B9000C0E0D0E0CE15DF0581F0D8016D918D0158
:101BA000D601ED91FC910190F081E02DC6011995CF
:101BB000892B11F02196EECF7E01C701DF91CF91E5
:101BC0001F910F91FF90EF90DF90CF900895FC014F
:101BD000538D448D252F30E0842F90E0821B930B92
:101BE000541710F0CF96089501970895FC01918D38
:101BF000828D981761F0828DDF01A80FB11D5D966F
:101C00008C91928D9F5F9F73928F90E008958FEFDC
:101C10009FEF0895FC01918D828D981731F0828D90
:101C2000E80FF11D858D90E008958FEF9FEF0895E7
:101C3000FC01918D228D892F90E0805C9F4F821B4B
:101C400091098F73992708958BE792E00E94180EEF
:101C500021E0892B09F420E0822F089588E193E0A8
:101C60000E94180E21E0892B09F420E0822F0895AC
:101C700085EB93E00E94180E21E0892B09F420E007
:101C8000822F0895FC01848DDF01A80FB11DA35A96
:101C9000BF4F2C91848D90E001968F739927848F8C
:101CA000A689B7892C93A089B1898C9183708064AF
:101CB0008C93938D848D981306C00288F389E02D50
:101CC00080818F7D80830895EF92FF920F931F9301
:101CD000CF93DF93EC0181E0888F9B8D8C8D9813DF
:101CE00005C0E889F989808185FD26C0F62E0B8D17
:101CF00010E00F5F1F4F0F731127E02E8C8DE8123D
:101D00000CC00FB607FCFACFE889F989808185FFFE
:101D1000F5CFCE010E94420EF1CF8B8DFE01E80F70
:101D2000F11DE35AFF4FF0829FB7F8940B8FEA89B9
:101D3000FB89808180620AC09FB7F894EE89FF8991
:101D40006083E889F98980818370806480839FBF84
:101D500081E090E0DF91CF911F910F91FF90EF9084
:101D60000895CF93DF93EC01888D8823C9F0EA8929
:101D7000FB89808185FD05C0A889B9898C9186FD84
:101D80000FC00FB607FCF5CF808185FFF2CFA88981
:101D9000B9898C9185FFEDCFCE010E94420EE7CF2D
:101DA000DF91CF910895E0E0F0E0199480E090E0B9
:101DB000892B21F00E94380E811119C080E090E03B
:101DC000892B41F080E090E0892B21F00E940000F7
:101DD000811110C00E942E0E81110FC080E090E092
:101DE000892B81F00E94240E81110AC008950E945F
:101DF0000000E4CF0E940000EDCF0E94D30EEECF92
:101E00000C9400000895089580E090E008950F93E9
:101E10001F93CF93DF938C01C62FD62FD07FD16035
:101E20006D2F0E94E80B6D2FC8010E94FB0B80E113
:101E3000C89FB0011124C62FC1606C2FC8010E9439
:101E4000E80B6C2FC8010E94FB0B81E090E0DF9152
:101E5000CF911F910F9108951F920F920FB60F927D
:101E600011240BB60F922F933F934F935F936F9371
:101E70007F938F939F93AF93BF93EF93FF93809143
:101E80002C0790912D07A0912E07B0912F07892B39
:101E90008A2B8B2B49F190912B0780910000892789
:101EA0008093000080912C0790912D07A0912E0720
:101EB000B0912F07181619061A061B060CF056C00B
:101EC00080912C0790912D07A0912E07B0912F079C
:101ED0000197A109B10980932C0790932D07A09336
:101EE0002E07B0932F0742C080910102E4E2F3E095
:101EF000E4919FEF90930102E230C9F050F4EE2399
:101F000099F0E13081F590916F009D7F90936F0083
:101F10002AC0E43019F1E0F0E53029F59091730022
:101F20009D7F909373001FC010926E001CC0909113
:101F300070009D7F9093700091E09093B00090911D
:101F4000B100987F94609093B1001092B3000BC0E1
:101F5000909171009D7F9093710005C090917200E7
:101F60009D7F9093720060E00E948E0DFF91EF9133
:101F7000BF91AF919F918F917F916F915F914F91A1
:101F80003F912F910F900BBE0F900FBE0F901F909F
:101F900018951F920F920FB60F9211240BB60F9245
:101FA0002F933F934F935F936F937F938F939F9361
:101FB000AF93BF93EF93FF938BE792E00E94420EA3
:101FC000FF91EF91BF91AF919F918F917F916F9111
:101FD0005F914F913F912F910F900BBE0F900FBECD
:101FE0000F901F9018951F920F920FB60F92112409
:101FF0000BB60F922F933F934F935F936F937F9303
:102000008F939F93AF93BF93EF93FF938BE792E0F0
:102010000E94100CFF91EF91BF91AF919F918F9112
:102020007F916F915F914F913F912F910F900BBED8
:102030000F900FBE0F901F9018951F920F920FB622
:102040000F9211240BB60F922F933F934F935F93F0
:102050006F937F938F939F93AF93BF93EF93FF9370
:1020600088E193E00E94420EFF91EF91BF91AF9102
:102070009F918F917F916F915F914F913F912F91A0
:102080000F900BBE0F900FBE0F901F9018951F92D0
:102090000F920FB60F9211240BB60F922F933F930E
:1020A0004F935F936F937F938F939F93AF93BF9360
:1020B000EF93FF9388E193E00E94100CFF91EF9162
:1020C000BF91AF919F918F917F916F915F914F9150
:1020D0003F912F910F900BBE0F900FBE0F901F904E
:1020E00018951F920F920FB60F9211240BB60F92F4
:1020F0002F933F934F935F936F937F938F939F9310
:10210000AF93BF93EF93FF9385EB93E00E94420E52
:10211000FF91EF91BF91AF919F918F917F916F91BF
:102120005F914F913F912F910F900BBE0F900FBE7B
:102130000F901F9018951F920F920FB60F921124B7
:102140000BB60F922F933F934F935F936F937F93B1
:102150008F939F93AF93BF93EF93FF9385EB93E0A0
:102160000E94100CFF91EF91BF91AF919F918F91C1
:102170007F916F915F914F913F912F910F900BBE87
:102180000F900FBE0F901F9018951F920F920FB6D1
:102190000F9211240BB60F922F933F934F935F939F
:1021A0006F937F938F939F93AF93BF93EF93FF931F
:1021B000809153040E94650D20915704309158047A
:1021C0002F5F3F4F3093580420935704909156044B
:1021D000953618F096E09093520490915204943002
:1021E000C9F128F4923069F09330D1F05EC0953097
:1021F00009F451C0963009F058C091E0909323053E
:1022000051C0811152C02091570430915804243696
:10221000310508F442C010922305109256041CC0E8
:10222000813009F042C0E091560491E09E0F9093F6
:102230005604F0E02091570430915804EE0FFF1F30
:10224000EE5AFB4F308727831092580410925704A0
:1022500094E029C0811117C0E091560491E09E0FCF
:1022600090935604F0E02091570430915804EE0FFB
:10227000FF1FEE5AFB4F30872783109258041092AD
:10228000570493E010C0209157043091580425362C
:10229000310558F007C0811108C0109258041092FF
:1022A000570403C095E090935204909155049923EC
:1022B000B9F081110AC080915404882321F08091E3
:1022C000540461E009C02F9A0BC080915404882304
:1022D00031F08091540460E00E948E0D01C02F986F
:1022E000FF91EF91BF91AF919F918F917F916F91EE
:1022F0005F914F913F912F910F900BBE0F900FBEAA
:102300000F901F9018958F929F92AF92BF92CF928D
:10231000DF92EF92FF920F931F93CF93DF93EC0125
:102320006A017B0120E030E04FE753E4C701B601CA
:102330000E947E1A4B015C0120E030E0A9010E945E
:10234000E81C18161CF4C501B40103C0C501B40192
:1023500090580E945E1C8B0120E030E0A901C7016B
:10236000B6010E94E81C181614F460E001C061E098
:1023700089810E948E0D0F3F110509F01CF4B801F0
:10238000772702C06FEF70E08881DF91CF911F91B6
:102390000F91FF90EF90DF90CF90BF90AF909F9004
:1023A0008F900C94C9088EBD00000DB407FEFDCFC0
:1023B0008EB50895CF93DF93EC0160E088810E9491
:1023C0008E0D88E90E94D31180E00E94D31180E035
:1023D0000E94D31180E00E94D31180E00E94D311AB
:1023E00061E088810E948E0D8BE891E00197F1F702
:1023F00060E088810E948E0D80EE0E94D31161E022
:102400008881DF91CF910C948E0DAF92BF92CF92C5
:10241000DF92EF92FF920F931F93CF93DF93CDB78D
:10242000DEB760970FB6F894DEBF0FBECDBF5C017C
:1024300060E0FC0180810E948E0D80E60E94D31135
:102440008E010F5F1F4F7E01F1E1EF0EF11C68015D
:1024500080E00E94D31190E0A0E0B0E0F60181930B
:102460009193A193B1936F01EE15FF0589F761E098
:10247000F50180810E948E0D80E090E0DC01F80182
:1024800041915191619171918F01BA2FA92F982F8C
:102490008827840F951FA61FB71FEE15FF0579F734
:1024A0009C01AD0166277727CB01621B730B840B60
:1024B000950B60960FB6F894DEBF0FBECDBFDF91CF
:1024C000CF911F910F91FF90EF90DF90CF90BF9031
:1024D000AF9008951F920F920FB60F9211240BB672
:1024E0000F922F933F934F935F936F937F938F93AD
:1024F0009F93AF93BF93EF93FF9380912A0787FF3A
:1025000005C0109285001092840016C020912A0701
:10251000022E000C330B8091600590E028173907DC
:102520005CF430912A0725E03203F0011124EC5DC0
:10253000FA4F808186FD15C080912A078F5F8093B6
:102540002A0720912A07022E000C330B8091600588
:1025500090E02817390794F480912A078C302CF1E9
:102560000DC030912A073203F0011124EC5DFA4FBF
:10257000808160E08F730E948E0DDECF8091840099
:102580009091850084349C4918F480E49CE905C04E
:1025900080918400909185000496909389008093A7
:1025A00088008FEF80932A072AC0409184005091C1
:1025B000850030912A0725E03203F0011124EC5DFB
:1025C000FA4F81819281840F951F909389008093A7
:1025D000880030912A073203F0011124EC5DFA4F94
:1025E000808186FF0CC030912A073203F00111244C
:1025F000EC5DFA4F808161E08F730E948E0DFF9138
:10260000EF91BF91AF919F918F917F916F915F916A
:102610004F913F912F910F900BBE0F900FBE0F90D7
:102620001F9018954F925F926F927F928F929F9218
:10263000AF92BF92CF92DF92EF92FF920F931F93D0
:10264000CF93DF9300D000D0CDB7DEB7AA27BB274A
:10265000A81BB90B20E83CE00E945F1B0E941F1AD8
:1026600020E030E044EC51E40E94EC1B0E945E1C30
:102670006B017C0185E895E00E94DA1187E895E01E
:102680000E94DA114DEC5CEC6CEC7DE383E895E0A4
:102690000E9483114DEC5CEC6CEC7DEB81E895E0E5
:1026A0000E94831100E010E01E821D828DEC882EB6
:1026B0008CEC982EA92C8DEBB82E2601370121EE3B
:1026C000420E511C611C711C2D813E81C901330FCA
:1026D000AA0BBB0B481659066A067B065CF0C801BC
:1026E000012E000CAA0BBB0B481659066A067B0686
:1026F0000CF062C087E895E00E94051269837A8336
:102700008B839C8385E895E00E940512CC24DD2410
:102710007601C61AD70AE80AF90A87E895E00E9406
:10272000DA1185E895E00E94DA118D819E818C0D89
:102730009D1D9E838D8329813A81020F131FB6014F
:10274000621B730B072E000C880B990B0E941F1A3B
:1027500027E137EB41ED58E30E947E1A6B017C01C3
:102760006D817E81601B710B072E000C880B990B0D
:102770000E941F1A2CEA35EC47EA57E30E947E1AA2
:102780009B01AC01C701B6010E94801B9B01AC01FB
:10279000C501B4010E94801B4B015C01AB01BC016F
:1027A000705883E895E00E94831162E370E080E056
:1027B00090E00E94B70988CF40E050E0BA0181E87C
:1027C00095E00E94831140E050E060E070E883E80B
:1027D00095E00E94831164E670E080E090E0269628
:1027E0000FB6F894DEBF0FBECDBFDF91CF911F9122
:1027F0000F91FF90EF90DF90CF90BF90AF909F90A0
:102800008F907F906F905F904F900C94B709CF920C
:10281000DF92EF92FF920F931F93E82FF92F05C0DD
:10282000015011092109310961F190819623941712
:10283000B9F305C0015011092109310911F1908145
:1028400096239413F7CFC12CD12CE12CF12C0AC084
:102850008FEFC81AD80AE80AF80A0C151D052E05CC
:102860003F0579F080818623841791F36C2D7D2DAF
:102870008E2D9F2D1F910F91FF90EF90DF90CF90A5
:10288000089560E070E080E090E01F910F91FF906C
:10289000EF90DF90CF900895CF93DF9300D0CDB726
:1028A000DEB7789484B5826084BD84B5816084BDD0
:1028B00085B5826085BD85B5816085BD80916E00DE
:1028C000816080936E00109281008091810082600F
:1028D000809381008091810081608093810080914C
:1028E00080008160809380008091B100846080933B
:1028F000B1008091B00081608093B0008091910020
:10290000826080939100809191008160809391001A
:10291000809190008160809390008091A1008260FE
:102920008093A1008091A10081608093A10080919B
:10293000A00081608093A00080912101826080933B
:1029400021018091210181608093210180912001EA
:1029500081608093200180917A00846080937A0066
:1029600080917A00826080937A0080917A00816001
:1029700080937A0080917A00806880937A00109228
:10298000C10085EB93E00E94790B61E080916905BD
:102990000E948D0860E0809169050E948E0D60E0C4
:1029A000809168050E948D088FE692E090937305F0
:1029B00080937205109265021092640210926D026B
:1029C00010926E0210926C0281E080936B02109262
:1029D0006A0261E084E10E948E0D61E085E10E945F
:1029E0008E0D8091B9008E7F8093B9008091B900DF
:1029F0008D7F8093B90088E48093B80085E480934C
:102A0000BC0089EC9AE090936702809366028AEC9E
:102A10009AE0909369028093680280E090E1A0E0E0
:102A2000B0E08093750590937605A0937705B093F9
:102A300078058AE090E0A0E0B0E08093790590937B
:102A40007A05A0937B05B0937C0580E090E0A0E040
:102A5000B0E480937D0590937E05A0937F05B093AD
:102A6000800560E070E185E00E94A00B6FE979E3EA
:102A700080E00E94A00B08E615E07801E2E05E2EFF
:102A8000F7E86F2EF2E07F2EADEC8A2EA2E09A2EB0
:102A9000BBECCB2EB7E0DB2ED70114969C9114979C
:102AA00012968C91F801818F928F61E00E948D08BF
:102AB00061E0D8015A968C910E948D08F7019085AB
:102AC00086815801FDE1AF0EB11CD8015D968C9353
:102AD0005D975E969C9361E00E948D0860E0F8012E
:102AE000868D0E948D0861E0D8015D968C910E94D0
:102AF0008E0D4FB6F89480915A02811126C0F301D1
:102B00008491F4012491E82FF0E0EE0FFF1FEC5FB9
:102B1000FD4FA591B4919C91822F892321F461E00E
:102B200085E30E948E0D61E085E30E948D088CB5DF
:102B300080618CBD8CB580648CBD61E084E30E94B3
:102B40008D0861E083E30E948D0880915A028F5FB7
:102B500080935A024FBEC6010197F1F760E0D80199
:102B60005D968C910E948E0D88E80E94D31183E0BF
:102B70000E94D31161E0F801858D0E948E0DC6017F
:102B80000197F1F7C5010E94DA115A94FFEFEF1A8D
:102B9000FF0A0E5F1F4F51107FCF6DE8E62E65E0F4
:102BA000F62E01E915E060E0D7018D917D010E94CC
:102BB0008D080E151F05B9F799E8E92E95E0F92E55
:102BC00023E9C22E25E0D22E35E0B32E4CE0942E20
:102BD00052E0A52EF80181908F0187818C3008F09A
:102BE00048C061E0882D0E948D08D80117968C910D
:102BF000B89EF0011124EC5DFA4F982D9F7320814F
:102C0000207C822E892A808213821482692D0E9460
:102C10004B1BBCE08B9FA001112420E030E0BA01E7
:102C2000620F731FB69EF001B79EF00D1124EC5D8C
:102C3000FA4F908196FD12C02F5F3F4F2C30310527
:102C400071F781110BC010928000A0928100109248
:102C5000850010928400A6BAA0926F00D801179642
:102C6000EC91BE9EF0011124EC5DFA4F80818064EE
:102C70008083F80195818381D70152968C93529776
:102C800053969C9360E00E948D0861E0F701838970
:102C90000E948D0860E0D70153968C910E948E0DA2
:102CA000B2E0EB0EF11CC016D10609F093CFF894F8
:102CB0001092200189E08093210180E293E09093BB
:102CC000290180932801109225011092240182E0AD
:102CD00080937300789480935204109256048091EC
:102CE000530460E00E948D088BE792E00E94790B0C
:102CF00061E089E00E948D0861E088E00E948D0813
:102D00005E01E4E0AE0EB11C6AE070E080E090E0AD
:102D10000E94B7096AE472E08BE792E00E94590BC7
:102D200064EF71E080E090E00E94B7098BE792E0E9
:102D30000E94180E892B29F46AE070E080E090E090
:102D4000F3CF8BE792E00E94F60D8634A9F08983D9
:102D50008E010E5F1F4F8BE792E00E94180E892BA9
:102D600081F0A016B10669F08BE792E00E94F60DA3
:102D7000D8018D938D01EFCF68EE73E080E090E095
:102D8000C7CFE9808E2D0E94D70B0A81802F0E9429
:102D9000D70B0E2C000CFF086701B0E3CB1AD1084B
:102DA000002E000C110B005311098B81803309F0A8
:102DB00069C0C6010E94E7046CE472E085EB93E011
:102DC0000E94590B87E090E00E94C801012B19F086
:102DD0000AE510E002C006EA1FEFC8010E94BE0229
:102DE0008AE090E00E947F0683E090E00E94C801A4
:102DF00068EE73E080E090E00E94B70985E0C82E9D
:102E0000D12C80918D050E94650D892B09F0B5C0EC
:102E1000F1E0CF1AD10809F4B0C066E970E089E0AA
:102E20000E94C90860E088E00E948E0D4DEC5CECC9
:102E30006CEC7DE381E895E00E9483114DEC5CEC45
:102E40006CEC7DEB83E895E00E9483116AEF70E003
:102E500080E090E00E94B70940E050E0BA0181E8CC
:102E600095E00E94831140E050E060E070E883E864
:102E700095E00E94831160ED77E080E090E00E9491
:102E8000B709BFCF80918D050E94650D892B51F444
:102E900066E970E089E00E94C90860E088E00E946D
:102EA0008E0DF0CF60E070E089E00E94C908C60195
:102EB0000E94E7046CE472E085EB93E00E94590BFA
:102EC00087E090E00E94C801012B19F00AE510E0AC
:102ED00002C006EA1FEFC8010E94BE028FE090E028
:102EE0000E947F068AE090E00E94C80168EE73E0CD
:102EF00080E090E00E94B7090E94D3048DE090E04A
:102F00000E94121384EB90E00E94BE0281E090E0E8
:102F10000E94E70487E090E00E94C8018827992773
:102F2000801B910B0E94BE02C701C1970E94E7045B
:102F30008FE090E00E947F068AE090E00E94C80146
:102F400068EE73E080E090E00E94B7098DE090E0C9
:102F50000E94121384EB90E00E94BE0268EE73E0C0
:102F600080E090E00E94B70960ED77E080E090E0BB
:102F70000E94B7090E94D60EC7CE60E070E089E0DB
:102F80000E94C90886E090E00E94121384EB90E052
:102F90000E94BE0281E090E00E94E70487E090E09A
:102FA0000E94C80188279927801B910B0E94BE02AE
:102FB000C701C1970E94E7048AE090E00E947F0663
:102FC00083E090E00E94C80168EE73E080E090E04A
:102FD0000E94B7090E94D30486E090E0B9CFCF9257
:102FE000DF92EF92FF92109272021092710288EEBD
:102FF00093E0A0E0B0E08093730290937402A093FA
:103000007502B093760224E132E03093700220938F
:103010006F0210927E0210927D0280937F02909345
:103020008002A0938102B093820226E232E03093C4
:103030007C0220937B0245E351E050938802409349
:10304000870244E351E050938A024093890240E3AF
:1030500051E050938C0240938B0241E351E0509336
:103060008E0240938D0242E351E0509390024093D0
:103070008F0246E351E050939202409391021092E6
:10308000940210929502109296021092970210925A
:103090001B0310921A0380931C0390931D03A093AB
:1030A0001E03B0931F03309319032093180345EDBB
:1030B00050E0509325034093240344ED50E0509397
:1030C00027034093260340ED50E05093290340939B
:1030D000280341ED50E050932B0340932A0342ED27
:1030E00050E050932D0340932C0346ED50E0509355
:1030F0002F0340932E03109231031092320310924B
:103100003303109234031092B8031092B7038093E4
:10311000B9039093BA03A093BB03B093BC0330935D
:10312000B6032093B50385EC90E09093C20380939F
:10313000C10384EC90E09093C4038093C30380ECBC
:1031400090E09093C6038093C50381EC90E0909348
:10315000C8038093C70382EC90E09093CA038093E6
:10316000C90386EC90E09093CC038093CB0310923C
:10317000CE031092CF031092D0031092D10380910E
:10318000080290910902A0910A02B0910B0280936B
:10319000890590938A05A0938B05B0938C05809147
:1031A0000C0290910D02A0910E02B0910F0280933B
:1031B0008D0590938E05A0938F05B093900584E0C4
:1031C0008093910587E0809392051092930584EB9C
:1031D0008093940586E18093950588E18093960518
:1031E00087E18093970589E180939805E0916005D8
:1031F000EC3020F08FEF8093990510C081E08E0FA6
:1032000080936005E093990585E0E89FF001112423
:10321000EC5DFA4F88EB9BE092838183E09160053F
:10322000EC3020F08FEF80939A0510C081E08E0F74
:1032300080936005E0939A0585E0E89FF0011124F2
:10324000EC5DFA4F88EB9BE0928381838CE0809366
:10325000680584E28093690586E080936A0585E0CD
:1032600080936B058FE180936C058EE180936D05F3
:1032700083E280936E0582E280936F0585E48093FC
:10328000700584E48093710580E480937405109246
:10329000790510927A0510927B0510927C051092A8
:1032A0007D0510927E0510927F0510928005EEE458
:1032B000F6E02CE037E08FEF9FEFDC011282138203
:1032C000148215821682178210861186838794874E
:1032D000A587B6878787908BA18BB28B12861182C8
:1032E000108273962E173F0749F78DE090E00E94F9
:1032F000ED1CFC011382128288E392E091838083AB
:10330000118687E2848384E1828784E08387148640
:10331000F0934B06E0934A0610924C0610924D062D
:1033200085E2809353041092550410926205109226
:103330006105109264051092630510926605109263
:10334000650561E070E080E090E00E940E1E00974D
:1033500091F090936205809361051092640510923C
:1033600063052091650530916605232B09F04DC05A
:10337000FC0110824AC0809161059091620500971E
:1033800011F00E94851D1092620510926105109245
:1033900066051092650510926405109263058EE330
:1033A00090E0909325078093240798E3C92E94E03A
:1033B000D92EE12CF12CC0922607D0922707E0925B
:1033C0002807F092290760E00E948D0881E0809331
:1033D000000282E490E090931F0780931E07C09242
:1033E0002007D0922107E0922207F092230760E0A5
:1033F0000E948D0882E090E090930D0780930C0767
:10340000FF90EF90DF90CF90089510926605109294
:10341000650568E572E080916105909162050E9402
:10342000011FBDCF80916105909162050C94851DAF
:103430000E945A1A08F481E00895E89409C097FBA5
:103440003EF490958095709561957F4F8F4F9F4F7B
:103450009923A9F0F92F96E9BB279395F6958795BF
:1034600077956795B795F111F8CFFAF4BB0F11F482
:1034700060FF1BC06F5F7F4F8F4F9F4F16C0882329
:1034800011F096E911C0772321F09EE8872F762F5F
:1034900005C0662371F096E8862F70E060E02AF0A0
:1034A0009A95660F771F881FDAF7880F969587958C
:1034B00097F90895990F0008550FAA0BE0E8FEEF61
:1034C00016161706E807F907C0F012161306E407E8
:1034D000F50798F0621B730B840B950B39F40A26E1
:1034E00061F0232B242B252B21F408950A2609F4BF
:1034F000A140A6958FEF811D811D08950E94911A0C
:103500000C94021B0E94F41A38F00E94FB1A20F05F
:10351000952311F00C94EB1A0C94F11A11240C94CD
:10352000361B0E94131B70F3959FC1F3950F50E05B
:10353000551F629FF001729FBB27F00DB11D639F65
:10354000AA27F00DB11DAA1F649F6627B00DA11D0B
:10355000661F829F2227B00DA11D621F739FB00DB1
:10356000A11D621F839FA00D611D221F749F332721
:10357000A00D611D231F849F600D211D822F762FBA
:103580006A2F11249F5750409AF0F1F088234AF097
:10359000EE0FFF1FBB1F661F771F881F9150504003
:1035A000A9F79E3F510580F00C94EB1A0C94361B42
:1035B0005F3FE4F3983ED4F3869577956795B7958A
:1035C000F795E7959F5FC1F7FE2B880F911D9695A4
:1035D000879597F9089597F99F6780E870E060E014
:1035E00008959FEF80EC089500240A94161617069C
:1035F00018060906089500240A94121613061406E4
:1036000005060895092E0394000C11F4882352F046
:10361000BB0F40F4BF2B11F460FF04C06F5F7F4FFE
:103620008F4F9F4F089557FD9058440F551F59F0E5
:103630005F3F71F04795880F97FB991F61F09F3F9F
:1036400079F087950895121613061406551FF2CFC8
:103650004695F1DF08C0161617061806991FF1CF18
:1036600086957105610508940895E894BB2766273F
:103670007727CB0197F90895A29FB001B39FC001AE
:10368000A39F700D811D1124911DB29F700D811D8E
:103690001124911D0895991B79E004C0991F961774
:1036A00008F0961B881F7A95C9F780950895EE0F4C
:1036B000FF1F881F8BBF0790F691E02D19940E9481
:1036C0003C1BB7FF0895821B930B0895609570957E
:1036D0008095909530954095509521953F4F4F4F4F
:1036E0005F4F6F4F7F4F8F4F9F4F08952A193B09B0
:1036F0004C095D096E097F09800B910B08955058A4
:10370000BB27AA270E94971B0C94021B0E94F41A45
:1037100038F00E94FB1A20F039F49F3F19F426F488
:103720000C94F11A0EF4E095E7FB0C94EB1AE92FD8
:103730000E94131B58F3BA17620773078407950793
:1037400020F079F4A6F50C94351B0EF4E0950B2EC1
:10375000BA2FA02D0B01B90190010C01CA01A001E3
:103760001124FF27591B99F0593F50F4503E68F13E
:103770001A16F040A22F232F342F4427585FF3CF7F
:10378000469537952795A795F0405395C9F77EF450
:103790001F16BA0B620B730B840BBAF09150A1F099
:1037A000FF0FBB1F661F771F881FC2F70EC0BA0F1F
:1037B000621F731F841F48F4879577956795B795A7
:1037C000F7959E3F08F0B0CF9395880F08F09927A2
:1037D000EE0F9795879508950E94001C0C94021B8C
:1037E0000E94FB1A58F00E94F41A40F029F45F3F3F
:1037F00029F00C94EB1A51110C94361B0C94F11A0D
:103800000E94131B68F39923B1F3552391F3951B81
:10381000550BBB27AA2762177307840738F09F5FF1
:103820005F4F220F331F441FAA1FA9F335D00E2E5E
:103830003AF0E0E832D091505040E695001CCAF7CB
:103840002BD0FE2F29D0660F771F881FBB1F26178E
:1038500037074807AB07B0E809F0BB0B802DBF0165
:10386000FF2793585F4F3AF09E3F510578F00C9434
:10387000EB1A0C94361B5F3FE4F3983ED4F3869525
:1038800077956795B795F7959F5FC9F7880F911D55
:103890009695879597F90895E1E0660F771F881F41
:1038A000BB1F621773078407BA0720F0621B730BF4
:1038B000840BBA0BEE1F88F7E09508950E94651CF3
:1038C0006894B1110C94361B08950E941B1B88F05C
:1038D0009F5798F0B92F9927B751B0F0E1F0660FD4
:1038E000771F881F991F1AF0BA95C9F714C0B13015
:1038F00091F00E94351BB1E008950C94351B672FA1
:10390000782F8827B85F39F0B93FCCF38695779543
:103910006795B395D9F73EF490958095709561952C
:103920007F4F8F4F9F4F089597FB16F40E94D81C2E
:103930000C949B1CE894F92F96EBFF2381F0121650
:1039400013061406440B9395F6958795779567951E
:1039500057954040FF23B9F71BC099270895882346
:1039600051F49850D2F7872B762F652F542F432F81
:10397000322F20E0B1F3121613061406440B8823ED
:103980003AF09A95440F551F661F771F881FCAF794
:1039900055234AF4440F551F11F460FF04C06F5FB4
:1039A0007F4F8F4F9F4F880F9695879597F9089572
:1039B000909580957095609550954095309521959E
:1039C0003F4F4F4F5F4F6F4F7F4F8F4F9F4F089528
:1039D0000E945A1A08F48FEF08950F931F93CF9304
:1039E000DF938230910510F482E090E0E09132079D
:1039F000F091330720E030E0A0E0B0E0309719F11B
:103A0000408151810281138148175907C8F08417FA
:103A1000950769F4109731F012960C93129713964C
:103A20001C9327C0009332071093330722C021153F
:103A3000310519F04217530718F49A01BD01EF013F
:103A4000DF01F801DBCF21153105F9F0281B390B17
:103A50002430310580F48A819B816115710521F044
:103A6000FB019383828304C09093330780933207D2
:103A7000FE01329644C0FE01E20FF31F8193919341
:103A800022503109398328833AC020913007309180
:103A90003107232B41F42091040230910502309329
:103AA0003107209330072091020230910302211543
:103AB000310541F42DB73EB74091060250910702FF
:103AC000241B350BE0913007F0913107E217F30723
:103AD000A0F42E1B3F0B2817390778F0AC014E5F7E
:103AE0005F4F2417350748F04E0F5F1F5093310783
:103AF000409330078193919302C0E0E0F0E0CF0162
:103B0000DF91CF911F910F910895CF93DF9300978D
:103B100009F481C0FC01329713821282A09132070E
:103B2000B0913307109781F420813181820F931F68
:103B300020913007309131072817390751F5F0935C
:103B40003107E093300767C0ED0120E030E0CE1789
:103B5000DF0740F44A815B819E0141155105F1F078
:103B6000EA01F5CFD383C28340815181840F951F31
:103B7000C817D90759F488819981840F951F029637
:103B8000918380838A819B81938382832115310570
:103B900029F4F0933307E09332073DC0E901FB833A
:103BA000EA8349915991C40FD51FEC17FD0761F4C1
:103BB00080819181840F951F0296E9019983888302
:103BC000828193819B838A83E0E0F0E012968D915D
:103BD0009C911397009719F0FD01DC01F7CF8D91AF
:103BE0009C9111979D012E5F3F4F820F931F209153
:103BF0003007309131072817390769F4309729F4D5
:103C0000109233071092320702C013821282B093CF
:103C10003107A0933007DF91CF9108956F927F9283
:103C20008F929F92AF92BF92CF92DF92EF92FF92CC
:103C30000F931F93CF93DF93009789F4CB01DF910C
:103C4000CF911F910F91FF90EF90DF90CF90BF9099
:103C5000AF909F908F907F906F900C94ED1CFC0123
:103C6000E60FF71F9C0122503109E217F30708F411
:103C7000A9C0EC01D9010D911C91119706171707E6
:103C8000B0F00530110508F49BC0C80104978617F1
:103C9000970708F495C002501109061B170B0193F2
:103CA00011936D937C93CF010E94851D89C05B01A8
:103CB000A01AB10A4C01800E911EA0913207B0915A
:103CC0003307612C712CE12CF12C109709F446C0BC
:103CD0008D919C911197A815B905B1F56C0142E041
:103CE000C40ED11CCA14DB0478F14C018A189B085D
:103CF000640142E0C40ED11C1296BC901297139638
:103D0000AC91B5E0CB16D10440F0B282A38391828E
:103D10008082D9016D937C9309C00E5F1F4F800F85
:103D2000911FF90191838083EB2DFA2FE114F104A7
:103D300031F0D7011396FC93EE93129741C0F093A4
:103D40003307E09332073CC06816790608F43C015B
:103D50007D0112960D90BC91A02DB7CF80913007B8
:103D60009091310788169906E1F466167706C8F433
:103D70008091020290910302009741F48DB79EB7A3
:103D80004091060250910702841B950BE817F90732
:103D9000C8F4F0933107E0933007F9017183608331
:103DA0000FC0CB010E94ED1C7C01009759F0A801C7
:103DB000BE010E94F81ECE010E94851DC70104C0ED
:103DC000CE0102C080E090E0DF91CF911F910F9172
:103DD000FF90EF90DF90CF90BF90AF909F908F902B
:103DE0007F906F90089581E090E0F8940C94081F04
:103DF000FB01DC0102C001900D9241505040D8F708
:103E00000895FB01DC0101900D920020E1F7089577
:103E100011E0C4E9D1E000E006C0802FFE010E945D
:103E2000571B2196011DC539D10780E00807A9F766
:043E3000F894FFCF34
:103E340001FF000034072000363738391B1D1A1CD7
:103E440000000000240BF70A040FCB0AEF0ADB0A78
:103E5400CC0A00000000640EBD0DE70DB10E180E73
:103E6400F60D0A0E00000000070FBD0D040F030F2E
:103E7400636865636B6C696E65006E007475726E61
:0A3E8400616E676C65000D0A000016
:0400000300000002F7
:00000001FF
