:100000000C9495010C94C6010C94C6010C94C60185
:100010000C94C6010C94C6010C94C6010C94C60144
:100020000C94C6010C947A120C947A120C947A12E5
:100030000C94C6010C94250E0C94C6010C94C601B8
:100040000C94C6010C94AD050C94C6010C94C60129
:100050000C94C6010C94C6010C94C6010C94DB0DE3
:100060000C94C6010C94940F0C946A0F0C94C60166
:100070000C94C6010C94C6010C94C6010C94C601E4
:100080000C94C6010C94C6010C94C6010C94C601D4
:100090000C94C6010C94C6010C94C6010C94481132
:1000A0000C94C6010C94C6010C94C6010C94C601B4
:1000B0000C94C6010C94C6010C94C6010C94EF027A
:1000C0000C94C6010C94C6010C94C6010C94400F0C
:1000D0000C94160F0C94C6010C94EC0E0C94C20EEA
:1000E0000C94C6010E041304180422042C04A50465
:1000F00036043E04460450045A04640473047D0428
:10010000A504870491049B049510981087108B1008
:100110009110CF109C10A010A610AA10AE10B41011
:10012000B810BC10CF10C210C610CA100C94C80171
:100130000C94F9010C9487100C946C0D0C94CF1056
:100140000C94C2130C94D7010C94F00F0C94BC10B7
:100150000C94AA100C94CD020C94F30F0C949810EC
:100160000C9464040C9402100C94B4100C941304BA
:100170000C9436040C9436020C94A5040C947D0463
:100180000C942C040C9473040C94C6100C949110D1
:100190000C9495100C9446040C9491040C940E0449
:1001A0000C9435020C9439020C9416100C941E1009
:1001B0000C94CA100C94BC130C94AE100C948704CD
:1001C0000C94C2100C9418040C944B100C94500412
:1001D0000C948B100C94F10F0C94B8100C948002BA
:1001E0000C94A6100C9422040C94F20F0C94A01002
:1001F0000C949C100C949B040C943E040C945A0494
:100200000C94EB010200002100240027002A002D9D
:10021000003000330001010000040107010A010061
:10022000002200250028002B002E0031003400029F
:10023000010000050108010B010000200023002639
:100240000029002C002F00320000010000030106ED
:10025000010901050505050705080808080202024D
:10026000020A0A0808040404040101010101010151
:10027000010303030303030303040707070C0C0C28
:100280000C0C0C0C0C020202020606060606060600
:10029000060B0B0B0B0B0B0B0B010210202008089D
:1002A00010204010204080020102010804020101D8
:1002B00002040810204080804020100804020180C1
:1002C0000402018040201008040201080402010118
:1002D0000204081020408001020408102040800021
:1002E000000A0B02090C0D0E0807030401000000B0
:1002F00000000000000000000000000000000000FE
:1003000000000000000000000000001211100000BA
:1003100000000000000000000000000000000000DD
:10032000000000000000C213BC1311241FBECFEF59
:10033000D1E2DEBFCDBF00E00CBF12E0A0E0B2E032
:10034000E8E4FDE300E00BBF02C007900D92A43685
:10035000B107D9F727E0A4E6B2E001C01D92A735A6
:10036000B207E1F711E0C4E9D1E000E006C021974F
:100370000109802FFE010E94DC1AC339D10780E0F9
:100380000807A9F70E94E5150C94921E0C94000032
:10039000FC01538D448D252F30E0842F90E0821B8B
:1003A000930B541710F0CF96089501970895FC0110
:1003B000918D828D981761F0828DDF01A80FB11D9C
:1003C0005D968C91928D9F5F9F73928F90E00895C0
:1003D0008FEF9FEF0895FC01918D828D981731F07A
:1003E000828DE80FF11D858D90E008958FEF9FEFCE
:1003F0000895FC01918D228D892F90E0805C9F4FA4
:10040000821B91098F7399270895E0E0F0E0199419
:1004100080E090E0892B21F00E94AC0D811119C081
:1004200080E090E0892B41F080E090E0892B21F082
:100430000E940000811110C00E94A20D81110FC006
:1004400080E090E0892B81F00E94980D81110AC014
:1004500008950E940000E4CF0E940000EDCF0E94AA
:100460000502EECF0C9400000895089580E090E01E
:1004700008950F931F93CF93DF938C01C62FD62F30
:10048000D07FD1606D2F0E9407116D2FC8010E948F
:100490001A1180E1C89FB0011124C62FC1606C2FD2
:1004A000C8010E9407116C2FC8010E941A1181E037
:1004B00090E0DF91CF911F910F910895FC01848D01
:1004C000DF01A80FB11DA35ABF4F2C91848D90E07E
:1004D00001968F739927848FA689B7892C93A08959
:1004E000B1898C91837080648C93938D848D9813E3
:1004F00006C00288F389E02D80818F7D8083089576
:10050000EF92FF920F931F93CF93DF93EC0181E063
:10051000888F9B8D8C8D981305C0E889F98980811F
:1005200085FD26C0F62E0B8D10E00F5F1F4F0F7359
:100530001127E02E8C8DE8120CC00FB607FCFACF05
:10054000E889F989808185FFF5CFCE010E945E029E
:10055000F1CF8B8DFE01E80FF11DE35AFF4FF082C2
:100560009FB7F8940B8FEA89FB89808180620AC06B
:100570009FB7F894EE89FF896083E889F9898081C3
:100580008370806480839FBF81E090E0DF91CF9192
:100590001F910F91FF90EF900895CF93DF93EC019F
:1005A000888D8823C9F0EA89FB89808185FD05C093
:1005B000A889B9898C9186FD0FC00FB607FCF5CFCD
:1005C000808185FFF2CFA889B9898C9185FFEDCF15
:1005D000CE010E945E02E7CFDF91CF9108951F9276
:1005E0000F920FB60F9211240BB60F922F933F93D9
:1005F0004F935F936F937F938F939F93AF93BF932B
:10060000EF93FF938091AD040E9484122091B10476
:100610003091B2042F5F3F4F3093B2042093B10466
:100620009091B004953618F096E09093AC049091B8
:10063000AC049430C9F128F4923069F09330D1F0D1
:100640005EC0953009F451C0963009F058C091E071
:1006500090937D0551C0811152C02091B104309119
:10066000B2042436310508F442C010927D05109280
:10067000B0041CC0813009F042C0E091B00491E0A8
:100680009E0F9093B004F0E02091B1043091B20439
:10069000EE0FFF1FE455FB4F308727831092B20403
:1006A0001092B10494E029C0811117C0E091B00408
:1006B00091E09E0F9093B004F0E02091B10430914E
:1006C000B204EE0FFF1FE455FB4F308727831092D3
:1006D000B2041092B10493E010C02091B1043091A3
:1006E000B2042536310558F007C0811108C01092B8
:1006F000B2041092B10403C095E09093AC049091C1
:10070000AF049923B9F081110AC08091AE04882307
:1007100021F08091AE0461E009C02F9A0BC0809156
:10072000AE04882331F08091AE0460E00E94AD12E7
:1007300001C02F98FF91EF91BF91AF919F918F9141
:100740007F916F915F914F913F912F910F900BBED1
:100750000F900FBE0F901F9018958F929F92AF929F
:10076000BF92CF92DF92EF92FF920F931F93CF939E
:10077000DF938C016A017B0120E030E04FE753E416
:10078000C701B6010E94E1194B015C0120E030E095
:10079000A9010E946D1C18161CF4C501B40103C008
:1007A000C501B40190580E94E31BEB0120E030E04A
:1007B000A901C701B6010E946D1C181614F460E06F
:1007C00001C061E0F80181810E94AD12CF3FD105E7
:1007D00009F014F4DD2702C0CFEFD0E0F80110815A
:1007E00061E0812F0E94DC12209709F4B1C0CF3F55
:1007F000D10509F4AFC0E12FF0E0E152FD4FE491E3
:100800008E2F90E0FC013197E231F10508F09DC098
:100810008827EE58FF4F8F4F0C94DC1A84B5806800
:1008200084BDC7BDA7C084B5806284BDC8BDA2C059
:1008300080918000806880938000D0938900C0936D
:10084000880098C080918000806280938000D0935F
:100850008B00C0938A008EC0809180008860809356
:100860008000D0938D00C0938C0084C08091B00034
:1008700080688093B000C093B3007CC08091B000CA
:1008800080628093B000C093B40074C080919000E7
:10089000806880939000D0939900C09398006AC0BC
:1008A00080919000806280939000D0939B00C093D1
:1008B0009A0060C080919000886080939000D093EF
:1008C0009D00C0939C0056C08091A00080688093DA
:1008D000A0008091A0008F7B8093A000D093A900FE
:1008E000C093A80047C08091A00080628093A000C0
:1008F000D093AB00C093AA003DC08091A000886057
:100900008093A000D093AD00C093AC0033C0809121
:100910002001806880932001D0932901C093280191
:1009200029C080912001806280932001D0932B0107
:10093000C0932A011FC0809120018860809320010C
:10094000D0932D01C0932C0115C0C038D10514F4EB
:1009500060E001C061E0812FDF91CF911F910F9185
:10096000FF90EF90DF90CF90BF90AF909F908F90CF
:100970000C94AD12DF91CF911F910F91FF90EF90EA
:10098000DF90CF90BF90AF909F908F9008958EBDD5
:1009900000000DB407FEFDCF8EB50895CF93DF9311
:1009A000EC0160E088810E94AD1288E90E94C704D2
:1009B00080E00E94C70480E00E94C70480E00E949B
:1009C000C70480E00E94C70461E088810E94AD12E4
:1009D0008BE891E00197F1F760E088810E94AD1209
:1009E00080EE0E94C70461E08881DF91CF910C9472
:1009F000AD12AF92BF92CF92DF92EF92FF920F9320
:100A00001F93CF93DF93CDB7DEB760970FB6F894FF
:100A1000DEBF0FBECDBF5C0160E0FC0180810E94A3
:100A2000AD1280E60E94C7048E010F5F1F4F7E014A
:100A3000F1E1EF0EF11C680180E00E94C70490E034
:100A4000A0E0B0E0F60181939193A193B1936F017F
:100A5000EE15FF0589F761E0F50180810E94AD1276
:100A600080E090E0DC01F801419151916191719138
:100A70008F01BA2FA92F982F8827840F951FA61FA3
:100A8000B71FEE15FF0579F79C01AD0166277727A3
:100A9000CB01621B730B840B950B60960FB6F89419
:100AA000DEBF0FBECDBFDF91CF911F910F91FF90A1
:100AB000EF90DF90CF90BF90AF9008950F931F936A
:100AC000CF93DF93EC0160E089810E94AD1283E057
:100AD00090E00197F1F761E089810E94AD1283E215
:100AE00090E00197F1F760E089810E94AD12888162
:100AF00090E0FC01E756FD4F6491FC01ED5AFD4F7B
:100B0000E491F0E0EE0FFF1FE75CFD4F85919491BB
:100B100000E412E42FE030E0462F0E9477136115C5
:100B200071058105910549F0DC01CB010196A11DFC
:100B3000B11DBC01CD019F7003C060E070E0CB012E
:100B40000E94801920E030E048E652E40E94711BC8
:100B5000DF91CF911F910F9108951F920F920FB6C1
:100B60000F9211240BB60F922F933F934F935F93E5
:100B70006F937F938F939F93AF93BF93EF93FF9365
:100B800080917D0287FF05C010928500109284003D
:100B900016C020917D02022E000C330B8091BA0505
:100BA00090E0281739075CF430917D0225E032038C
:100BB000F0011124E258FA4F808186FD15C0809122
:100BC0007D028F5F80937D0220917D02022E000CBA
:100BD000330B8091BA0590E02817390794F480917F
:100BE0007D028C302CF10DC030917D023203F0017A
:100BF0001124E258FA4F808160E08F730E94AD1299
:100C0000DECF809184009091850084349C4918F453
:100C100080E49CE905C08091840090918500049651
:100C200090938900809388008FEF80937D022AC083
:100C3000409184005091850030917D0225E032037F
:100C4000F0011124E258FA4F81819281840F951F9F
:100C5000909389008093880030917D023203F001E7
:100C60001124E258FA4F808186FF0CC030917D023A
:100C70003203F0011124E258FA4F808161E08F7352
:100C80000E94AD12FF91EF91BF91AF919F918F9113
:100C90007F916F915F914F913F912F910F900BBE7C
:100CA0000F900FBE0F901F9018954F925F926F920A
:100CB0007F928F929F92AF92BF92CF92DF92EF92EC
:100CC000FF920F931F93CF93DF9300D000D0CDB747
:100CD000DEB7AA27BB27A81BB90B20E83CE00E947F
:100CE000E41A0E94821920E030E044EC51E40E94B2
:100CF000711B0E94E31B6B017C018FED95E00E944C
:100D0000CE0481EE95E00E94CE044DEC5CEC6CECE0
:100D10007DE38DED95E00E94AD034DEC5CEC6CEC59
:100D20007DEB8BED95E00E94AD0300E010E01E82AC
:100D30001D828DEC882E8CEC982EA92C8DEBB82E74
:100D40002601370121EE420E511C611C711C2D81C0
:100D50003E81C901330FAA0BBB0B481659066A0620
:100D60007B065CF0C801012E000CAA0BBB0B4816D9
:100D700059066A067B060CF062C081EE95E00E947F
:100D8000F90469837A838B839C838FED95E00E94BD
:100D9000F904CC24DD247601C61AD70AE80AF90A38
:100DA00081EE95E00E94CE048FED95E00E94CE0486
:100DB0008D819E818C0D9D1D9E838D8329813A811D
:100DC000020F131FB601621B730B072E000C880B5A
:100DD000990B0E94821927E137EB41ED58E30E94FD
:100DE000E1196B017C016D817E81601B710B072E07
:100DF000000C880B990B0E9482192CEA35EC47EA0B
:100E000057E30E94E1199B01AC01C701B6010E94A2
:100E1000051B9B01AC01C501B4010E94051B4B01E0
:100E20005C01AB01BC0170588DED95E00E94AD03F3
:100E300062E370E080E090E00E943D1388CF40E0E4
:100E400050E0BA018BED95E00E94AD0340E050E028
:100E500060E070E88DED95E00E94AD0364E670E01F
:100E600080E090E026960FB6F894DEBF0FBECDBFAF
:100E7000DF91CF911F910F91FF90EF90DF90CF9076
:100E8000BF90AF909F908F907F906F905F904F90AA
:100E90000C943D132F923F924F925F926F927F92EC
:100EA0008F929F92AF92BF92CF92DF92EF92FF927A
:100EB0000F931F93CF93DF93CDB7DEB760970FB635
:100EC000F894DEBF0FBECDBF9E838D8386E12D815A
:100ED0003E81829FB001839F700D1124072E000C6C
:100EE000880B990B0E94821969837A838B839C8378
:100EF00020E030E0A9010E947B1987FF09C08981A9
:100F00009A81AB81BC81B05889839A83AB83BC83BF
:100F10008FED95E00E94CE0481EE95E00E94CE0414
:100F2000AD81BE811A161B060CF0F6C04DEC5CECD0
:100F30006CEC7DE38BED95E00E94AD034DEC5CEC39
:100F40006CEC7DE38DED95E00E94AD031A86198669
:100F500018861F82188A1F8600E010E08DEC882E0C
:100F60008CEC982EA92C8DEBB82E20E030E040E4DC
:100F700050E469817A818B819C810E94041B6B0102
:100F80007C01B801012E000C880B990B0E9482197C
:100F9000A70196010E947B1987FD11C04F855889D2
:100FA000BA01550F880B990B0E9482199B01AC0165
:100FB000C701B6010E946D1C18160CF059C181EED4
:100FC00095E00E94F9046B877C878D879E878B85CF
:100FD0009C859195819591099E838D838FED95E0F8
:100FE0000E94F904442455243201461A570A680A1B
:100FF000790A1201C201AF81B8858A1B9B0B080FC9
:10100000191F8D819E8129853A85821B930B4F85FF
:101010005889480F591F588B4F8755E6451651047C
:101020000CF444C081EE95E00E94CE048FED95E073
:101030000E94CE046B857C85640D751D072E000C07
:10104000880B990B0E94821927E137EB41ED58E399
:101050000E94E1192B013C01B8018F859889681B1A
:10106000790B072E000C880B990B0E9482192CEA31
:1010700035EC47EA57E30E94E1199B01AC01C3013B
:10108000B2010E94051B9B01AC01C501B4010E9485
:10109000041B4B015C01AB01BC0170588DED95E068
:1010A0000E94AD031E821D82212C312CB801012E1D
:1010B000000C880B990B0E9482199B01AC01C7019F
:1010C000B6010E947B1987FF07C040E050E0BA01DB
:1010D0008BED95E00E94AD03AF85B889BD01BB0FD4
:1010E000880B990B0E9482199B01AC01C701B601C4
:1010F0000E947B1987FD07C02D813E813A87298791
:1011000038862F8232CF40E050E060E070E88DED0D
:1011100095E00E94AD03F0CF2D813E81232B09F491
:10112000A7C04DEC5CEC6CEC7DEB8BED95E00E9488
:10113000AD034DEC5CEC6CEC7DEB8DED95E00E942D
:10114000AD03C12CD12CA12CB12CE12CF12C00E051
:1011500010E020E030E040E450E469817A818B8146
:101160009C810E94041B2B013C01B801012E000C44
:10117000880B990B0E948219A30192010E947B198E
:1011800087FD10C0B7010F2C000C880B990B0E9433
:1011900082199B01AC01C301B2010E946D1C18169B
:1011A0000CF066C08FED95E00E94F9049B01AC0144
:1011B00088279927DC01821B930BA40BB50B4427CE
:1011C0005527481B590B5E834D8381EE95E00E94A5
:1011D000F9044B012D813E812A193B09020F131F8F
:1011E000AB014C195D09E40EF51E8D819E8185369B
:1011F000910564F081EE95E00E94CE048FED95E0BC
:101200000E94CE04812C912C1E821D82B801012ED9
:10121000000C880B990B0E9482199B01AC01C30141
:10122000B2010E947B1987FF07C040E050E0BA017D
:101230008BED95E00E94AD03B7010F2C000C880BDD
:10124000990B0E9482199B01AC01C301B2010E945B
:101250007B1987FD04C06401AD80BE807ACF40E079
:1012600050E060E070E88DED95E00E94AD03F3CFB3
:1012700040E050E0BA018BED95E00E94AD0340E004
:1012800050E060E070E88DED95E060960FB6F89460
:10129000DEBF0FBECDBFDF91CF911F910F91FF90A9
:1012A000EF90DF90CF90BF90AF909F908F907F9006
:1012B0006F905F904F903F902F900C94AD032F92C2
:1012C0003F924F925F926F927F928F929F92AF92D6
:1012D000BF92CF92DF92EF92FF920F931F93CF9323
:1012E000DF93CDB7DEB72A970FB6F894DEBF0FBEF7
:1012F000CDBF9F838E838DE30E9418138CE30E94E1
:1013000018138BE30E9418138AE30E94181386E3D4
:101310000E94181387E30E94181388E30E94181391
:1013200089E30E9418131A821982212C312CC12CB6
:10133000D12CE12CF12C00E010E01C821B822B81CF
:101340003C814E815F812417350709F427C180E471
:1013500092E00E94070B8DE30E94181399878887FB
:101360008CE30E9418138BE30E9418138AE30E94F7
:10137000181386E30E9418135C0187E30E94181378
:1013800088E30E94181389E30E94181388859985C1
:10139000843F91407CF034EFA31631E0B3068CF02B
:1013A00049815A81452B09F4EFC081E090E09A838E
:1013B000898307C094EFA91691E0B90614F41A8244
:1013C00019828091EA050E948412892B09F0E0C0FD
:1013D0008CE30E9418132C018BE30E9418133C012C
:1013E0008AE30E9418134C0189E30E94181399871D
:1013F000888788E30E9418135C0187E30E94181312
:1014000024E1249DA001259D500D11246AE0669DD4
:101410009001679D300D1124240F351F820E931EFD
:101420006A9D90016B9D300D112448855985420FAE
:10143000531F5987488744E19C01429FC001439F45
:10144000900D112428853985280F391F3401621A1F
:10145000730A372D330F330B388793014885542F88
:10146000642F742F842F942F51010E94FB1A2D8317
:10147000C32ED42EE52EF62E072F182F9A87B301F0
:10148000072C000C880B990B0E9482192CEA35EC72
:1014900047E257E30E94E11920E030E0A9010E94F1
:1014A000051B4B015C012D813C2D4D2D5E2D6F2DBB
:1014B000702F812F9A850E94191C2CEA35EC47E287
:1014C00057E30E94E1199B01AC01C501B4010E94E0
:1014D000051B4B015C0193014885542F642F742F29
:1014E000842F942F0E94EB1A0E94191C2CEA35ECD1
:1014F00047E257E30E94E11920E030E0A9010E9491
:10150000051B1B012C012D813C2D4D2D5E2D6F2DBA
:10151000702F812F9A850E94EB1A0E94191C2CEAC9
:1015200035EC47E257E30E94E1199B01AC01C2018F
:10153000B1010E94051B2DEC3CEC4CE45EE30E94E3
:10154000051BAB01BC018BED95E00E94AD032DECBA
:101550003CEC4CE45EE3C501B4010E94051BAB0109
:10156000BC0170588DED95E00E94AD036AE070E01B
:1015700080E090E00E943D131301C884DC2CEC2C29
:10158000FC2C0C2D1C2DE3CE41E050E05A83498306
:101590008B819C8101969C838B83D1CE40E050E06F
:1015A000BA018BED95E00E94AD0340E050E060E0B1
:1015B00070E88DED95E02A960FB6F894DEBF0FBE69
:1015C000CDBFDF91CF911F910F91FF90EF90DF90F2
:1015D000CF90BF90AF909F908F907F906F905F90D3
:1015E0004F903F902F900C94AD03009769F0FC0151
:1015F00001900020E9F73197AF01481B590BBC015E
:101600008FE094E00C946C0D80E090E00895CF930F
:10161000DF930E94F50AEC018AE492E00E94F50A49
:101620008C0F9D1FDF91CF9108952F923F924F9283
:101630005F926F927F928F929F92AF92BF92CF9262
:10164000DF92EF92FF920F931F93CF93DF9300D01F
:10165000CDB7DEB78DE30E9418138CE30E941813F8
:101660008BE30E9418138AE30E94181386E30E94FA
:10167000181387E30E94181388E30E94181389E364
:101680000E941813A12CB12CC12CD12CE12CF12CCF
:10169000312C212C8091EA050E948412892B09F0BB
:1016A000EBC085EF95E00E945E0520E030E040E36E
:1016B00051E40E946D1C18160CF0DEC08CE30E94F1
:1016C00018139B838A838BE30E9418132C018AE3EF
:1016D0000E9418133C0189E30E9418138C0188E3CF
:1016E0000E9418134C0187E30E94181364E14A8199
:1016F0005B81649F9001659F300D11246AE0649DB9
:10170000A001659D500D1124420F531F460D571D1A
:101710005B834A83689D9001699D300D1124020FFF
:10172000131F44E19C01429FC001439F900D11246F
:10173000080F191F8A819B81801B910B9B838A83D1
:10174000992E990C99082A813B81492D592D692D93
:10175000792D892D992D032D122D0E94FB1A190127
:10176000842EE52EF62E072F182F99832A813B8190
:10177000B901330F880B990B0E9482192CEA35ECC2
:1017800047EA57E30E94E11920E030E0A9010E94F6
:10179000051B2B013C019101482D5E2D6F2D702FF3
:1017A000812F99810E94191C2CEA35EC47E257E3FE
:1017B0000E94E1199B01AC01C301B2010E94051B0B
:1017C0002B013C012A813B81492D592D692D792D11
:1017D000892D992D0E94EB1A0E94191C2CEA35ECD8
:1017E00047EA57E30E94E11920E030E0A9010E9496
:1017F000051B5B016C019101482D5E2D6F2D702F33
:10180000812F99810E94EB1A0E94191C2CEA35EC59
:1018100047E257E30E94E1199B01AC01C601B50103
:101820000E94051B2DEC3CEC4CE45EE30E94051B82
:10183000AB01BC018BED95E00E94AD032DEC3CECBF
:101840004CE45EE3C301B2010E94051BAB01BC0185
:1018500070588DED95E00E94AD036AE070E080E085
:1018600090E00E943D13AA80BB80C92CD92CE92CA2
:10187000F92C392C292C0ECF0F900F900F90DF915F
:10188000CF911F910F91FF90EF90DF90CF90BF907D
:10189000AF909F908F907F906F905F904F903F9010
:1018A0002F9008954F925F926F927F928F929F92A6
:1018B000AF92BF92CF92DF92EF92FF920F931F935E
:1018C000CF93DF938FED95E00E94CE0481EE95E0FB
:1018D0000E94F90481EE95E00E94CE044DEC5CEC90
:1018E0006CEC7DEB8DED95E00E94AD034DEC5CEC76
:1018F0006CEC7DE38BED95E00E94AD038DEC482E02
:101900008CEC582E652C8DE3782EC0E0D0E000E002
:1019100010E081EE95E00E94F9044B015C018FED2F
:1019200095E00E94F904CC24DD247601C61AD70A7A
:10193000E80AF90A81EE95E00E94CE048FED95E069
:101940000E94CE040C0D1D1DC80DD91DB6016819CD
:101950007909072E000C880B990B0E94821927E148
:1019600037EB41ED58E30E94E1196B017C01B801AE
:101970006C1B7D0B072E000C880B990B0E948219A3
:101980002CEA35EC47EA57E30E94E1199B01AC01D0
:10199000C701B6010E94051B9B01AC01C301B20146
:1019A0000E94051B2B013C01AB01BC0170588DED61
:1019B00095E00E94AD0362E370E080E090E00E9459
:1019C0003D13013B82E018070CF4A3CFC13B82E03A
:1019D000D8070CF49ECF40E050E0BA018BED95E0C3
:1019E0000E94AD0340E050E060E070E88DED95E0CE
:1019F0000E94AD0364E670E080E090E0DF91CF915B
:101A00001F910F91FF90EF90DF90CF90BF90AF901C
:101A10009F908F907F906F905F904F900C943D13AC
:101A20003091C802313208F04BC08091A40281117C
:101A3000FCCF9091C70222E02093A40221E02093E2
:101A4000A3022FEF2093A2021092A1023093A002D2
:101A5000E7EAF2E0A0E8B2E020E0321721F041919D
:101A60004D932F5FFACF10927F0220917F02990F42
:101A7000922B90937F0290917E02913061F41092AC
:101A80007E0290917F029093BB009091BC0093FDE9
:101A9000F8CF95EC01C095EE9093BC009091A40214
:101AA0009230E1F39091A2029F3F79F08091A202DF
:101AB000803241F08091A202803331F084E005C091
:101AC00081E003C082E001C083E01092A602109280
:101AD000C8021092A5020895CF92DF92EF92FF9272
:101AE0000F931F93CF93DF936C017A018B01C0E0BA
:101AF000D0E0CE15DF0581F0D8016D918D01D601C2
:101B0000ED91FC910190F081E02DC6011995892B92
:101B100011F02196EECF7E01C701DF91CF911F9189
:101B20000F91FF90EF90DF90CF9008950E947D1E5F
:101B300085ED92E00E94F90121E0892B09F420E073
:101B4000822F089582E793E00E94F90121E0892B1A
:101B500009F420E0822F08958FE094E00E94F901BB
:101B600021E0892B09F420E0822F08953FB7F894F3
:101B70008091E4069091E506A091E606B091E70613
:101B800026B5A89B05C02F3F19F00196A11DB11DD8
:101B90003FBFBA2FA92F982F8827820F911DA11D13
:101BA000B11DBC01CD0142E0660F771F881F991F50
:101BB0004A95D1F708951F920F920FB60F921124F4
:101BC0002F933F938F939F93AF93BF938091E006A2
:101BD0009091E106A091E206B091E3063091DF0614
:101BE00023E0230F2D3720F40196A11DB11D05C060
:101BF00026E8230F0296A11DB11D2093DF068093D6
:101C0000E0069093E106A093E206B093E30680918C
:101C1000E4069091E506A091E606B091E7060196EC
:101C2000A11DB11D8093E4069093E506A093E606FE
:101C3000B093E706BF91AF919F918F913F912F9104
:101C40000F900FBE0F901F9018951F920F920FB616
:101C50000F9211240BB60F922F933F934F935F93E4
:101C60006F937F938F939F93AF93BF93EF93FF9364
:101C70008091DA069091DB06A091DC06B091DD063A
:101C8000892B8A2B8B2B49F19091D90680910000EA
:101C90008927809300008091DA069091DB06A0915D
:101CA000DC06B091DD06181619061A061B060CF0A4
:101CB00056C08091DA069091DB06A091DC06B091C7
:101CC000DD060197A109B1098093DA069093DB063E
:101CD000A093DC06B093DD0642C080910102E4E0EF
:101CE000F2E0E4919FEF90930102E230C9F050F4EA
:101CF000EE2399F0E13081F590916F009D7F9093F4
:101D00006F002AC0E43019F1E0F0E53029F5909138
:101D100073009D7F909373001FC010926E001CC0D3
:101D2000909170009D7F9093700091E09093B0002F
:101D30009091B100987F94609093B1001092B3009D
:101D40000BC0909171009D7F9093710005C09091A0
:101D500072009D7F9093720060E00E94AD12FF912F
:101D6000EF91BF91AF919F918F917F916F915F9113
:101D70004F913F912F910F900BBE0F900FBE0F9080
:101D80001F9018951F920F920FB60F9211240BB649
:101D90000F922F933F934F935F936F937F938F9304
:101DA0009F93AF93BF93EF93FF9385ED92E00E94D3
:101DB0005E02FF91EF91BF91AF919F918F917F91C3
:101DC0006F915F914F913F912F910F900BBE0F90AC
:101DD0000FBE0F901F9018951F920F920FB60F9283
:101DE00011240BB60F922F933F934F935F936F93F2
:101DF0007F938F939F93AF93BF93EF93FF9385ED63
:101E000092E00E942F11FF91EF91BF91AF919F91AE
:101E10008F917F916F915F914F913F912F910F9093
:101E20000BBE0F900FBE0F901F9018951F920F9230
:101E30000FB60F9211240BB60F922F933F934F932F
:101E40005F936F937F938F939F93AF93BF93EF9322
:101E5000FF9382E793E00E945E02FF91EF91BF91B2
:101E6000AF919F918F917F916F915F914F913F9132
:101E70002F910F900BBE0F900FBE0F901F901895D3
:101E80001F920F920FB60F9211240BB60F922F9341
:101E90003F934F935F936F937F938F939F93AF93F2
:101EA000BF93EF93FF9382E793E00E942F11FF917E
:101EB000EF91BF91AF919F918F917F916F915F91C2
:101EC0004F913F912F910F900BBE0F900FBE0F902F
:101ED0001F9018951F920F920FB60F9211240BB6F8
:101EE0000F922F933F934F935F936F937F938F93B3
:101EF0009F93AF93BF93EF93FF938FE094E00E9483
:101F00005E02FF91EF91BF91AF919F918F917F9171
:101F10006F915F914F913F912F910F900BBE0F905A
:101F20000FBE0F901F9018951F920F920FB60F9231
:101F300011240BB60F922F933F934F935F936F93A0
:101F40007F938F939F93AF93BF93EF93FF938FE014
:101F500094E00E942F11FF91EF91BF91AF919F915B
:101F60008F917F916F915F914F913F912F910F9042
:101F70000BBE0F900FBE0F901F90189585ED8093AC
:101F8000BC008091BC0084FDFCCF1092A402089597
:101F900040913007262F30E0240F311D21323105CA
:101FA000DCF42091A4022430C9F4FC0180E090E02C
:101FB000861758F4309130072191DC01A05FB84FAB
:101FC000A30FB11D2C930196F3CF80913007680FBA
:101FD0006093300780E0089581E0089582E00895DD
:101FE000089508950895E091E9068091E806E817BC
:101FF00030F4F0E0E051F94F808190E008958FEFE8
:102000009FEF08959091E9068091E806981750F4A3
:10201000E92FF0E0E051F94F208130E09F5F90938D
:10202000E90602C02FEF3FEFC90108958091E8064D
:1020300090E02091E906821B91090895CF92DF92EA
:10204000EF92FF920F931F93CF93DF937C01CB010D
:102050008A012091A502222389F0EB016B01C40EB5
:10206000D51ECC15DD0569F06991D701ED91FC9184
:102070000190F081E02DC7011995F3CF642F0E94E4
:10208000C80FC801DF91CF911F910F91FF90EF9082
:10209000DF90CF900895CF93DF931F92CDB7DEB737
:1020A00069832091A5022223D1F02091C802203219
:1020B00040F021E030E0FC013383228380E090E0B7
:1020C00015C08091A602E82FF0E0E955FD4F9981F7
:1020D00090838F5F8093A6028093C80205C061E061
:1020E000CE0101960E94C80F81E090E00F90DF9131
:1020F000CF91089590E0FC013197E231F10508F0AD
:102100004EC08827EC57FF4F8F4F0C94DC1A8091FC
:1021100080008F7703C0809180008F7D8093800046
:10212000089580918000877FF9CF84B58F7702C0B2
:1021300084B58F7D84BD08958091B0008F7703C0F2
:102140008091B0008F7D8093B000089580919000C1
:102150008F7707C0809190008F7D03C080919000A1
:10216000877F8093900008958091A0008F7707C0AB
:102170008091A0008F7D03C08091A000877F809315
:10218000A0000895809120018F7707C080912001E1
:102190008F7D03C080912001877F80932001089567
:1021A0000F931F93CF93DF93162F072FC2ECD5E029
:1021B0009C8521E02093A5029093C7021092A6026D
:1021C0001092C802AA85BB85ED91FC9111970190F0
:1021D000F081E02D682FCD0119958A859B85DC0162
:1021E000ED91FC910190F081E02D602F19958A8589
:1021F0009B85DC01ED91FC910190F081E02D612F38
:102200001995DF91CF911F910F910C94100DFC0146
:10221000248131E03093A5022093C7021092A602D8
:102220001092C8028485682B89EC92E00E944B10C2
:102230000C94100D0F931F93CF938C01C62F6460E5
:102240000E9407116C2F6B7FC8010E94071183EC5D
:1022500090E00197F1F7CF911F910F910895FC0144
:10226000A089B1898C91A689B78982FD0FC09C9104
:10227000818D8F5F8F73228D821749F0218DDF0151
:10228000A20FB11D5D969C93818F08958C91089546
:102290001F920F920FB60F9211240BB60F922F932D
:1022A0003F934F935F936F937F938F939F93AF93DE
:1022B000BF93EF93FF938091B900887F803609F434
:1022C0009CC068F5883209F45BC090F4803109F451
:1022D00054C038F4882309F4F6C0883009F44DC09E
:1022E000F6C0883109F44CC0803209F45DC0EFC0FB
:1022F000803409F468C048F4803309F455C0883349
:1023000009F0E5C08093A202D8C0803509F44FC01F
:10231000883509F45DC0883409F0D9C0D6C0883941
:1023200009F4C7C0A8F4883709F467C038F48836C0
:1023300009F463C0803709F460C0C9C0883809F463
:10234000B8C0803909F45FC0803809F0C0C05BC0F4
:10235000803B09F486C038F4803A09F466C0883AB4
:1023600009F47FC0B4C0803C09F4A7C0883C09F4DC
:10237000A4C0883B09F48AC0AAC080917F0210C023
:102380009091A1028091A002981770F5E091A102AE
:1023900081E08E0F8093A102F0E0E058FD4F808134
:1023A0008093BB0085EC86C08093A2028EC0E09132
:1023B000A10281E08E0F8093A1028091BB00F0E02A
:1023C000E058FD4F80839091A1028091A0026EC0E1
:1023D000E091A10281E08E0F8093A1028091BB0069
:1023E000F0E0E058FD4F80838091A30281116DC021
:1023F00081E080937E0284EA61C083E08093A4023E
:1024000010925207CFCF80915207803208F051C00E
:10241000E091520781E08E0F809352078091BB00BC
:10242000F0E0EE5CF84F8083BDCF85EC8093BC007C
:102430001092A40280915207803230F4E09152074A
:10244000F0E0EE5CF84F10826091520770E0E0918E
:10245000EC06F091ED0682E397E019951092520791
:1024600036C084E08093A4021092310710923007A6
:10247000E091EA06F091EB06199580913007811101
:1024800005C081E08093300710921007E09131077A
:1024900081E08E0F80933107F0E0E05FF84F80819C
:1024A0008093BB009091310780913007981708F412
:1024B00079CF85E88093BC000AC085EC8093BC008E
:1024C0001092A40204C01092A2020E94BE0FFF91BB
:1024D000EF91BF91AF919F918F917F916F915F919C
:1024E0004F913F912F910F900BBE0F900FBE0F9009
:1024F0001F9018951F920F920FB60F9211240F90F4
:102500000FBE0F901F901895CF93DF93282F30E0C8
:10251000F901E152FD4F8491F901E756FD4FD49145
:10252000F901ED5AFD4FC491CC2391F081110E9425
:102530007A10EC2FF0E0EE0FFF1FE75CFD4FA59146
:10254000B491EC91ED2381E090E021F480E002C0B1
:1025500080E090E0DF91CF9108951F93CF93DF93B8
:10256000282F30E0F901E152FD4F8491F901E7563F
:10257000FD4FD491F901ED5AFD4FC491CC23C1F028
:10258000162F81110E947A10EC2FF0E0EE0FFF1F42
:10259000E15EFD4FA591B4919FB7F894111104C06D
:1025A0008C91D095D82302C0EC91DE2BDC939FBF99
:1025B000DF91CF911F910895CF93DF9390E0FC01BD
:1025C000E756FD4F2491FC01ED5AFD4F849188237D
:1025D00061F190E0880F991FFC01EB5FFD4FC59101
:1025E000D491FC01E15EFD4FA591B491611109C048
:1025F0009FB7F8948881209582238883EC912E23BD
:102600000BC0623061F49FB7F8948881322F309507
:1026100083238883EC912E2B2C939FBF06C08FB70A
:10262000F894E8812E2B28838FBFDF91CF910895F6
:10263000863308F0865390917B00282F2870977F6F
:10264000922B90937B002091000290E4299F9001AF
:1026500011248770822B80937C0080917A008064A3
:1026600080937A0080917A0086FDFCCF809178007B
:102670002091790090E0922B08958F929F92AF92D3
:10268000BF92CF92DF92EF92FF926B017C010E948A
:10269000B60D4B015C01C114D104E104F104F1F069
:1026A0000E94B60DDC01CB0188199909AA09BB0962
:1026B000883E9340A105B10570F321E0C21AD1080C
:1026C000E108F10888EE880E83E0981EA11CB11C79
:1026D000C114D104E104F10419F7DDCFFF90EF90AC
:1026E000DF90CF90BF90AF909F908F900895CF9242
:1026F000DF92EF92FF920F931F93E82FF92F05C0FF
:10270000015011092109310961F190819623941733
:10271000B9F305C0015011092109310911F1908166
:1027200096239413F7CFC12CD12CE12CF12C0AC0A5
:102730008FEFC81AD80AE80AF80A0C151D052E05ED
:102740003F0579F080818623841791F36C2D7D2DD0
:102750008E2D9F2D1F910F91FF90EF90DF90CF90C6
:10276000089560E070E080E090E01F910F91FF908D
:10277000EF90DF90CF9008958091BB059091BC05BC
:102780000C940F1DCF92DF92EF92FF921092CC0229
:102790001092CB0288EE93E0A0E0B0E08093CD02EF
:1027A0009093CE02A093CF02B093D00224E132E006
:1027B0003093CA022093C9021092D8021092D70215
:1027C0008093D9029093DA02A093DB02B093DC02EB
:1027D00026E232E03093D6022093D50245E351E061
:1027E0005093E2024093E10244E351E05093E4024B
:1027F0004093E30240E351E05093E6024093E50248
:1028000041E351E05093E8024093E70242E351E094
:102810005093EA024093E90246E351E05093EC0200
:102820004093EB021092EE021092EF021092F0022F
:102830001092F10210927503109274038093760344
:1028400090937703A0937803B09379033093730345
:102850002093720345ED50E050937F0340937E0335
:1028600044ED50E0509381034093800340ED50E0ED
:10287000509383034093820341ED50E050938503CE
:102880004093840342ED50E05093870340938603C6
:1028900046ED50E0509389034093880310928B03D8
:1028A00010928C0310928D0310928E0310921204DA
:1028B000109211048093130490931404A0931504B0
:1028C000B09316043093100420930F0485EC90E02D
:1028D00090931C0480931B0484EC90E090931E045E
:1028E00080931D0480EC90E09093200480931F045B
:1028F00081EC90E0909322048093210482EC90E09C
:10290000909324048093230486EC90E09093260413
:1029100080932504109228041092290410922A040E
:1029200010922B048091080290910902A0910A0252
:10293000B0910B028093E3059093E405A093E50525
:10294000B093E60580910C0290910D02A0910E02C9
:10295000B0910F028093E7059093E805A093E905F5
:10296000B093EA0584E08093EB0587E08093EC0563
:102970001092ED0584EB8093EE0586E18093EF05E0
:1029800088E18093F00587E18093F10589E18093E8
:10299000F205E091BA05EC3020F08FEF8093F3055B
:1029A00010C081E08E0F8093BA05E093F30585E0B7
:1029B000E89FF0011124E258FA4F88EB9BE09283E4
:1029C0008183E091BA05EC3020F08FEF8093F4051D
:1029D00010C081E08E0F8093BA05E093F40585E086
:1029E000E89FF0011124E258FA4F88EB9BE09283B4
:1029F00081838CE08093C20584E28093C30586E0E6
:102A00008093C40585E08093C5058FE18093C6055A
:102A10008EE18093C70583E28093C80582E28093AC
:102A2000C90585E48093CA0584E48093CB0580E4DE
:102A30008093CE051092D3051092D4051092D5053F
:102A40001092D6051092D7051092D8051092D9058C
:102A50001092DA05EDEFF5E02BEB36E08FEF9FEF0C
:102A6000DC0112821382148215821682178210866C
:102A7000118683879487A587B6878787908BA18BDC
:102A8000B28B12861182108273962E173F0749F778
:102A90008DE090E00E94771CFC011382128288E393
:102AA00092E091838083118687E2848384E1828728
:102AB00084E083871486F093FA05E093F905109279
:102AC000FB051092FC0585E28093AD041092AF04E3
:102AD0001092BC051092BB051092BE051092BD0568
:102AE0001092C0051092BF0561E070E080E090E0B8
:102AF0000E94981D009791F09093BC058093BB05B0
:102B00001092BE051092BD052091BF053091C00501
:102B1000232B09F04DC0FC0110824AC08091BB05F7
:102B20009091BC05009711F00E940F1D1092BC05FA
:102B30001092BB051092C0051092BF051092BE0501
:102B40001092BD058EE390E09093D4068093D30657
:102B500098E3C92E94E0D92EE12CF12CC092D50631
:102B6000D092D606E092D706F092D80660E00E9496
:102B7000DC1281E08093000282E490E09093CE0624
:102B80008093CD06C092CF06D092D006E092D106B7
:102B9000F092D20660E00E94DC1282E090E0909316
:102BA000BC068093BB06FF90EF90DF90CF90089516
:102BB0001092C0051092BF056CE472E08091BB05D5
:102BC0009091BC050E948B1EBDCFCF93DF93CDB7F4
:102BD000DEB7A2970FB6F894DEBF0FBECDBF7894D4
:102BE00084B5826084BD84B5816084BD85B5826012
:102BF00085BD85B5816085BD80916E0081608093C3
:102C00006E0010928100809181008260809381002B
:102C1000809181008160809381008091800081603B
:102C2000809380008091B10084608093B100809196
:102C3000B00081608093B0008091910082608093A9
:102C4000910080919100816080939100809190002B
:102C50008160809390008091A10082608093A100A8
:102C60008091A10081608093A1008091A00081608B
:102C70008093A00080912101826080932101809146
:102C800021018160809321018091200181608093E6
:102C9000200180917A00846080937A0080917A008C
:102CA000826080937A0080917A00816080937A00BC
:102CB00080917A00806880937A001092C100E09140
:102CC0001F04F091200482E08083E0911B04F091C6
:102CD0001C041082E0911D04F0911E048FEC80838F
:102CE00010922704E0912304F091240486E080836D
:102CF000E0912104F0912204808180618083E09141
:102D00002104F0912204808188608083E091210475
:102D1000F0912204808180688083E0912104F09109
:102D2000220480818F7D808361E08091C3050E94B1
:102D3000DC1260E08091C3050E94AD1260E08091DA
:102D4000C2050E94DC1289EC92E09093CD0580933D
:102D5000CC051092E9061092E8061092A602109295
:102D6000C8021092A40281E08093A30210927E0216
:102D700061E084E10E94AD1261E085E10E94AD1244
:102D80008091B9008E7F8093B9008091B9008D7FCA
:102D90008093B90088E48093B80085E48093BC00F8
:102DA00080EF9FE09093EB068093EA0681EF9FE02F
:102DB0009093ED068093EC0680E090E1A0E0B0E017
:102DC0008093CF059093D005A093D105B093D20501
:102DD0008AE090E0A0E0B0E08093D3059093D40522
:102DE000A093D505B093D60580E090E0A0E0B0E4D4
:102DF0008093D7059093D805A093D905B093DA05B1
:102E000060E070E185E00E94D0106FE979E380E036
:102E10000E94D01002EC15E07801B2E05B2E88E849
:102E2000682E82E0782E9EEC892E92E0992E2BEC73
:102E3000C22E27E0D22ED70114969C911497129699
:102E40008C91F801818F928F61E00E94DC1261E029
:102E5000D8015A968C910E94DC12F70190858681E8
:102E60005801FDE1AF0EB11CD8015D968C935D97C2
:102E70005E969C9361E00E94DC1260E0F801868D12
:102E80000E94DC1261E0D8015D968C910E94AD1227
:102E90004FB6F8948091DE06811126C0F30184912B
:102EA000F4012491E82FF0E0EE0FFF1FEB5FFD4FE0
:102EB000A591B4919C91822F892321F461E085E34F
:102EC0000E94AD1261E085E30E94DC128CB5806146
:102ED0008CBD8CB580648CBD61E084E30E94DC1203
:102EE00061E083E30E94DC128091DE068F5F8093B5
:102EF000DE064FBEC6010197F1F760E0D8015D968E
:102F00008C910E94AD1288E80E94C70483E00E9461
:102F1000C70461E0F801858D0E94AD12C6010197DA
:102F2000F1F7C5010E94CE045A94FFEFEF1AFF0A91
:102F30000E5F1F4F51107FCF77EEE72E75E0F72E13
:102F40000BEE15E060E0D7018D917D010E94DC124F
:102F50000E151F05B9F723EEE22E25E0F22E3DEE09
:102F6000C32E35E0D32E45E0B42E5CE0952E62E012
:102F7000A62EF80181908F0187818C3008F048C01F
:102F800061E0882D0E94DC12D80117968C91B89EC2
:102F9000F0011124E258FA4F982D9F732081207C74
:102FA000822E892A808213821482692D0E94D01A6F
:102FB000BCE08B9FA001112420E030E0BA01620F39
:102FC000731FB69EF001B79EF00D1124E258FA4F20
:102FD000908196FD12C02F5F3F4F2C30310571F765
:102FE00081110BC010928000A09281001092850088
:102FF00010928400A6BAA0926F00D8011796EC91A7
:10300000BE9EF0011124E258FA4F808180648083D3
:10301000F80195818381D70152968C9352975396EC
:103020009C9360E00E94DC1261E0F70183890E94BA
:10303000DC1260E0D70153968C910E94AD12B2E091
:10304000EB0EF11CC016D10609F093CFF894109244
:10305000200189E08093210180E293E0909329018F
:1030600080932801109225011092240182E0809320
:10307000730078948093AC041092B0048091AD04F6
:1030800060E00E94DC129AE0892E912CA12CB12CD8
:103090006AE070E080E090E00E943D138091E805D6
:1030A0000E948412892B09F423C185EF95E00E94C8
:1030B0005E056B017C019B01AC010E94721C8823A0
:1030C00019F08DE492E01AC026013701E89477F8F0
:1030D0002FEF3FEF4FE75FE7C301B2010E94721C81
:1030E00081110FC02FEF3FEF4FE75FE7C301B20140
:1030F0000E947B1918162CF481E592E00E94F50AD3
:103100009BC02FEF3FEF4FE75FE4C701B6010E947E
:103110006D1C18161CF485E592E0F0CF2FEF3FEF01
:103120004FE75FECC701B6010E947B1987FDF3CF23
:1031300020E030E0A901C701B6010E947B1987FF9A
:1031400009C06DE28FE094E00E948002F7FAF094EB
:10315000F7F8F0942AE037ED43EA5BE3C701B601E4
:103160000E94051B2B013C010E94EA1B6B017C01A4
:103170000E9480199B01AC01C301B2010E94041B93
:103180001B012C0119A28E010F5D1F4F0AA3712E86
:10319000C701B601A50194010E949F1A69017A0135
:1031A000605DF80162938F01232B242B252B81F77F
:1031B000CF010E94F50A6EE28FE094E00E94800247
:1031C00083E0F82EFA94FF20B9F120E030E040E2ED
:1031D00051E4C201B1010E94E1191B012C010E94BE
:1031E000EA1B9B0140E050E019A20AA1172D662EB0
:1031F000C32ED42EE52ECA01B901A50194010E9467
:103200009F1A605DD8016E938D012115310541052E
:10321000510589F7CD010E94F50A662D7C2D8D2D73
:103220009E2D0E9480199B01AC01C201B1010E9438
:10323000041B1B012C01C6CF8AE492E00E94F50A10
:1032400068EE73E080E090E00E943D1383E090E040
:103250000E945F0989E592E00E94070B0E94520CD0
:1032600086EA9FEF0E944A070E94150B64EF71E007
:1032700080E090E00E943D130E94520C68EE73E0E3
:1032800080E090E00E943D138AE090E00E945506A5
:1032900084EB90E00E944A0781E090E00E945F0981
:1032A0000E94520C8AE590E00E944A0782E090E07A
:1032B0000E945F090E94150B0E94520C68EE73E099
:1032C00080E090E00E943D1387E090E00E94550668
:1032D00084EB90E00E944A0768EE73E080E090E0A3
:1032E0000E943D1360E777E180E090E00E943D138B
:1032F0000E940802CDCE0E94BD1908F481E0089515
:10330000E89409C097FB3EF490958095709561957F
:103310007F4F8F4F9F4F9923A9F0F92F96E9BB2735
:103320009395F695879577956795B795F111F8CFB1
:10333000FAF4BB0F11F460FF1BC06F5F7F4F8F4F1C
:103340009F4F16C0882311F096E911C0772321F012
:103350009EE8872F762F05C0662371F096E8862FAA
:1033600070E060E02AF09A95660F771F881FDAF701
:10337000880F9695879597F90895990F0008550F2E
:10338000AA0BE0E8FEEF16161706E807F907C0F0EB
:1033900012161306E407F50798F0621B730B840BF3
:1033A000950B39F40A2661F0232B242B252B21F4CD
:1033B00008950A2609F4A140A6958FEF811D811D6D
:1033C00008950E94F4190C94651A0E94571A38F057
:1033D0000E945E1A20F0952311F00C944E1A0C9462
:1033E000541A11240C94991A0E94761A70F3959F1E
:1033F000C1F3950F50E0551F629FF001729FBB27EC
:10340000F00DB11D639FAA27F00DB11DAA1F649F87
:103410006627B00DA11D661F829F2227B00DA11D3A
:10342000621F739FB00DA11D621F839FA00D611DC0
:10343000221F749F3327A00D611D231F849F600DE1
:10344000211D822F762F6A2F11249F5750409AF00A
:10345000F1F088234AF0EE0FFF1FBB1F661F771F96
:10346000881F91505040A9F79E3F510580F00C9461
:103470004E1A0C94991A5F3FE4F3983ED4F3869564
:1034800077956795B795F795E7959F5FC1F7FE2B01
:10349000880F911D9695879597F9089597F99F67DD
:1034A00080E870E060E008959FEF80EC08950024CC
:1034B0000A941616170618060906089500240A9499
:1034C00012161306140605060895092E0394000C1F
:1034D00011F4882352F0BB0F40F4BF2B11F460FFAE
:1034E00004C06F5F7F4F8F4F9F4F089557FD9058D7
:1034F000440F551F59F05F3F71F04795880F97FBB8
:10350000991F61F09F3F79F0879508951216130671
:103510001406551FF2CF4695F1DF08C016161706A0
:103520001806991FF1CF86957105610508940895D5
:10353000E894BB2766277727CB0197F90895A1E286
:103540001A2EAA1BBB1BFD010DC0AA1FBB1FEE1F1D
:10355000FF1FA217B307E407F50720F0A21BB30B68
:10356000E40BF50B661F771F881F991F1A9469F7E4
:1035700060957095809590959B01AC01BD01CF0140
:103580000895A29FB001B39FC001A39F700D811D3C
:103590001124911DB29F700D811D1124911D08955C
:1035A000991B79E004C0991F961708F0961B881F95
:1035B0007A95C9F780950895EE0FFF1F881F8BBF7E
:1035C0000790F691E02D19940E94C11AB7FF089553
:1035D000821B930B0895609570958095909530951A
:1035E0004095509521953F4F4F4F5F4F6F4F7F4F05
:1035F0008F4F9F4F08952A193B094C095D096E09A9
:103600007F09800B910B08955058BB27AA270E9471
:103610001C1B0C94651A0E94571A38F00E945E1AFF
:1036200020F039F49F3F19F426F40C94541A0EF448
:10363000E095E7FB0C944E1AE92F0E94761A58F396
:10364000BA17620773078407950720F079F4A6F587
:103650000C94981A0EF4E0950B2EBA2FA02D0B01A6
:10366000B90190010C01CA01A0011124FF27591BC7
:1036700099F0593F50F4503E68F11A16F040A22FCD
:10368000232F342F4427585FF3CF4695379527953E
:10369000A795F0405395C9F77EF41F16BA0B620B3D
:1036A000730B840BBAF09150A1F0FF0FBB1F661F84
:1036B000771F881FC2F70EC0BA0F621F731F841FC7
:1036C00048F4879577956795B795F7959E3F08F0ED
:1036D000B0CF9395880F08F09927EE0F97958795AF
:1036E00008950E94851B0C94651A0E945E1A58F07A
:1036F0000E94571A40F029F45F3F29F00C944E1AAB
:1037000051110C94991A0C94541A0E94761A68F369
:103710009923B1F3552391F3951B550BBB27AA278A
:1037200062177307840738F09F5F5F4F220F331FC4
:10373000441FAA1FA9F335D00E2E3AF0E0E832D08C
:1037400091505040E695001CCAF72BD0FE2F29D08F
:10375000660F771F881FBB1F261737074807AB0761
:10376000B0E809F0BB0B802DBF01FF2793585F4FD6
:103770003AF09E3F510578F00C944E1A0C94991A29
:103780005F3FE4F3983ED4F3869577956795B795B8
:10379000F7959F5FC9F7880F911D9695879597F9C3
:1037A0000895E1E0660F771F881FBB1F621773073C
:1037B0008407BA0720F0621B730B840BBA0BEE1F51
:1037C00088F7E09508950E94EA1B6894B1110C9463
:1037D000991A08950E947E1A88F09F5798F0B92F81
:1037E0009927B751B0F0E1F0660F771F881F991F36
:1037F0001AF0BA95C9F714C0B13091F00E94981A26
:10380000B1E008950C94981A672F782F8827B85F35
:1038100039F0B93FCCF3869577956795B395D9F78D
:103820003EF490958095709561957F4F8F4F9F4F97
:10383000089597FB16F40E945D1C0C94201CE894DC
:10384000F92F96EBFF2381F0121613061406440B92
:103850009395F69587957795679557954040FF2303
:10386000B9F71BC099270895882351F49850D2F7CF
:10387000872B762F652F542F432F322F20E0B1F363
:10388000121613061406440B88233AF09A95440F37
:10389000551F661F771F881FCAF755234AF4440F28
:1038A000551F11F460FF04C06F5F7F4F8F4F9F4F14
:1038B000880F9695879597F90895909580957095BE
:1038C000609550954095309521953F4F4F4F5F4FF4
:1038D0006F4F7F4F8F4F9F4F08950E94BD1908F47F
:1038E0008FEF08950E94BD19880B990B08950F93CF
:1038F0001F93CF93DF938230910510F482E090E024
:10390000E0915507F091560720E030E0A0E0B0E0EC
:10391000309719F14081518102811381481759076D
:10392000C8F08417950769F4109731F012960C933C
:10393000129713961C9327C00093550710935607B0
:1039400022C02115310519F04217530718F49A01C6
:10395000BD01EF01DF01F801DBCF21153105F9F0E1
:10396000281B390B2430310580F48A819B81611535
:10397000710521F0FB019383828304C09093560765
:1039800080935507FE01329644C0FE01E20FF31FFB
:103990008193919322503109398328833AC0209131
:1039A000530730915407232B41F4209104023091A6
:1039B000050230935407209353072091020230915F
:1039C00003022115310541F42DB73EB7409106029F
:1039D00050910702241B350BE0915307F0915407D7
:1039E000E217F307A0F42E1B3F0B2817390778F0D6
:1039F000AC014E5F5F4F2417350748F04E0F5F1F35
:103A000050935407409353078193919302C0E0E091
:103A1000F0E0CF01DF91CF911F910F910895CF93E7
:103A2000DF93009709F481C0FC0132971382128260
:103A3000A0915507B0915607109781F420813181EC
:103A4000820F931F2091530730915407281739078D
:103A500051F5F0935407E093530767C0ED0120E060
:103A600030E0CE17DF0740F44A815B819E014115AB
:103A70005105F1F0EA01F5CFD383C2834081518132
:103A8000840F951FC817D90759F488819981840F2D
:103A9000951F0296918380838A819B819383828381
:103AA0002115310529F4F0935607E09355073DC0E1
:103AB000E901FB83EA8349915991C40FD51FEC17A3
:103AC000FD0761F480819181840F951F0296E901C1
:103AD00099838883828193819B838A83E0E0F0E0ED
:103AE00012968D919C911397009719F0FD01DC01BE
:103AF000F7CF8D919C9111979D012E5F3F4F820FC3
:103B0000931F20915307309154072817390769F400
:103B1000309729F4109256071092550702C013826D
:103B20001282B0935407A0935307DF91CF91089569
:103B30006F927F928F929F92AF92BF92CF92DF92BD
:103B4000EF92FF920F931F93CF93DF93009789F427
:103B5000CB01DF91CF911F910F91FF90EF90DF90FC
:103B6000CF90BF90AF909F908F907F906F900C946C
:103B7000771CFC01E60FF71F9C0122503109E21768
:103B8000F30708F4A9C0EC01D9010D911C9111971C
:103B900006171707B0F00530110508F49BC0C801DF
:103BA00004978617970708F495C002501109061B61
:103BB000170B019311936D937C93CF010E940F1DFE
:103BC00089C05B01A01AB10A4C01800E911EA09120
:103BD0005507B0915607612C712CE12CF12C1097F0
:103BE00009F446C08D919C911197A815B905B1F5BE
:103BF0006C0142E0C40ED11CCA14DB0478F14C0104
:103C00008A189B08640142E0C40ED11C1296BC9035
:103C100012971396AC91B5E0CB16D10440F0B28266
:103C2000A38391828082D9016D937C9309C00E5F3A
:103C30001F4F800F911FF90191838083EB2DFA2F85
:103C4000E114F10431F0D7011396FC93EE9312972F
:103C500041C0F0935607E09355073CC068167906BB
:103C600008F43C017D0112960D90BC91A02DB7CFB8
:103C7000809153079091540788169906E1F46616CF
:103C80007706C8F48091020290910302009741F4F4
:103C90008DB79EB74091060250910702841B950B89
:103CA000E817F907C8F4F0935407E0935307F901B4
:103CB000718360830FC0CB010E94771C7C01009749
:103CC00059F0A801BE010E94821ECE010E940F1D64
:103CD000C70104C0CE0102C080E090E0DF91CF9127
:103CE0001F910F91FF90EF90DF90CF90BF90AF901A
:103CF0009F908F907F906F90089581E090E0F8946E
:103D00000C94921EFB01DC0102C001900D92415007
:103D10005040D8F70895FB01DC0101900D9200207E
:103D2000E1F7089511E0C4E9D1E000E006C0802F7A
:103D3000FE010E94DC1A2196011DC539D10780E0E1
:083D40000807A9F7F894FFCF72
:103D480001FF000057072000363738391B1D1A1CA1
:103D5800000000004B101E103602F20F1610021061
:103D6800F30F0000000080026C0DC801CD02F901BC
:103D7800D701EB010000000039026C0D3602350254
:103D8800636865636B6C696E65000D0A006E616E31
:103D980000696E66006F7666007475726E616E6794
:043DA8006C65000046
:00000001FF
