:100000000C9495010C94C6010C94C6010C94C60185
:100010000C94C6010C94C6010C94C6010C94C60144
:100020000C94C6010C94510B0C94510B0C94510B75
:100030000C94C6010C9428050C94C6010C94C601BE
:100040000C94C6010C947F070C94C6010C94C60155
:100050000C94C6010C94C6010C94C6010C94DE04E9
:100060000C94C6010C9497060C946D060C94C60172
:100070000C94C6010C94C6010C94C6010C94C601E4
:100080000C94C6010C94C6010C94C6010C94C601D4
:100090000C94C6010C94C6010C94C6010C941F0A62
:1000A0000C94C6010C94C6010C94C6010C94C601B4
:1000B0000C94C6010C94C6010C94C6010C94C106A4
:1000C0000C94C6010C94C6010C94C6010C94430612
:1000D0000C9419060C94C6010C94EF050C94C505FC
:1000E0000C94C601FE030304080412041C049504C6
:1000F00026042E04360440044A04540463046D04A8
:100100009504770481048B045A095D094C09500950
:1001100056099409610965096B096F097309790921
:100120007D098109940987098B098F090C94400482
:100130000C94FE030C9465090C948B090C948B04AD
:100140000C945D090C9412040C9487090C9485029C
:100150000C9481040C946F090C944C020C94B70815
:100160000C9473090C9499030C946D040C94B808C6
:100170000C945A090C9410090C941C040C94C70894
:100180000C9454040C9408040C9476020C94790991
:100190000C9481090C9477040C9456090C94B904BE
:1001A0000C942E040C947D090C94DB080C946304CD
:1001B0000C94F3020C94E9100C944A040C948F09EB
:1001C0000C9436040C9461090C94E3100C942604EE
:1001D0000C9450090C9495040C94B5080C940304E9
:1001E0000C94A7020C949A030C944C090C944003B1
:1001F0000C9499020C94E3080C94B6080C9494099E
:100200000C946B090200002100240027002A002D15
:10021000003000330001010000040107010A010061
:10022000002200250028002B002E0031003400029F
:10023000010000050108010B010000200023002639
:100240000029002C002F00320000010000030106ED
:10025000010901050505050705080808080202024D
:10026000020A0A0808040404040101010101010151
:10027000010303030303030303040707070C0C0C28
:100280000C0C0C0C0C020202020606060606060600
:10029000060B0B0B0B0B0B0B0B010210202008089D
:1002A00010204010204080020102010804020101D8
:1002B00002040810204080804020100804020180C1
:1002C0000402018040201008040201080402010118
:1002D0000204081020408001020408102040800021
:1002E000000A0B02090C0D0E0807030401000000B0
:1002F00000000000000000000000000000000000FE
:1003000000000000000000000000001211100000BA
:1003100000000000000000000000000000000000DD
:10032000000000000000E910E31011241FBECFEF11
:10033000D1E2DEBFCDBF00E00CBF12E0A0E0B2E032
:10034000EEE3F0E300E00BBF02C007900D92A03592
:10035000B107D9F727E0A0E5B2E001C01D92A334B0
:10036000B207E1F711E0C4E9D1E000E006C021974F
:100370000109802FFE010E945E14C339D10780E07D
:100380000807A9F70E94340C0C940D180C94000077
:10039000863308F0865390917B00282F2870977F32
:1003A000922B90937B002091010290E4299F900171
:1003B00011248770822B80937C0080917A00806466
:1003C00080937A0080917A0086FDFCCF809178003E
:1003D0002091790090E0922B08953FB7F894809196
:1003E000750290917602A0917702B091780226B5BD
:1003F000A89B05C02F3F19F00196A11DB11D3FBF5D
:10040000BA2FA92F982F8827820F911DA11DB11DEA
:10041000BC01CD0142E0660F771F881F991F4A95E6
:10042000D1F708958F929F92AF92BF92CF92DF92B1
:10043000EF92FF926B017C010E94ED014B015C0188
:10044000C114D104E104F104F1F00E94ED01DC01DA
:10045000CB0188199909AA09BB09883E9340A105D7
:10046000B10570F321E0C21AD108E108F10888EE65
:10047000880E83E0981EA11CB11CC114D104E104B4
:10048000F10419F7DDCFFF90EF90DF90CF90BF9090
:10049000AF909F908F900895CF92DF92EF92FF924E
:1004A0000F931F93CF93DF936C017A018B01C0E010
:1004B000D0E0CE15DF0581F0D8016D918D01D60118
:1004C000ED91FC910190F081E02DC6011995892BE9
:1004D00011F02196EECF7E01C701DF91CF911F91E0
:1004E0000F91FF90EF90DF90CF900895FC01538D16
:1004F000448D252F30E0842F90E0821B930B5417FE
:1005000010F0CF96089501970895FC01918D828D8A
:10051000981761F0828DDF01A80FB11D5D968C9157
:10052000928D9F5F9F73928F90E008958FEF9FEF62
:100530000895FC01918D828D981731F0828DE80F1E
:10054000F11D858D90E008958FEF9FEF0895FC01D8
:10055000918D228D892F90E0805C9F4F821B9109A5
:100560008F739927089580E992E00E94A70221E005
:10057000892B09F420E0822F08958DE293E00E94F8
:10058000A70221E0892B09F420E0822F08958AEC4C
:1005900093E00E94A70221E0892B09F420E0822F3A
:1005A0000895FC01848DDF01A80FB11DA35ABF4F30
:1005B0002C91848D90E001968F739927848FA68962
:1005C000B7892C93A089B1898C91837080648C93B6
:1005D000938D848D981306C00288F389E02D808165
:1005E0008F7D80830895EF92FF920F931F93CF9397
:1005F000DF93EC0181E0888F9B8D8C8D981305C073
:10060000E889F989808185FD26C0F62E0B8D10E0E2
:100610000F5F1F4F0F731127E02E8C8DE8120CC057
:100620000FB607FCFACFE889F989808185FFF5CFFD
:10063000CE010E94D102F1CF8B8DFE01E80FF11D9A
:10064000E35AFF4FF0829FB7F8940B8FEA89FB893A
:10065000808180620AC09FB7F894EE89FF89608329
:10066000E889F98980818370806480839FBF81E0FD
:1006700090E0DF91CF911F910F91FF90EF9008953F
:10068000CF93DF93EC01888D8823C9F0EA89FB8939
:10069000808185FD05C0A889B9898C9186FD0FC030
:1006A0000FB607FCF5CF808185FFF2CFA889B98905
:1006B0008C9185FFEDCFCE010E94D102E7CFDF9173
:1006C000CF910895E0E0F0E0199480E090E0892B6C
:1006D00021F00E94C702811119C080E090E0892BAF
:1006E00041F080E090E0892B21F00E940000811110
:1006F00010C00E94BD0281110FC080E090E0892BE4
:1007000081F00E94B30281110AC008950E94000086
:10071000E4CF0E940000EDCF0E946203EECF0C9464
:10072000000008958EBD00000DB407FEFDCF8EB50C
:100730000895089580E090E008958F929F92AF927F
:10074000BF92CF92DF92EF92FF920F931F93CF93BE
:10075000DF938C016A017B0120E030E04FE753E436
:10076000C701B6010E9472134B015C0120E030E02A
:10077000A9010E94E81518161CF4C501B40103C0B4
:10078000C501B40190580E945E15EB0120E030E0F5
:10079000A901C701B6010E94E815181614F460E01B
:1007A00001C061E0F80181810E94840BCF3FD10537
:1007B00009F014F4DD2702C0CFEFD0E0F80110817A
:1007C00061E0812F0E94B30B209709F4B1C0CF3FA5
:1007D000D10509F4AFC0E12FF0E0E152FD4FE49103
:1007E0008E2F90E0FC013197E231F10508F09DC0B9
:1007F0008827EE58FF4F8F4F0C945E1484B58068A5
:1008000084BDC7BDA7C084B5806284BDC8BDA2C079
:1008100080918000806880938000D0938900C0938D
:10082000880098C080918000806280938000D0937F
:100830008B00C0938A008EC0809180008860809376
:100840008000D0938D00C0938C0084C08091B00054
:1008500080688093B000C093B3007CC08091B000EA
:1008600080628093B000C093B40074C08091900007
:10087000806880939000D0939900C09398006AC0DC
:1008800080919000806280939000D0939B00C093F1
:100890009A0060C080919000886080939000D0930F
:1008A0009D00C0939C0056C08091A00080688093FA
:1008B000A0008091A0008F7B8093A000D093A9001E
:1008C000C093A80047C08091A00080628093A000E0
:1008D000D093AB00C093AA003DC08091A000886077
:1008E0008093A000D093AD00C093AC0033C0809142
:1008F0002001806880932001D0932901C0932801B2
:1009000029C080912001806280932001D0932B0127
:10091000C0932A011FC0809120018860809320012C
:10092000D0932D01C0932C0115C0C038D10514F40B
:1009300060E001C061E0812FDF91CF911F910F91A5
:10094000FF90EF90DF90CF90BF90AF909F908F90EF
:100950000C94840BDF91CF911F910F91FF90EF903A
:10096000DF90CF90BF90AF909F908F9008950E949E
:10097000F8170F931F93CF93DF938C01C62FD62FB9
:10098000D07FD1606D2F0E94DE096D2FC8010E94BB
:10099000F10980E1C89FB0011124C62FC1606C2FFE
:1009A000C8010E94DE096C2FC8010E94F10981E094
:1009B00090E0DF91CF911F910F9108951F920F92B8
:1009C0000FB60F9211242F933F938F939F93AF9362
:1009D000BF938091710290917202A0917302B091C5
:1009E00074023091700223E0230F2D3720F401961A
:1009F000A11DB11D05C026E8230F0296A11DB11D42
:100A0000209370028093710290937202A0937302FC
:100A1000B09374028091750290917602A091770252
:100A2000B09178020196A11DB11D8093750290933B
:100A30007602A0937702B0937802BF91AF919F9115
:100A40008F913F912F910F900FBE0F901F9018958F
:100A50001F920F920FB60F9211240BB60F922F9385
:100A60003F934F935F936F937F938F939F93AF9336
:100A7000BF93EF93FF9380916B0290916C02A091D2
:100A80006D02B0916E02892B8A2B8B2B49F19091CC
:100A90006A028091000089278093000080916B0298
:100AA00090916C02A0916D02B0916E021816190619
:100AB0001A061B060CF056C080916B0290916C02D6
:100AC000A0916D02B0916E020197A109B1098093C6
:100AD0006B0290936C02A0936D02B0936E0242C0C1
:100AE00080910002E4E0F2E0E4919FEF9093000235
:100AF000E230C9F050F4EE2399F0E13081F59091A5
:100B00006F009D7F90936F002AC0E43019F1E0F0F0
:100B1000E53029F5909173009D7F909373001FC07D
:100B200010926E001CC0909170009D7F9093700099
:100B300091E09093B0009091B100987F9460909371
:100B4000B1001092B3000BC0909171009D7F909303
:100B5000710005C0909172009D7F9093720060E0DB
:100B60000E94840BFF91EF91BF91AF919F918F9164
:100B70007F916F915F914F913F912F910F900BBE9D
:100B80000F900FBE0F901F9018951F920F920FB6E7
:100B90000F9211240BB60F922F933F934F935F93B5
:100BA0006F937F938F939F93AF93BF93EF93FF9335
:100BB00080E992E00E94D102FF91EF91BF91AF9145
:100BC0009F918F917F916F915F914F913F912F9165
:100BD0000F900BBE0F900FBE0F901F9018951F9295
:100BE0000F920FB60F9211240BB60F922F933F93D3
:100BF0004F935F936F937F938F939F93AF93BF9325
:100C0000EF93FF9380E992E00E94060AFF91EF9133
:100C1000BF91AF919F918F917F916F915F914F9114
:100C20003F912F910F900BBE0F900FBE0F901F9012
:100C300018951F920F920FB60F9211240BB60F92B8
:100C40002F933F934F935F936F937F938F939F93D4
:100C5000AF93BF93EF93FF938DE293E00E94D10295
:100C6000FF91EF91BF91AF919F918F917F916F9184
:100C70005F914F913F912F910F900BBE0F900FBE40
:100C80000F901F9018951F920F920FB60F9211247C
:100C90000BB60F922F933F934F935F936F937F9376
:100CA0008F939F93AF93BF93EF93FF938DE293E066
:100CB0000E94060AFF91EF91BF91AF919F918F9192
:100CC0007F916F915F914F913F912F910F900BBE4C
:100CD0000F900FBE0F901F9018951F920F920FB696
:100CE0000F9211240BB60F922F933F934F935F9364
:100CF0006F937F938F939F93AF93BF93EF93FF93E4
:100D00008AEC93E00E94D102FF91EF91BF91AF91E5
:100D10009F918F917F916F915F914F913F912F9113
:100D20000F900BBE0F900FBE0F901F9018951F9243
:100D30000F920FB60F9211240BB60F922F933F9381
:100D40004F935F936F937F938F939F93AF93BF93D3
:100D5000EF93FF938AEC93E00E94060AFF91EF91D4
:100D6000BF91AF919F918F917F916F915F914F91C3
:100D70003F912F910F900BBE0F900FBE0F901F90C1
:100D800018951F920F920FB60F9211240BB60F9267
:100D90002F933F934F935F936F937F938F939F9383
:100DA000AF93BF93EF93FF93809168040E945B0B16
:100DB00020916C0430916D042F5F3F4F30936D0490
:100DC00020936C0490916B04953618F096E0909304
:100DD0006704909167049430C9F128F4923069F067
:100DE0009330D1F05EC0953009F451C0963009F0CF
:100DF00058C091E09093380551C0811152C02091A4
:100E00006C0430916D042436310508F442C0109210
:100E1000380510926B041CC0813009F042C0E0918B
:100E20006B0491E09E0F90936B04F0E020916C04B2
:100E300030916D04EE0FFF1FE959FB4F3087278378
:100E400010926D0410926C0494E029C0811117C0B7
:100E5000E0916B0491E09E0F90936B04F0E0209181
:100E60006C0430916D04EE0FFF1FE959FB4F308782
:100E7000278310926D0410926C0493E010C02091AF
:100E80006C0430916D042536310558F007C081118E
:100E900008C010926D0410926C0403C095E090930A
:100EA000670490916A049923B9F081110AC0809176
:100EB0006904882321F08091690461E009C02F9AB8
:100EC0000BC080916904882331F08091690460E04F
:100ED0000E94840B01C02F98FF91EF91BF91AF91B9
:100EE0009F918F917F916F915F914F913F912F9142
:100EF0000F900BBE0F900FBE0F901F9018951F9272
:100F00000F920FB60F9211240BB60F922F933F93AF
:100F10004F935F936F937F938F939F93AF93BF9301
:100F2000EF93FF938091690287FF05C010928500BF
:100F30001092840016C020916902022E000C330B1F
:100F40008091750590E0281739075CF430916902AB
:100F500025E03203F0011124E75CFA4F808186FD21
:100F600015C0809169028F5F8093690220916902A8
:100F7000022E000C330B8091750590E0281739077D
:100F800094F4809169028C302CF10DC0309169028B
:100F90003203F0011124E75CFA4F808160E08F7327
:100FA0000E94840BDECF8091840090918500843470
:100FB0009C4918F480E49CE905C0809184009091DC
:100FC0008500049690938900809388008FEF80932A
:100FD00069022AC0409184005091850030916902D5
:100FE00025E03203F0011124E75CFA4F8181928100
:100FF000840F951F90938900809388003091690237
:101000003203F0011124E75CFA4F808186FF0CC0A7
:10101000309169023203F0011124E75CFA4F8081BC
:1010200061E08F730E94840BFF91EF91BF91AF91AC
:101030009F918F917F916F915F914F913F912F91F0
:101040000F900BBE0F900FBE0F901F901895309110
:101050008302313208F04BC0809181028111FCCFB4
:1010600090915E0622E02093810221E0209380028D
:101070002FEF20933C0610923B0630933A06EEE3A6
:10108000F6E0AAE1B6E020E0321721F041914D935D
:101090002F5FFACF1092190620911906990F922B03
:1010A0009093190690917F02913061F410927F0223
:1010B000909119069093BB009091BC0093FDF8CFDE
:1010C00095EC01C095EE9093BC0090918102923016
:1010D000E1F390913C069F3F79F080913C0680328D
:1010E00041F080913C06803331F084E005C081E01E
:1010F00003C082E001C083E010928202109283025A
:1011000010923D06089585ED8093BC008091BC004F
:1011100084FDFCCF1092810208954091F605262FA0
:1011200030E0240F311D21323105DCF420918102A1
:101130002430C9F4FC0180E090E0861758F4309127
:10114000F6052191DC01AA52BA4FA30FB11D2C93D1
:101150000196F3CF8091F605680F6093F60580E065
:10116000089581E0089582E008950895089508950E
:10117000E0917A0280917902E81730F4F0E0EA54C5
:10118000FA4F808190E008958FEF9FEF089590913E
:101190007A0280917902981750F4E92FF0E0EA542E
:1011A000FA4F208130E09F5F90937A0202C02FEFC8
:1011B0003FEFC90108958091790290E020917A0271
:1011C000821B91090895CF92DF92EF92FF920F93C5
:1011D0001F93CF93DF937C01CB018A0120913D06C1
:1011E000222389F0EB016B01C40ED51ECC15DD0561
:1011F00069F06991D701ED91FC910190F081E02DAA
:10120000C7011995F3CF642F0E948D08C801DF91A3
:10121000CF911F910F91FF90EF90DF90CF900895A5
:10122000CF93DF931F92CDB7DEB7698320913D0640
:101230002223D1F020918302203240F021E030E0DF
:10124000FC013383228380E090E015C0809182020C
:10125000E82FF0E0E25CF94F998190838F5F8093F3
:1012600082028093830205C061E0CE0101960E9454
:101270008D0881E090E00F90DF91CF91089590E08C
:10128000FC013197E231F10508F04EC08827EC5798
:10129000FF4F8F4F0C945E14809180008F7703C0B6
:1012A000809180008F7D80938000089580918000E0
:1012B000877FF9CF84B58F7702C084B58F7D84BDD9
:1012C00008958091B0008F7703C08091B0008F7D2A
:1012D0008093B0000895809190008F7707C080912F
:1012E00090008F7D03C080919000877F8093900055
:1012F00008958091A0008F7707C08091A0008F7D16
:1013000003C08091A000877F8093A0000895809102
:1013100020018F7707C0809120018F7D03C08091CD
:101320002001877F809320010895009769F0FC01D8
:1013300001900020E9F73197AF01481B590BBC0120
:101340008AEC93E00C944C0280E090E008950F93B7
:101350001F93CF93DF93162F072FCDE7D5E09C8502
:1013600021E020933D0690935E0610928202109237
:101370008302AA85BB85ED91FC9111970190F081C4
:10138000E02D682FCD0119958A859B85DC01ED91B3
:10139000FC910190F081E02D602F19958A859B8545
:1013A000DC01ED91FC910190F081E02D612F199508
:1013B000DF91CF911F910F910C942708FC0124819C
:1013C00031E030933D0620935E0610928202109227
:1013D00083028485682B84E892E00E9410090C94B3
:1013E00027080F931F93CF938C01C62F64600E9430
:1013F000DE096C2F6B7FC8010E94DE0983EC90E050
:101400000197F1F7CF911F910F910895FC01A089E9
:10141000B1898C91A689B78982FD0FC09C91818D7D
:101420008F5F8F73228D821749F0218DDF01A20F0C
:10143000B11D5D969C93818F08958C9108951F92A4
:101440000F920FB60F9211240BB60F922F933F936A
:101450004F935F936F937F938F939F93AF93BF93BC
:10146000EF93FF938091B900887F803609F49CC088
:1014700068F5883209F45BC090F4803109F454C0F7
:1014800038F4882309F4F6C0883009F44DC0F6C05A
:10149000883109F44CC0803209F45DC0EFC080345B
:1014A00009F468C048F4803309F455C0883309F062
:1014B000E5C080933C06D8C0803509F44FC088351C
:1014C00009F45DC0883409F0D9C0D6C0883909F460
:1014D000C7C0A8F4883709F467C038F4883609F41F
:1014E00063C0803709F460C0C9C0883809F4B8C047
:1014F000803909F45FC0803809F0C0C05BC0803B10
:1015000009F486C038F4803A09F466C0883A09F4D0
:101510007FC0B4C0803C09F4A7C0883C09F4A4C0D3
:10152000883B09F48AC0AAC08091190610C0909126
:101530003B0680913A06981770F5E0913B0681E0F2
:101540008E0F80933B06F0E0E65EF94F808180933A
:10155000BB0085EC86C080933C068EC0E0913B06C4
:1015600081E08E0F80933B068091BB00F0E0E65E49
:10157000F94F808390913B0680913A066EC0E091CE
:101580003B0681E08E0F80933B068091BB00F0E02C
:10159000E65EF94F80838091800281116DC081E009
:1015A00080937F0284EA61C083E08093810210927D
:1015B0001806CFCF80911806803208F051C0E09114
:1015C000180681E08E0F809318068091BB00F0E032
:1015D000E850FA4F8083BDCF85EC8093BC00109219
:1015E000810280911806803230F4E0911806F0E014
:1015F000E850FA4F10826091180670E0E0917D0289
:10160000F0917E0288EF95E019951092180636C089
:1016100084E0809381021092F7051092F605E09124
:101620007B02F0917C0219958091F605811105C02D
:1016300081E08093F6051092D605E091F70581E0F0
:101640008E0F8093F705F0E0EA52FA4F8081809385
:10165000BB009091F7058091F605981708F479CFB3
:1016600085E88093BC000AC085EC8093BC00109292
:10167000810204C010923C060E948308FF91EF9102
:10168000BF91AF919F918F917F916F915F914F919A
:101690003F912F910F900BBE0F900FBE0F901F9098
:1016A00018951F920F920FB60F9211240F900FBE34
:1016B0000F901F901895CF93DF93282F30E0F901FA
:1016C000E152FD4F8491F901E756FD4FD491F901A4
:1016D000ED5AFD4FC491CC2391F081110E943F0936
:1016E000EC2FF0E0EE0FFF1FE75CFD4FA591B491EA
:1016F000EC91ED2381E090E021F480E002C080E0F5
:1017000090E0DF91CF9108951F93CF93DF93282F1F
:1017100030E0F901E152FD4F8491F901E756FD4FA8
:10172000D491F901ED5AFD4FC491CC23C1F0162F8D
:1017300081110E943F09EC2FF0E0EE0FFF1FE15EE8
:10174000FD4FA591B4919FB7F894111104C08C91ED
:10175000D095D82302C0EC91DE2BDC939FBFDF91A4
:10176000CF911F910895CF93DF9390E0FC01E7564E
:10177000FD4F2491FC01ED5AFD4F8491882361F1C6
:1017800090E0880F991FFC01EB5FFD4FC591D4914C
:10179000FC01E15EFD4FA591B491611109C09FB7B5
:1017A000F8948881209582238883EC912E230BC0A6
:1017B000623061F49FB7F8948881322F309583238B
:1017C0008883EC912E2B2C939FBF06C08FB7F89483
:1017D000E8812E2B28838FBFDF91CF910895CF9280
:1017E000DF92EF92FF920F931F93E82FF92F05C01E
:1017F000015011092109310961F190819623941753
:10180000B9F305C0015011092109310911F1908185
:1018100096239413F7CFC12CD12CE12CF12C0AC0C4
:101820008FEFC81AD80AE80AF80A0C151D052E050C
:101830003F0579F080818623841791F36C2D7D2DEF
:101840008E2D9F2D1F910F91FF90EF90DF90CF90E5
:10185000089560E070E080E090E01F910F91FF90AC
:10186000EF90DF90CF900895CF93DF93CDB7DEB7A1
:10187000A5970FB6F894DEBF0FBECDBF789484B5A0
:10188000826084BD84B5816084BD85B5826085BD7C
:1018900085B5816085BD80916E00816080936E000A
:1018A00010928100809181008260809381008091FC
:1018B00081008160809381008091800081608093AD
:1018C00080008091B10084608093B1008091B0006D
:1018D00081608093B000809191008260809391003C
:1018E000809191008160809391008091900081604F
:1018F000809390008091A10082608093A1008091EC
:10190000A10081608093A1008091A00081608093FC
:10191000A0008091210182608093210180912101AA
:10192000816080932101809120018160809320015A
:1019300080917A00846080937A0080917A0082603E
:1019400080937A0080917A00816080937A00809100
:101950007A00806880937A001092C100E091DA03E7
:10196000F091DB0382E08083E091D603F091D7030E
:101970001082E091D803F091D9038FEC808310920C
:10198000E203E091DE03F091DF0386E08083E091E3
:10199000DC03F091DD03808180618083E091DC03D2
:1019A000F091DD03808188608083E091DC03F09119
:1019B000DD03808180688083E091DC03F091DD03AA
:1019C00080818F7D808361E080917E050E94B30BD2
:1019D00060E080917E050E94840B60E080917D052F
:1019E0000E94B30B84E892E090938805809387056A
:1019F00010927A021092790210928202109283025F
:101A00001092810281E08093800210927F0261E057
:101A100084E10E94840B61E085E10E94840B809147
:101A2000B9008E7F8093B9008091B9008D7F80933B
:101A3000B90088E48093B80085E48093BC0085EB0E
:101A400098E090937C0280937B0286EB98E09093E1
:101A50007E0280937D0280E090E1A0E0B0E0809380
:101A60008A0590938B05A0938C05B0938D058AE031
:101A700090E0A0E0B0E080938E0590938F05A09356
:101A80009005B093910580E090E0A0E0B0E48093F1
:101A9000920590939305A0939405B093950560E00B
:101AA00070E185E00E94A7096FE979E380E00E9478
:101AB000A7090DE715E07801512CB8E86B2EB2E0CC
:101AC0007B2E8EEC882E82E0982E9BECC92E97E020
:101AD000D92E2BE8A22EBB24B394D70114969C9147
:101AE000149712968C91F801818F928F61E00E9479
:101AF000B30B61E0D8015A968C910E94B30BF701A9
:101B000090858681D8015D968C935D975E969C93B7
:101B100061E00E94B30B60E0F801868D0E94B30B78
:101B200061E0D8015D968C910E94840B4FB6F894C9
:101B300080916F02811126C0F3018491F4012491F8
:101B4000E82FF0E0EE0FFF1FEB5FFD4FA591B49182
:101B50009C91822F892321F461E085E30E94840B0C
:101B600061E085E30E94B30B8CB580618CBD8CB5C0
:101B700080648CBD61E084E30E94B30B61E083E389
:101B80000E94B30B80916F028F5F80936F024FBEF4
:101B9000C6010197F1F760E0D8015D968C910E9433
:101BA000840B88E80E94920383E00E94920361E024
:101BB000F801858D0E94840BC6010197F1F760E062
:101BC000D8015D968C910E94840B88E90E94920353
:101BD00080E00E94920380E00E94920380E00E94D5
:101BE000920380E00E94920361E0F801858D0E94DB
:101BF000840BC5010197F1F760E0D8015D968C91E7
:101C00000E94840B80EE0E94920361E0F801858DB2
:101C10000E94840B5394FFEFEF1AFF0A0E5F1F4FD1
:101C200022E052125ACF72EAE72E75E0F72E06EA4A
:101C300015E060E0D7018D917D010E94B30B0E1578
:101C40001F05B9F72EE9E22E25E0F22E38EAC32E61
:101C500035E0D32E45E0B42E5CE0952E62E0A62E52
:101C6000F80181908F0187818C3008F048C061E0D5
:101C7000882D0E94B30BD80117968C91B89EF00165
:101C80001124E75CFA4F982D9F732081207C822ECF
:101C9000892A808213821482692D0E945214BCE02A
:101CA0008B9FA001112420E030E0BA01620F731F66
:101CB000B69EF001B79EF00D1124E75CFA4F9081BB
:101CC00096FD12C02F5F3F4F2C30310571F7811107
:101CD0000BC010928000A09281001092850010929B
:101CE0008400A6BAA0926F00D8011796EC91BE9E10
:101CF000F0011124E75CFA4F808180648083F80151
:101D000095818381D70152968C93529753969C93D9
:101D100060E00E94B30B61E0F70183890E94B30B7E
:101D200060E0D70153968C910E94840BB2E0EB0ED9
:101D3000F11CC016D10609F093CFF894109220013F
:101D400089E08093210180E293E0909329018093C0
:101D50002801109225011092240182E080937300E3
:101D600078948093670410926B048091680460E01B
:101D70000E94B30B6AE070E080E090E00E941202E3
:101D800060E08091B1050E94840B83E090E00197B0
:101D9000F1F761E08091B1050E94840B83E290E04D
:101DA0000197F1F760E08091B1050E94840B80916A
:101DB000B00590E0FC01E756FD4F6491FC01ED5A3F
:101DC000FD4FE491F0E0EE0FFF1FE75CFD4F8591C2
:101DD000949100E412E42FE030E0462F0E94EF0BD4
:101DE000611571058105910549F0DC01CB01019672
:101DF000A11DB11DBC01CD019F7003C060E070E06A
:101E0000CB010E94111320E030E048E652E40E942A
:101E1000EC146B017C014B015C019B01AC010E9445
:101E2000ED15882319F080E492E01AC026013701ED
:101E3000E89477F82FEF3FEF4FE75FE7C301B20178
:101E40000E94ED1581110FC02FEF3FEF4FE75FE7C5
:101E5000C301B2010E940C1318162CF484E492E022
:101E60000E949509A1C02FEF3FEF4FE75FE4C70144
:101E7000B6010E94E81518161CF488E492E0F0CF31
:101E80002FEF3FEF4FE75FECC701B6010E940C1345
:101E900087FDF3CF20E030E0A901C701B6010E9421
:101EA0000C1387FF0BC06DE28AEC93E00E94F302F3
:101EB00046015701B7FAB094B7F8B0942AE037ED6D
:101EC00043EA5BE3C501B4010E9480144B015C014D
:101ED0000E9465156B017C010E9411139B01AC01EE
:101EE000C501B4010E947F144B015C0119A28E014F
:101EF0000F5D1F4F702E612EC701B6012AE030E042
:101F000040E050E00E94301469017A01605DF80100
:101F100062938F01232B242B252B71F7CF010E9475
:101F200095096EE28AEC93E00E94F30283E0F82EBA
:101F3000FA94FF20C9F120E030E040E251E4C5010D
:101F4000B4010E9472134B015C010E9465159B0154
:101F500040E050E019A2072D162D562EC32ED42E88
:101F6000E52ECA01B9012AE030E040E050E00E94CD
:101F70003014605DD8016E938D0121153105410546
:101F8000510579F7CD010E949509652D7C2D8D2D88
:101F90009E2D0E9411139B01AC01C501B4010E944A
:101FA0007F144B015C01C4CF8CE492E00E94950940
:101FB0008DE30E94C8018CE30E94C8018BE30E945C
:101FC000C8018AE30E94C80186E30E94C80187E332
:101FD0000E94C80188E30E94C80189E30E94C801E9
:101FE000A12CB12CC12CD12CE12CF12C00E010E063
:101FF0008091A5050E945B0B892B09F0DBC08CE367
:102000000E94C8011C018BE30E94C8012C018AE3D5
:102010000E94C8013C0189E30E94C8019BA38AA3D6
:1020200088E30E94C8014C0187E30E94C801B4E123
:10203000B29DA001B39D500D1124EAE0E49D9001F2
:10204000E59D300D11241A01220E331E620C731C03
:10205000E89D9001E99D300D11244AA15BA1240F58
:10206000351FE4E1DC01EA9FC001EB9F900D1124D4
:10207000820F931F1301281A390A932C990C99087F
:102080009101492D592D692D792D892D992D0E9468
:102090007614B22EC32ED42EE52EF62E072F182F2F
:1020A000A92EB101032C000C880B990B0E9413136D
:1020B0002CEA35EC47E257E30E94721320E030E04F
:1020C000A9010E9480142B013C012B2D3C2D4D2D8C
:1020D0005E2D6F2D702F812F9A2D0E9494152CEA62
:1020E00035EC47E257E30E9472139B01AC01C30138
:1020F000B2010E9480142B013C019101492D592D00
:10210000692D792D892D992D0E9466140E949415B0
:102110002CEA35EC47E257E30E94721320E030E0EE
:10212000A9010E9480146AA37BA38CA39DA32B2DDD
:102130003C2D4D2D5E2D6F2D702F812F9A2D0E94DD
:1021400066140E9494152CEA35EC47E257E30E948E
:1021500072139B01AC016AA17BA18CA19DA10E947D
:1021600080142DEC3CEC4CE45EE30E948014AB0147
:10217000BC0186E995E00E949D032DEC3CEC4CE40B
:102180005EE3C301B2010E948014AB01BC01705830
:1021900088E995E00E949D036AE070E080E090E0AD
:1021A0000E9412025101C92CD92CE92CF92C092DBD
:1021B000192D1ECF68EE73E080E090E00E941202BD
:1021C0000E946503D7CD80917605909177050C9498
:1021D0008A16CF92DF92EF92FF92109287021092AE
:1021E000860288EE93E0A0E0B0E0809388029093AE
:1021F0008902A0938A02B0938B0224E132E03093EB
:10220000850220938402109293021092920280938E
:10221000940290939502A0939602B093970226E2BF
:1022200032E0309391022093900245E351E05093C5
:102230009D0240939C0244E351E050939F024093DF
:102240009E0240E351E05093A1024093A00241E37B
:1022500051E05093A3024093A20242E351E0509315
:10226000A5024093A40246E351E05093A702409395
:10227000A6021092A9021092AA021092AB0210922A
:10228000AC021092300310922F038093310390938D
:102290003203A0933303B093340330932E0320937F
:1022A0002D0345ED50E050933A034093390344ED3C
:1022B00050E050933C0340933B0340ED50E050937B
:1022C0003E0340933D0341ED50E050934003409363
:1022D0003F0342ED50E0509342034093410346EDEB
:1022E00050E05093440340934303109246031092EE
:1022F000470310924803109249031092CD031092A5
:10230000CC038093CE039093CF03A093D003B093DC
:10231000D1033093CB032093CA0385EC90E09093D4
:10232000D7038093D60384EC90E09093D9038093F5
:10233000D80380EC90E09093DB038093DA0381EC88
:1023400090E09093DD038093DC0382EC90E0909327
:10235000DF038093DE0386EC90E09093E1038093AB
:10236000E0031092E3031092E4031092E50310924D
:10237000E6038091080290910902A0910A02B091AF
:102380000B0280939E0590939F05A093A005B093A8
:10239000A10580910C0290910D02A0910E02B091C6
:1023A0000F028093A2059093A305A093A405B09378
:1023B000A50584E08093A60587E08093A705109289
:1023C000A80584EB8093A90586E18093AA0588E19E
:1023D0008093AB0587E18093AC0589E18093AD05DF
:1023E000E0917505EC3020F08FEF8093AE0510C0C2
:1023F00081E08E0F80937505E093AE0585E0E89F40
:10240000F0011124E75CFA4F88EB9BE09283818313
:10241000E0917505EC3020F08FEF8093AF0510C090
:1024200081E08E0F80937505E093AF0585E0E89F0E
:10243000F0011124E75CFA4F88EB9BE092838183E3
:102440008CE080937D0584E280937E0586E0809316
:102450007F0585E0809380058FE1809381058EE183
:102460008093820583E28093830582E280938405D2
:1024700085E48093850584E48093860580E48093D9
:10248000890510928E0510928F051092900510927A
:102490009105109292051092930510929405109256
:1024A0009505E3E6F6E021E237E08FEF9FEFDC01F0
:1024B0001282138214821582168217821086118668
:1024C00083879487A587B6878787908BA18BB28BEC
:1024D00012861182108273962E173F0749F78DE0FE
:1024E00090E00E94F215FC011382128288E392E0D0
:1024F00091838083118687E2848384E1828784E0EC
:1025000083871486F0936006E0935F06109261065D
:102510001092620685E28093680410926A04109219
:102520007705109276051092790510927805109231
:102530007B0510927A0561E070E080E090E00E94F7
:102540001317009791F0909377058093760510927A
:1025500079051092780520917A0530917B05232B1F
:1025600009F04DC0FC0110824AC08091760590911F
:102570007705009711F00E948A1610927705109245
:10258000760510927B0510927A05109279051092CB
:1025900078058EE390E090933A078093390798E3AB
:1025A000C92E94E0D92EE12CF12CC0923B07D09299
:1025B0003C07E0923D07F0923E0760E00E94B30BBB
:1025C00081E08093010282E490E09093340780934D
:1025D0003307C0923507D0923607E0923707F09262
:1025E000380760E00E94B30B82E090E090932207EE
:1025F00080932107FF90EF90DF90CF900895109285
:102600007B0510927A056EE472E0809176059091D8
:1026100077050E940618BDCF0E944E1308F481E092
:102620000895E89409C097FB3EF4909580957095C5
:1026300061957F4F8F4F9F4F9923A9F0F92F96E90E
:10264000BB279395F695879577956795B795F11183
:10265000F8CFFAF4BB0F11F460FF1BC06F5F7F4F20
:102660008F4F9F4F16C0882311F096E911C0772332
:1026700021F09EE8872F762F05C0662371F096E83B
:10268000862F70E060E02AF09A95660F771F881F0A
:10269000DAF7880F9695879597F90895990F0008AE
:1026A000550FAA0BE0E8FEEF16161706E807F90724
:1026B000C0F012161306E407F50798F0621B730BBF
:1026C000840B950B39F40A2661F0232B242B252B40
:1026D00021F408950A2609F4A140A6958FEF811DE3
:1026E000811D08950E9485130C94F6130E94E8132F
:1026F00038F00E94EF1320F0952311F00C94DF13B3
:102700000C94E51311240C942A140E94071470F3FE
:10271000959FC1F3950F50E0551F629FF001729F86
:10272000BB27F00DB11D639FAA27F00DB11DAA1F95
:10273000649F6627B00DA11D661F829F2227B00DE2
:10274000A11D621F739FB00DA11D621F839FA00D6D
:10275000611D221F749F3327A00D611D231F849FBD
:10276000600D211D822F762F6A2F11249F57504014
:102770009AF0F1F088234AF0EE0FFF1FBB1F661F8F
:10278000771F881F91505040A9F79E3F510580F058
:102790000C94DF130C942A145F3FE4F3983ED4F3B7
:1027A000869577956795B795F795E7959F5FC1F7FC
:1027B000FE2B880F911D9695879597F9089597F9A7
:1027C0009F6780E870E060E008959FEF80EC0895D7
:1027D00000240A9416161706180609060895002400
:1027E0000A9412161306140605060895092E03947A
:1027F000000C11F4882352F0BB0F40F4BF2B11F4EE
:1028000060FF04C06F5F7F4F8F4F9F4F089557FD4C
:102810009058440F551F59F05F3F71F04795880F4E
:1028200097FB991F61F09F3F79F0879508951216E5
:1028300013061406551FF2CF4695F1DF08C0161691
:1028400017061806991FF1CF869571056105089442
:102850000895E894BB2766277727CB0197F9089559
:10286000A1E21A2EAA1BBB1BFD010DC0AA1FBB1F94
:10287000EE1FFF1FA217B307E407F50720F0A21B06
:10288000B30BE40BF50B661F771F881F991F1A9473
:1028900069F760957095809590959B01AC01BD019D
:1028A000CF010895991B79E004C0991F961708F08D
:1028B000961B881F7A95C9F780950895EE0FFF1F24
:1028C000881F8BBF0790F691E02D19946095709545
:1028D0008095909530954095509521953F4F4F4F5D
:1028E0005F4F6F4F7F4F8F4F9F4F08952A193B09BE
:1028F0004C095D096E097F09800B910B08955058B2
:10290000BB27AA270E9497140C94F6130E94E81381
:1029100038F00E94EF1320F039F49F3F19F426F4A9
:102920000C94E5130EF4E095E7FB0C94DF13E92F0C
:102930000E94071458F3BA176207730784079507B4
:1029400020F079F4A6F50C9429140EF4E0950B2EE2
:10295000BA2FA02D0B01B90190010C01CA01A001F1
:102960001124FF27591B99F0593F50F4503E68F14C
:102970001A16F040A22F232F342F4427585FF3CF8D
:10298000469537952795A795F0405395C9F77EF45E
:102990001F16BA0B620B730B840BBAF09150A1F0A7
:1029A000FF0FBB1F661F771F881FC2F70EC0BA0F2D
:1029B000621F731F841F48F4879577956795B795B5
:1029C000F7959E3F08F0B0CF9395880F08F09927B0
:1029D000EE0F9795879508950E9400150C94F613B5
:1029E0000E94EF1358F00E94E81340F029F45F3F73
:1029F00029F00C94DF1351110C942A140C94E51354
:102A00000E94071468F39923B1F3552391F3951BA2
:102A1000550BBB27AA2762177307840738F09F5FFF
:102A20005F4F220F331F441FAA1FA9F335D00E2E6C
:102A30003AF0E0E832D091505040E695001CCAF7D9
:102A40002BD0FE2F29D0660F771F881FBB1F26179C
:102A500037074807AB07B0E809F0BB0B802DBF0173
:102A6000FF2793585F4F3AF09E3F510578F00C9442
:102A7000DF130C942A145F3FE4F3983ED4F3869559
:102A800077956795B795F7959F5FC9F7880F911D63
:102A90009695879597F90895E1E0660F771F881F4F
:102AA000BB1F621773078407BA0720F0621B730B02
:102AB000840BBA0BEE1F88F7E09508950E94651508
:102AC0006894B1110C942A1408950E940F1488F090
:102AD0009F5798F0B92F9927B751B0F0E1F0660FE2
:102AE000771F881F991F1AF0BA95C9F714C0B13023
:102AF00091F00E942914B1E008950C942914672FD5
:102B0000782F8827B85F39F0B93FCCF38695779551
:102B10006795B395D9F73EF490958095709561953A
:102B20007F4F8F4F9F4F089597FB16F40E94D81543
:102B30000C949B15E894F92F96EBFF2381F0121665
:102B400013061406440B9395F6958795779567952C
:102B500057954040FF23B9F71BC099270895882354
:102B600051F49850D2F7872B762F652F542F432F8F
:102B7000322F20E0B1F3121613061406440B8823FB
:102B80003AF09A95440F551F661F771F881FCAF7A2
:102B900055234AF4440F551F11F460FF04C06F5FC2
:102BA0007F4F8F4F9F4F880F9695879597F9089580
:102BB00090958095709560955095409530952195AC
:102BC0003F4F4F4F5F4F6F4F7F4F8F4F9F4F089536
:102BD0000E944E1308F48FEF08950E944E13880B45
:102BE000990B08950F931F93CF93DF938230910534
:102BF00010F482E090E0E0914107F091420720E07C
:102C000030E0A0E0B0E0309719F1408151810281BD
:102C1000138148175907C8F08417950769F410976E
:102C200031F012960C93129713961C9327C00093C1
:102C300041071093420722C02115310519F04217B0
:102C4000530718F49A01BD01EF01DF01F801DBCF52
:102C500021153105F9F0281B390B2430310580F49A
:102C60008A819B816115710521F0FB019383828329
:102C700004C09093420780934107FE01329644C0FE
:102C8000FE01E20FF31F81939193225031093983A2
:102C900028833AC020913F0730914007232B41F40D
:102CA00020910402309105023093400720933F07A2
:102CB00020910202309103022115310541F42DB714
:102CC0003EB74091060250910702241B350BE0915C
:102CD0003F07F0914007E217F307A0F42E1B3F0BCC
:102CE0002817390778F0AC014E5F5F4F241735077E
:102CF00048F04E0F5F1F5093400740933F0781936A
:102D0000919302C0E0E0F0E0CF01DF91CF911F91FD
:102D10000F910895CF93DF93009709F481C0FC01D0
:102D2000329713821282A0914107B0914207109707
:102D300081F420813181820F931F20913F073091D0
:102D400040072817390751F5F0934007E0933F07F4
:102D500067C0ED0120E030E0CE17DF0740F44A8184
:102D60005B819E0141155105F1F0EA01F5CFD38356
:102D7000C28340815181840F951FC817D90759F428
:102D800088819981840F951F0296918380838A811F
:102D90009B81938382832115310529F4F0934207A7
:102DA000E09341073DC0E901FB83EA8349915991D2
:102DB000C40FD51FEC17FD0761F480819181840F4A
:102DC000951F0296E90199838883828193819B8371
:102DD0008A83E0E0F0E012968D919C911397009722
:102DE00019F0FD01DC01F7CF8D919C9111979D01A8
:102DF0002E5F3F4F820F931F20913F073091400776
:102E00002817390769F4309729F410924207109275
:102E1000410702C013821282B0934007A0933F077C
:102E2000DF91CF9108956F927F928F929F92AF9290
:102E3000BF92CF92DF92EF92FF920F931F93CF93A7
:102E4000DF93009789F4CB01DF91CF911F910F9110
:102E5000FF90EF90DF90CF90BF90AF909F908F90BA
:102E60007F906F900C94F215FC01E60FF71F9C0108
:102E700022503109E217F30708F4A9C0EC01D90187
:102E80000D911C91119706171707B0F00530110529
:102E900008F49BC0C80104978617970708F495C0EB
:102EA00002501109061B170B019311936D937C932C
:102EB000CF010E948A1689C05B01A01AB10A4C0199
:102EC000800E911EA0914107B0914207612C712C98
:102ED000E12CF12C109709F446C08D919C9111972B
:102EE000A815B905B1F56C0142E0C40ED11CCA1495
:102EF000DB0478F14C018A189B08640142E0C40E9F
:102F0000D11C1296BC9012971396AC91B5E0CB16DB
:102F1000D10440F0B282A38391828082D9016D9363
:102F20007C9309C00E5F1F4F800F911FF9019183A1
:102F30008083EB2DFA2FE114F10431F0D7011396C1
:102F4000FC93EE93129741C0F0934207E093410740
:102F50003CC06816790608F43C017D0112960D907C
:102F6000BC91A02DB7CF80913F0790914007881664
:102F70009906E1F466167706C8F4809102029091F2
:102F80000302009741F48DB79EB74091060250911D
:102F90000702841B950BE817F907C8F4F093400764
:102FA000E0933F07F901718360830FC0CB010E945A
:102FB000F2157C01009759F0A801BE010E94FD178F
:102FC000CE010E948A16C70104C0CE0102C080E073
:102FD00090E0DF91CF911F910F91FF90EF90DF90E4
:102FE000CF90BF90AF909F908F907F906F900895FB
:102FF00081E090E0F8940C940D18FB01DC0102C014
:1030000001900D9241505040D8F70895FB01DC012A
:1030100001900D920020E1F7089511E0C4E9D1E09C
:1030200000E006C0802FFE010E945E142196011D63
:0E303000C539D10780E00807A9F7F894FFCF53
:10303E00FF01000043072000363738391B1D1A1CCC
:10304E00000000001009E3089A03B708DB08C70860
:10305E00B80800000000F3024C0276024003A702FB
:10306E008502990200000000B9044C029A039903EC
:10307E006E616E00696E66006F7666000D0A000066
:00000001FF
